{
  "contractName": "AccessControl",
  "abi": [
    {
      "inputs": [],
      "stateMutability": "nonpayable",
      "type": "constructor"
    },
    {
      "anonymous": false,
      "inputs": [
        {
          "indexed": true,
          "internalType": "address",
          "name": "previousOwner",
          "type": "address"
        },
        {
          "indexed": true,
          "internalType": "address",
          "name": "newOwner",
          "type": "address"
        }
      ],
      "name": "OwnershipTransferred",
      "type": "event"
    },
    {
      "anonymous": false,
      "inputs": [
        {
          "indexed": true,
          "internalType": "bytes32",
          "name": "role",
          "type": "bytes32"
        },
        {
          "indexed": true,
          "internalType": "address",
          "name": "account",
          "type": "address"
        },
        {
          "indexed": true,
          "internalType": "address",
          "name": "grantedBy",
          "type": "address"
        }
      ],
      "name": "RoleGranted",
      "type": "event"
    },
    {
      "anonymous": false,
      "inputs": [
        {
          "indexed": true,
          "internalType": "bytes32",
          "name": "role",
          "type": "bytes32"
        },
        {
          "indexed": true,
          "internalType": "address",
          "name": "account",
          "type": "address"
        },
        {
          "indexed": true,
          "internalType": "address",
          "name": "revokedBy",
          "type": "address"
        }
      ],
      "name": "RoleRevoked",
      "type": "event"
    },
    {
      "inputs": [],
      "name": "ADMIN_ROLE",
      "outputs": [
        {
          "internalType": "bytes32",
          "name": "",
          "type": "bytes32"
        }
      ],
      "stateMutability": "view",
      "type": "function"
    },
    {
      "inputs": [],
      "name": "AUDITOR_ROLE",
      "outputs": [
        {
          "internalType": "bytes32",
          "name": "",
          "type": "bytes32"
        }
      ],
      "stateMutability": "view",
      "type": "function"
    },
    {
      "inputs": [],
      "name": "DOCUMENT_MANAGER_ROLE",
      "outputs": [
        {
          "internalType": "bytes32",
          "name": "",
          "type": "bytes32"
        }
      ],
      "stateMutability": "view",
      "type": "function"
    },
    {
      "inputs": [],
      "name": "USER_REGISTRAR_ROLE",
      "outputs": [
        {
          "internalType": "bytes32",
          "name": "",
          "type": "bytes32"
        }
      ],
      "stateMutability": "view",
      "type": "function"
    },
    {
      "inputs": [],
      "name": "owner",
      "outputs": [
        {
          "internalType": "address",
          "name": "",
          "type": "address"
        }
      ],
      "stateMutability": "view",
      "type": "function"
    },
    {
      "inputs": [
        {
          "internalType": "address",
          "name": "account",
          "type": "address"
        },
        {
          "internalType": "bytes32",
          "name": "role",
          "type": "bytes32"
        }
      ],
      "name": "hasRole",
      "outputs": [
        {
          "internalType": "bool",
          "name": "",
          "type": "bool"
        }
      ],
      "stateMutability": "view",
      "type": "function"
    },
    {
      "inputs": [
        {
          "internalType": "address",
          "name": "account",
          "type": "address"
        },
        {
          "internalType": "bytes32",
          "name": "role",
          "type": "bytes32"
        }
      ],
      "name": "grantRole",
      "outputs": [],
      "stateMutability": "nonpayable",
      "type": "function"
    },
    {
      "inputs": [
        {
          "internalType": "address",
          "name": "account",
          "type": "address"
        },
        {
          "internalType": "bytes32",
          "name": "role",
          "type": "bytes32"
        }
      ],
      "name": "revokeRole",
      "outputs": [],
      "stateMutability": "nonpayable",
      "type": "function"
    },
    {
      "inputs": [
        {
          "internalType": "bytes32",
          "name": "role",
          "type": "bytes32"
        },
        {
          "internalType": "address",
          "name": "admin",
          "type": "address"
        }
      ],
      "name": "setRoleAdmin",
      "outputs": [],
      "stateMutability": "nonpayable",
      "type": "function"
    },
    {
      "inputs": [
        {
          "internalType": "bytes32",
          "name": "role",
          "type": "bytes32"
        }
      ],
      "name": "getRoleAdmin",
      "outputs": [
        {
          "internalType": "address",
          "name": "",
          "type": "address"
        }
      ],
      "stateMutability": "view",
      "type": "function"
    },
    {
      "inputs": [
        {
          "internalType": "address",
          "name": "newOwner",
          "type": "address"
        }
      ],
      "name": "transferOwnership",
      "outputs": [],
      "stateMutability": "nonpayable",
      "type": "function"
    }
  ],
  "bytecode": "0x608060405234801561000f575f80fd5b50600280546001600160a01b031916339081179091555f818152602081815260408083207fa49807205ce4d355092ef5a8a18f56e8913cf4a201fbe287825b095693c217758085529252808320805460ff1990811660019081179092557f59a1c48e5837ad7a7f3dcedcbe129bf3249ec4fbf651fd4f5e2600ead39fe2f5855282852080548216831790557f8e011e025847d9fd71c1d4698fcea4a047c303cb00ecc469fcc698787446e0f3855282852080548216831790555f80516020610aa08339815191528552828520805490911690911790555183925f80516020610a8083398151915291a4604051339081907f59a1c48e5837ad7a7f3dcedcbe129bf3249ec4fbf651fd4f5e2600ead39fe2f5905f80516020610a80833981519152905f90a4604051339081907f8e011e025847d9fd71c1d4698fcea4a047c303cb00ecc469fcc698787446e0f3905f80516020610a80833981519152905f90a4604051339081905f80516020610aa0833981519152905f80516020610a80833981519152905f90a46108dd806101a35f395ff3fe608060405234801561000f575f80fd5b50600436106100a6575f3560e01c80638da5cb5b1161006e5780638da5cb5b14610187578063ab2742dc1461019a578063ac4ab3fb146101ad578063ad763192146101f3578063cffafec214610206578063f2fde38b1461022d575f80fd5b8063208dd1ff146100aa578063248a9ca3146100bf5780636626ffca146101045780636e1d616e1461013957806375b238fc14610160575b5f80fd5b6100bd6100b83660046107d8565b610240565b005b6100e76100cd366004610800565b5f908152600160205260409020546001600160a01b031690565b6040516001600160a01b0390911681526020015b60405180910390f35b61012b7f8e011e025847d9fd71c1d4698fcea4a047c303cb00ecc469fcc698787446e0f381565b6040519081526020016100fb565b61012b7f59a1c48e5837ad7a7f3dcedcbe129bf3249ec4fbf651fd4f5e2600ead39fe2f581565b61012b7fa49807205ce4d355092ef5a8a18f56e8913cf4a201fbe287825b095693c2177581565b6002546100e7906001600160a01b031681565b6100bd6101a83660046107d8565b6103c3565b6101e36101bb3660046107d8565b6001600160a01b03919091165f90815260208181526040808320938352929052205460ff1690565b60405190151581526020016100fb565b6100bd610201366004610817565b610543565b61012b7f5520d115ceffb88f02315d646cd7618d18024f657afe794865243ed5b75fb04f81565b6100bd61023b366004610841565b61059a565b6002546001600160a01b031633148061026e57505f818152600160205260409020546001600160a01b031633145b6102e55760405162461bcd60e51b815260206004820152603b60248201527f416363657373436f6e74726f6c3a2063616c6c6572206973206e6f742061757460448201527f686f72697a656420746f207265766f6b65207468697320726f6c65000000000060648201526084015b60405180910390fd5b6001600160a01b0382165f9081526020818152604080832084845290915290205460ff1661036c5760405162461bcd60e51b815260206004820152602e60248201527f416363657373436f6e74726f6c3a206163636f756e7420646f6573206e6f742060448201526d68617665207468697320726f6c6560901b60648201526084016102dc565b6001600160a01b0382165f81815260208181526040808320858452909152808220805460ff191690555133929184917ff6391f5c32d9c69d2a47ea670b442974b53935d1edc7fd64eb21e047a839171b9190a45050565b6002546001600160a01b03163314806103f157505f818152600160205260409020546001600160a01b031633145b6104635760405162461bcd60e51b815260206004820152603a60248201527f416363657373436f6e74726f6c3a2063616c6c6572206973206e6f742061757460448201527f686f72697a656420746f206772616e74207468697320726f6c6500000000000060648201526084016102dc565b6001600160a01b0382165f9081526020818152604080832084845290915290205460ff16156104e95760405162461bcd60e51b815260206004820152602c60248201527f416363657373436f6e74726f6c3a206163636f756e7420616c7265616479206860448201526b6173207468697320726f6c6560a01b60648201526084016102dc565b6001600160a01b0382165f81815260208181526040808320858452909152808220805460ff191660011790555133929184917f2f8788117e7eff1d82e926ec794901d17c78024a50270940304540a733656f0d9190a45050565b6002546001600160a01b0316331461056d5760405162461bcd60e51b81526004016102dc90610861565b5f9182526001602052604090912080546001600160a01b0319166001600160a01b03909216919091179055565b6002546001600160a01b031633146105c45760405162461bcd60e51b81526004016102dc90610861565b6001600160a01b03811661062f5760405162461bcd60e51b815260206004820152602c60248201527f416363657373436f6e74726f6c3a206e6577206f776e6572206973207468652060448201526b7a65726f206164647265737360a01b60648201526084016102dc565b600280546001600160a01b031981166001600160a01b0384811691821790935591165f818152602081815260408083207fa49807205ce4d355092ef5a8a18f56e8913cf4a201fbe287825b095693c217758085528184528285208054888752868652848720928752828652848720805460ff1990811660ff9384161515179091557f59a1c48e5837ad7a7f3dcedcbe129bf3249ec4fbf651fd4f5e2600ead39fe2f588528487528588208054858952878a208054841691851615159190911790557f8e011e025847d9fd71c1d4698fcea4a047c303cb00ecc469fcc698787446e0f389528588528689208054868a52888b208054851691861615159190911790557f5520d115ceffb88f02315d646cd7618d18024f657afe794865243ed5b75fb04f8a52868952878a208054968a52888b2080548516979095161515969096179093558354821690935582548116909255805482169055919093528254169091555191929183917f8be0079c531659141344cd1fd0a4f28419497f9722a3daafe3b4186f6b6457e091a35050565b80356001600160a01b03811681146107d3575f80fd5b919050565b5f80604083850312156107e9575f80fd5b6107f2836107bd565b946020939093013593505050565b5f60208284031215610810575f80fd5b5035919050565b5f8060408385031215610828575f80fd5b82359150610838602084016107bd565b90509250929050565b5f60208284031215610851575f80fd5b61085a826107bd565b9392505050565b60208082526026908201527f416363657373436f6e74726f6c3a2063616c6c6572206973206e6f74207468656040820152651037bbb732b960d11b60608201526080019056fea2646970667358221220891d45132c269a972c61d67de485f7b1539db785ec9d9325b74ad4b2b970c1fa64736f6c634300081400332f8788117e7eff1d82e926ec794901d17c78024a50270940304540a733656f0d5520d115ceffb88f02315d646cd7618d18024f657afe794865243ed5b75fb04f",
  "immutableReferences": {},
  "source": "// SPDX-License-Identifier: MIT\npragma solidity ^0.8.20;\n\n/**\n * @title AccessControl\n * @dev Role-based access control contract for managing permissions\n * Supports multiple roles: ADMIN, AUDITOR, USER_REGISTRAR, DOCUMENT_MANAGER\n */\ncontract AccessControl {\n    // Role definitions\n    bytes32 public constant ADMIN_ROLE = keccak256(\"ADMIN_ROLE\");\n    bytes32 public constant AUDITOR_ROLE = keccak256(\"AUDITOR_ROLE\");\n    bytes32 public constant USER_REGISTRAR_ROLE = keccak256(\"USER_REGISTRAR_ROLE\");\n    bytes32 public constant DOCUMENT_MANAGER_ROLE = keccak256(\"DOCUMENT_MANAGER_ROLE\");\n\n    // Mapping from address to role to boolean\n    mapping(address => mapping(bytes32 => bool)) private _roles;\n    \n    // Mapping to track role admins (who can grant/revoke roles)\n    mapping(bytes32 => address) private _roleAdmins;\n    \n    // Owner of the contract (can grant/revoke any role)\n    address public owner;\n\n    // Events\n    event RoleGranted(bytes32 indexed role, address indexed account, address indexed grantedBy);\n    event RoleRevoked(bytes32 indexed role, address indexed account, address indexed revokedBy);\n    event OwnershipTransferred(address indexed previousOwner, address indexed newOwner);\n\n    modifier onlyOwner() {\n        require(msg.sender == owner, \"AccessControl: caller is not the owner\");\n        _;\n    }\n\n    modifier onlyRole(bytes32 role) {\n        require(hasRole(msg.sender, role), \"AccessControl: account does not have required role\");\n        _;\n    }\n\n    constructor() {\n        owner = msg.sender;\n        // Grant owner all roles\n        _roles[msg.sender][ADMIN_ROLE] = true;\n        _roles[msg.sender][AUDITOR_ROLE] = true;\n        _roles[msg.sender][USER_REGISTRAR_ROLE] = true;\n        _roles[msg.sender][DOCUMENT_MANAGER_ROLE] = true;\n        \n        emit RoleGranted(ADMIN_ROLE, msg.sender, msg.sender);\n        emit RoleGranted(AUDITOR_ROLE, msg.sender, msg.sender);\n        emit RoleGranted(USER_REGISTRAR_ROLE, msg.sender, msg.sender);\n        emit RoleGranted(DOCUMENT_MANAGER_ROLE, msg.sender, msg.sender);\n    }\n\n    /**\n     * @dev Check if an account has a specific role\n     * @param account The address to check\n     * @param role The role to check\n     * @return bool True if account has the role\n     */\n    function hasRole(address account, bytes32 role) public view returns (bool) {\n        return _roles[account][role];\n    }\n\n    /**\n     * @dev Grant a role to an account (only owner or role admin)\n     * @param account The address to grant the role to\n     * @param role The role to grant\n     */\n    function grantRole(address account, bytes32 role) public {\n        require(\n            msg.sender == owner || msg.sender == _roleAdmins[role],\n            \"AccessControl: caller is not authorized to grant this role\"\n        );\n        require(!_roles[account][role], \"AccessControl: account already has this role\");\n        \n        _roles[account][role] = true;\n        emit RoleGranted(role, account, msg.sender);\n    }\n\n    /**\n     * @dev Revoke a role from an account (only owner or role admin)\n     * @param account The address to revoke the role from\n     * @param role The role to revoke\n     */\n    function revokeRole(address account, bytes32 role) public {\n        require(\n            msg.sender == owner || msg.sender == _roleAdmins[role],\n            \"AccessControl: caller is not authorized to revoke this role\"\n        );\n        require(_roles[account][role], \"AccessControl: account does not have this role\");\n        \n        _roles[account][role] = false;\n        emit RoleRevoked(role, account, msg.sender);\n    }\n\n    /**\n     * @dev Set a role admin (only owner)\n     * @param role The role to set admin for\n     * @param admin The address to set as admin\n     */\n    function setRoleAdmin(bytes32 role, address admin) public onlyOwner {\n        _roleAdmins[role] = admin;\n    }\n\n    /**\n     * @dev Get the admin for a specific role\n     * @param role The role to get admin for\n     * @return address The admin address\n     */\n    function getRoleAdmin(bytes32 role) public view returns (address) {\n        return _roleAdmins[role];\n    }\n\n    /**\n     * @dev Transfer ownership of the contract\n     * @param newOwner The new owner address\n     */\n    function transferOwnership(address newOwner) public onlyOwner {\n        require(newOwner != address(0), \"AccessControl: new owner is the zero address\");\n        \n        address oldOwner = owner;\n        owner = newOwner;\n        \n        // Transfer all roles from old owner to new owner\n        _roles[newOwner][ADMIN_ROLE] = _roles[oldOwner][ADMIN_ROLE];\n        _roles[newOwner][AUDITOR_ROLE] = _roles[oldOwner][AUDITOR_ROLE];\n        _roles[newOwner][USER_REGISTRAR_ROLE] = _roles[oldOwner][USER_REGISTRAR_ROLE];\n        _roles[newOwner][DOCUMENT_MANAGER_ROLE] = _roles[oldOwner][DOCUMENT_MANAGER_ROLE];\n        \n        _roles[oldOwner][ADMIN_ROLE] = false;\n        _roles[oldOwner][AUDITOR_ROLE] = false;\n        _roles[oldOwner][USER_REGISTRAR_ROLE] = false;\n        _roles[oldOwner][DOCUMENT_MANAGER_ROLE] = false;\n        \n        emit OwnershipTransferred(oldOwner, newOwner);\n    }\n}\n",
  "sourcePath": "/Users/pendiaz/Documents/my-projects/Capstone/blockchain/contracts/AccessControl.sol",
  "compiler": {
    "name": "solc",
    "version": "0.8.20+commit.a1b79de6.Emscripten.clang"
  },
  "schemaVersion": "3.4.16",
  "updatedAt": "2026-01-19T11:22:49.063Z",
  "devdoc": {
    "details": "Role-based access control contract for managing permissions Supports multiple roles: ADMIN, AUDITOR, USER_REGISTRAR, DOCUMENT_MANAGER",
    "kind": "dev",
    "methods": {
      "getRoleAdmin(bytes32)": {
        "details": "Get the admin for a specific role",
        "params": {
          "role": "The role to get admin for"
        },
        "returns": {
          "_0": "address The admin address"
        }
      },
      "grantRole(address,bytes32)": {
        "details": "Grant a role to an account (only owner or role admin)",
        "params": {
          "account": "The address to grant the role to",
          "role": "The role to grant"
        }
      },
      "hasRole(address,bytes32)": {
        "details": "Check if an account has a specific role",
        "params": {
          "account": "The address to check",
          "role": "The role to check"
        },
        "returns": {
          "_0": "bool True if account has the role"
        }
      },
      "revokeRole(address,bytes32)": {
        "details": "Revoke a role from an account (only owner or role admin)",
        "params": {
          "account": "The address to revoke the role from",
          "role": "The role to revoke"
        }
      },
      "setRoleAdmin(bytes32,address)": {
        "details": "Set a role admin (only owner)",
        "params": {
          "admin": "The address to set as admin",
          "role": "The role to set admin for"
        }
      },
      "transferOwnership(address)": {
        "details": "Transfer ownership of the contract",
        "params": {
          "newOwner": "The new owner address"
        }
      }
    },
    "title": "AccessControl",
    "version": 1
  },
  "userdoc": {
    "kind": "user",
    "methods": {},
    "version": 1
  }
}