{
  "contractName": "AuditLog",
  "abi": [
    {
      "inputs": [
        {
          "internalType": "address",
          "name": "_accessControlAddress",
          "type": "address"
        }
      ],
      "stateMutability": "nonpayable",
      "type": "constructor"
    },
    {
      "anonymous": false,
      "inputs": [
        {
          "indexed": false,
          "internalType": "string",
          "name": "approvalId",
          "type": "string"
        },
        {
          "indexed": false,
          "internalType": "string",
          "name": "eventType",
          "type": "string"
        },
        {
          "indexed": false,
          "internalType": "string",
          "name": "userId",
          "type": "string"
        },
        {
          "indexed": false,
          "internalType": "string",
          "name": "approverId",
          "type": "string"
        },
        {
          "indexed": false,
          "internalType": "bool",
          "name": "approved",
          "type": "bool"
        },
        {
          "indexed": false,
          "internalType": "string",
          "name": "details",
          "type": "string"
        },
        {
          "indexed": false,
          "internalType": "uint256",
          "name": "timestamp",
          "type": "uint256"
        },
        {
          "indexed": true,
          "internalType": "address",
          "name": "loggedBy",
          "type": "address"
        }
      ],
      "name": "AdminApprovalLogged",
      "type": "event"
    },
    {
      "anonymous": false,
      "inputs": [
        {
          "indexed": true,
          "internalType": "bytes32",
          "name": "hash",
          "type": "bytes32"
        },
        {
          "indexed": false,
          "internalType": "string",
          "name": "eventType",
          "type": "string"
        },
        {
          "indexed": false,
          "internalType": "uint256",
          "name": "timestamp",
          "type": "uint256"
        },
        {
          "indexed": true,
          "internalType": "address",
          "name": "loggedBy",
          "type": "address"
        }
      ],
      "name": "AuditHashLogged",
      "type": "event"
    },
    {
      "anonymous": false,
      "inputs": [
        {
          "indexed": false,
          "internalType": "string",
          "name": "eventType",
          "type": "string"
        },
        {
          "indexed": false,
          "internalType": "string",
          "name": "userId",
          "type": "string"
        },
        {
          "indexed": false,
          "internalType": "string",
          "name": "details",
          "type": "string"
        },
        {
          "indexed": false,
          "internalType": "uint256",
          "name": "timestamp",
          "type": "uint256"
        },
        {
          "indexed": true,
          "internalType": "address",
          "name": "loggedBy",
          "type": "address"
        }
      ],
      "name": "CriticalEventLogged",
      "type": "event"
    },
    {
      "inputs": [],
      "name": "accessControl",
      "outputs": [
        {
          "internalType": "contract AccessControl",
          "name": "",
          "type": "address"
        }
      ],
      "stateMutability": "view",
      "type": "function"
    },
    {
      "inputs": [
        {
          "internalType": "uint256",
          "name": "",
          "type": "uint256"
        }
      ],
      "name": "adminApprovalEntries",
      "outputs": [
        {
          "internalType": "string",
          "name": "approvalId",
          "type": "string"
        },
        {
          "internalType": "string",
          "name": "eventType",
          "type": "string"
        },
        {
          "internalType": "string",
          "name": "userId",
          "type": "string"
        },
        {
          "internalType": "string",
          "name": "approverId",
          "type": "string"
        },
        {
          "internalType": "bool",
          "name": "approved",
          "type": "bool"
        },
        {
          "internalType": "string",
          "name": "details",
          "type": "string"
        },
        {
          "internalType": "uint256",
          "name": "timestamp",
          "type": "uint256"
        },
        {
          "internalType": "address",
          "name": "loggedBy",
          "type": "address"
        }
      ],
      "stateMutability": "view",
      "type": "function"
    },
    {
      "inputs": [
        {
          "internalType": "uint256",
          "name": "",
          "type": "uint256"
        }
      ],
      "name": "auditHashEntries",
      "outputs": [
        {
          "internalType": "bytes32",
          "name": "hash",
          "type": "bytes32"
        },
        {
          "internalType": "string",
          "name": "eventType",
          "type": "string"
        },
        {
          "internalType": "uint256",
          "name": "timestamp",
          "type": "uint256"
        },
        {
          "internalType": "address",
          "name": "loggedBy",
          "type": "address"
        }
      ],
      "stateMutability": "view",
      "type": "function"
    },
    {
      "inputs": [
        {
          "internalType": "uint256",
          "name": "",
          "type": "uint256"
        }
      ],
      "name": "criticalEventEntries",
      "outputs": [
        {
          "internalType": "string",
          "name": "eventType",
          "type": "string"
        },
        {
          "internalType": "string",
          "name": "userId",
          "type": "string"
        },
        {
          "internalType": "string",
          "name": "details",
          "type": "string"
        },
        {
          "internalType": "uint256",
          "name": "timestamp",
          "type": "uint256"
        },
        {
          "internalType": "address",
          "name": "loggedBy",
          "type": "address"
        }
      ],
      "stateMutability": "view",
      "type": "function"
    },
    {
      "inputs": [
        {
          "internalType": "bytes32",
          "name": "",
          "type": "bytes32"
        }
      ],
      "name": "hashExists",
      "outputs": [
        {
          "internalType": "bool",
          "name": "",
          "type": "bool"
        }
      ],
      "stateMutability": "view",
      "type": "function"
    },
    {
      "inputs": [
        {
          "internalType": "bytes32",
          "name": "hash",
          "type": "bytes32"
        },
        {
          "internalType": "string",
          "name": "eventType",
          "type": "string"
        }
      ],
      "name": "logAuditHash",
      "outputs": [],
      "stateMutability": "nonpayable",
      "type": "function"
    },
    {
      "inputs": [
        {
          "internalType": "string",
          "name": "eventType",
          "type": "string"
        },
        {
          "internalType": "string",
          "name": "userId",
          "type": "string"
        },
        {
          "internalType": "string",
          "name": "details",
          "type": "string"
        }
      ],
      "name": "logCriticalEvent",
      "outputs": [],
      "stateMutability": "nonpayable",
      "type": "function"
    },
    {
      "inputs": [
        {
          "internalType": "string",
          "name": "approvalId",
          "type": "string"
        },
        {
          "internalType": "string",
          "name": "eventType",
          "type": "string"
        },
        {
          "internalType": "string",
          "name": "userId",
          "type": "string"
        },
        {
          "internalType": "string",
          "name": "approverId",
          "type": "string"
        },
        {
          "internalType": "bool",
          "name": "approved",
          "type": "bool"
        },
        {
          "internalType": "string",
          "name": "details",
          "type": "string"
        }
      ],
      "name": "logAdminApproval",
      "outputs": [],
      "stateMutability": "nonpayable",
      "type": "function"
    },
    {
      "inputs": [
        {
          "internalType": "bytes32",
          "name": "hash",
          "type": "bytes32"
        }
      ],
      "name": "verifyHash",
      "outputs": [
        {
          "internalType": "bool",
          "name": "exists",
          "type": "bool"
        },
        {
          "internalType": "uint256",
          "name": "timestamp",
          "type": "uint256"
        }
      ],
      "stateMutability": "view",
      "type": "function"
    },
    {
      "inputs": [],
      "name": "getAuditHashCount",
      "outputs": [
        {
          "internalType": "uint256",
          "name": "",
          "type": "uint256"
        }
      ],
      "stateMutability": "view",
      "type": "function"
    },
    {
      "inputs": [],
      "name": "getCriticalEventCount",
      "outputs": [
        {
          "internalType": "uint256",
          "name": "",
          "type": "uint256"
        }
      ],
      "stateMutability": "view",
      "type": "function"
    },
    {
      "inputs": [],
      "name": "getAdminApprovalCount",
      "outputs": [
        {
          "internalType": "uint256",
          "name": "",
          "type": "uint256"
        }
      ],
      "stateMutability": "view",
      "type": "function"
    }
  ],
  "bytecode": "0x608060405234801561000f575f80fd5b5060405161192238038061192283398101604081905261002e916100bd565b6001600160a01b0381166100995760405162461bcd60e51b815260206004820152602860248201527f41756469744c6f673a20696e76616c69642061636365737320636f6e74726f6c604482015267206164647265737360c01b606482015260840160405180910390fd5b5f80546001600160a01b0319166001600160a01b03929092169190911790556100ea565b5f602082840312156100cd575f80fd5b81516001600160a01b03811681146100e3575f80fd5b9392505050565b61182b806100f75f395ff3fe608060405234801561000f575f80fd5b50600436106100b1575f3560e01c8063aed41cef1161006e578063aed41cef1461014a578063b535b5c314610152578063d27fcb5714610184578063d29e075a146101a7578063ef020f4a146101ce578063fa418daa146101f8575f80fd5b806303d098b8146100b557806313007d55146100cc57806317dd780b146100f65780633598d50b1461011a5780635720d35e1461012f5780637abb1c3614610142575b5f80fd5b6002545b6040519081526020015b60405180910390f35b5f546100de906001600160a01b031681565b6040516001600160a01b0390911681526020016100c3565b6101096101043660046110fe565b61020b565b6040516100c3959493929190611158565b61012d610128366004611270565b6103e8565b005b61012d61013d366004611348565b610765565b6003546100b9565b6001546100b9565b6101746101603660046110fe565b60046020525f908152604090205460ff1681565b60405190151581526020016100c3565b6101976101923660046110fe565b6109d7565b6040516100c394939291906113ca565b6101ba6101b53660046110fe565b610aa1565b6040516100c3989796959493929190611403565b6101e16101dc3660046110fe565b610da5565b6040805192151583526020830191909152016100c3565b61012d610206366004611494565b610e34565b6002818154811061021a575f80fd5b905f5260205f2090600502015f91509050805f018054610239906114d8565b80601f0160208091040260200160405190810160405280929190818152602001828054610265906114d8565b80156102b05780601f10610287576101008083540402835291602001916102b0565b820191905f5260205f20905b81548152906001019060200180831161029357829003601f168201915b5050505050908060010180546102c5906114d8565b80601f01602080910402602001604051908101604052809291908181526020018280546102f1906114d8565b801561033c5780601f106103135761010080835404028352916020019161033c565b820191905f5260205f20905b81548152906001019060200180831161031f57829003601f168201915b505050505090806002018054610351906114d8565b80601f016020809104026020016040519081016040528092919081815260200182805461037d906114d8565b80156103c85780601f1061039f576101008083540402835291602001916103c8565b820191905f5260205f20905b8154815290600101906020018083116103ab57829003601f168201915b5050505060038301546004909301549192916001600160a01b0316905085565b5f546040805163370eb0b760e11b815290516001600160a01b039092169163ac4ab3fb9133918491636e1d616e9160048083019260209291908290030181865afa158015610438573d5f803e3d5ffd5b505050506040513d601f19601f8201168201806040525081019061045c9190611510565b6040516001600160e01b031960e085901b1681526001600160a01b0390921660048301526024820152604401602060405180830381865afa1580156104a3573d5f803e3d5ffd5b505050506040513d601f19601f820116820180604052508101906104c79190611527565b6104ec5760405162461bcd60e51b81526004016104e390611549565b60405180910390fd5b5f86511161053c5760405162461bcd60e51b815260206004820152601b60248201527f417070726f76616c2049442063616e6e6f7420626520656d707479000000000060448201526064016104e3565b5f85511161055c5760405162461bcd60e51b81526004016104e390611594565b5f8451116105a65760405162461bcd60e51b8152602060048201526017602482015276557365722049442063616e6e6f7420626520656d70747960481b60448201526064016104e3565b5f8351116105f65760405162461bcd60e51b815260206004820152601b60248201527f417070726f7665722049442063616e6e6f7420626520656d707479000000000060448201526064016104e3565b60408051610100810182528781526020810187905290810185905260608101849052821515608082015260a081018290524260c08201523360e0820152600380546001810182555f91909152815160089091027fc2575a0e9e593c00f959f8c92f12db2869c3395a3b0502d05e2516446f71f85b019081906106789082611619565b506020820151600182019061068d9082611619565b50604082015160028201906106a29082611619565b50606082015160038201906106b79082611619565b50608082015160048201805460ff191691151591909117905560a082015160058201906106e49082611619565b5060c0820151600682015560e090910151600790910180546001600160a01b0319166001600160a01b0390921691909117905560405133907f84c60a69ef0685783650f40fe753d726036d81fa79806b9d10daa188db5df20d906107559089908990899089908990899042906116d5565b60405180910390a2505050505050565b5f546040805163370eb0b760e11b815290516001600160a01b039092169163ac4ab3fb9133918491636e1d616e9160048083019260209291908290030181865afa1580156107b5573d5f803e3d5ffd5b505050506040513d601f19601f820116820180604052508101906107d99190611510565b6040516001600160e01b031960e085901b1681526001600160a01b0390921660048301526024820152604401602060405180830381865afa158015610820573d5f803e3d5ffd5b505050506040513d601f19601f820116820180604052508101906108449190611527565b6108605760405162461bcd60e51b81526004016104e390611549565b5f8351116108805760405162461bcd60e51b81526004016104e390611594565b5f8251116108ca5760405162461bcd60e51b8152602060048201526017602482015276557365722049442063616e6e6f7420626520656d70747960481b60448201526064016104e3565b6040805160a08101825284815260208101849052908101829052426060820152336080820152600280546001810182555f91909152815160059091027f405787fa12a823e0f2b7631cc41b3ba8828b3321ca811111fa75cd3aa3bb5ace019081906109359082611619565b506020820151600182019061094a9082611619565b506040820151600282019061095f9082611619565b5060608201516003820155608090910151600490910180546001600160a01b0319166001600160a01b0390921691909117905560405133907fad8a2cde1c7caa781aa68aea2a047f50ec88e8a6424bdc991b7572d33b6f732c906109ca908690869086904290611752565b60405180910390a2505050565b600181815481106109e6575f80fd5b5f9182526020909120600490910201805460018201805491935090610a0a906114d8565b80601f0160208091040260200160405190810160405280929190818152602001828054610a36906114d8565b8015610a815780601f10610a5857610100808354040283529160200191610a81565b820191905f5260205f20905b815481529060010190602001808311610a6457829003601f168201915b5050505060028301546003909301549192916001600160a01b0316905084565b60038181548110610ab0575f80fd5b905f5260205f2090600802015f91509050805f018054610acf906114d8565b80601f0160208091040260200160405190810160405280929190818152602001828054610afb906114d8565b8015610b465780601f10610b1d57610100808354040283529160200191610b46565b820191905f5260205f20905b815481529060010190602001808311610b2957829003601f168201915b505050505090806001018054610b5b906114d8565b80601f0160208091040260200160405190810160405280929190818152602001828054610b87906114d8565b8015610bd25780601f10610ba957610100808354040283529160200191610bd2565b820191905f5260205f20905b815481529060010190602001808311610bb557829003601f168201915b505050505090806002018054610be7906114d8565b80601f0160208091040260200160405190810160405280929190818152602001828054610c13906114d8565b8015610c5e5780601f10610c3557610100808354040283529160200191610c5e565b820191905f5260205f20905b815481529060010190602001808311610c4157829003601f168201915b505050505090806003018054610c73906114d8565b80601f0160208091040260200160405190810160405280929190818152602001828054610c9f906114d8565b8015610cea5780601f10610cc157610100808354040283529160200191610cea565b820191905f5260205f20905b815481529060010190602001808311610ccd57829003601f168201915b5050506004840154600585018054949560ff909216949193509150610d0e906114d8565b80601f0160208091040260200160405190810160405280929190818152602001828054610d3a906114d8565b8015610d855780601f10610d5c57610100808354040283529160200191610d85565b820191905f5260205f20905b815481529060010190602001808311610d6857829003601f168201915b5050505060068301546007909301549192916001600160a01b0316905088565b5f8181526004602052604081205460ff16908115610e2f575f5b600154811015610e2d578360018281548110610ddd57610ddd61179c565b905f5260205f2090600402015f015403610e1b5760018181548110610e0457610e0461179c565b905f5260205f209060040201600201549150610e2d565b80610e25816117b0565b915050610dbf565b505b915091565b5f546040805163370eb0b760e11b815290516001600160a01b039092169163ac4ab3fb9133918491636e1d616e9160048083019260209291908290030181865afa158015610e84573d5f803e3d5ffd5b505050506040513d601f19601f82011682018060405250810190610ea89190611510565b6040516001600160e01b031960e085901b1681526001600160a01b0390921660048301526024820152604401602060405180830381865afa158015610eef573d5f803e3d5ffd5b505050506040513d601f19601f82011682018060405250810190610f139190611527565b610f2f5760405162461bcd60e51b81526004016104e390611549565b81610f725760405162461bcd60e51b8152602060048201526013602482015272486173682063616e6e6f74206265207a65726f60681b60448201526064016104e3565b5f815111610f925760405162461bcd60e51b81526004016104e390611594565b5f8281526004602052604090205460ff1615610fe65760405162461bcd60e51b81526020600482015260136024820152724861736820616c72656164792065786973747360681b60448201526064016104e3565b5f828152600460208181526040808420805460ff19166001908117909155815160808101835287815292830186815242928401929092523360608401528054808201825594528151939092027fb10e2d527612073b26eecdfd717e6a320cf44b4afac2b0732d9fcbe2b7fa0cf6810193845591519092917fb10e2d527612073b26eecdfd717e6a320cf44b4afac2b0732d9fcbe2b7fa0cf7019061108a9082611619565b506040828101516002830155606090920151600390910180546001600160a01b0319166001600160a01b0390921691909117905551339083907fc9e100e0967b21c3e981d1f6638cb278b926193bdb873f107071a7feb0076cef906110f290859042906117d4565b60405180910390a35050565b5f6020828403121561110e575f80fd5b5035919050565b5f81518084525f5b818110156111395760208185018101518683018201520161111d565b505f602082860101526020601f19601f83011685010191505092915050565b60a081525f61116a60a0830188611115565b828103602084015261117c8188611115565b905082810360408401526111908187611115565b606084019590955250506001600160a01b03919091166080909101529392505050565b634e487b7160e01b5f52604160045260245ffd5b5f82601f8301126111d6575f80fd5b813567ffffffffffffffff808211156111f1576111f16111b3565b604051601f8301601f19908116603f01168101908282118183101715611219576112196111b3565b81604052838152866020858801011115611231575f80fd5b836020870160208301375f602085830101528094505050505092915050565b801515811461125d575f80fd5b50565b803561126b81611250565b919050565b5f805f805f8060c08789031215611285575f80fd5b863567ffffffffffffffff8082111561129c575f80fd5b6112a88a838b016111c7565b975060208901359150808211156112bd575f80fd5b6112c98a838b016111c7565b965060408901359150808211156112de575f80fd5b6112ea8a838b016111c7565b955060608901359150808211156112ff575f80fd5b61130b8a838b016111c7565b945061131960808a01611260565b935060a089013591508082111561132e575f80fd5b5061133b89828a016111c7565b9150509295509295509295565b5f805f6060848603121561135a575f80fd5b833567ffffffffffffffff80821115611371575f80fd5b61137d878388016111c7565b94506020860135915080821115611392575f80fd5b61139e878388016111c7565b935060408601359150808211156113b3575f80fd5b506113c0868287016111c7565b9150509250925092565b848152608060208201525f6113e26080830186611115565b6040830194909452506001600160a01b039190911660609091015292915050565b5f6101008083526114168184018c611115565b9050828103602084015261142a818b611115565b9050828103604084015261143e818a611115565b905082810360608401526114528189611115565b9050861515608084015282810360a084015261146e8187611115565b60c084019590955250506001600160a01b039190911660e0909101529695505050505050565b5f80604083850312156114a5575f80fd5b82359150602083013567ffffffffffffffff8111156114c2575f80fd5b6114ce858286016111c7565b9150509250929050565b600181811c908216806114ec57607f821691505b60208210810361150a57634e487b7160e01b5f52602260045260245ffd5b50919050565b5f60208284031215611520575f80fd5b5051919050565b5f60208284031215611537575f80fd5b815161154281611250565b9392505050565b6020808252602b908201527f41756469744c6f673a2063616c6c657220646f6573206e6f742068617665204160408201526a554449544f525f524f4c4560a81b606082015260800190565b6020808252601a908201527f4576656e7420747970652063616e6e6f7420626520656d707479000000000000604082015260600190565b601f821115611614575f81815260208120601f850160051c810160208610156115f15750805b601f850160051c820191505b81811015611610578281556001016115fd565b5050505b505050565b815167ffffffffffffffff811115611633576116336111b3565b6116478161164184546114d8565b846115cb565b602080601f83116001811461167a575f84156116635750858301515b5f19600386901b1c1916600185901b178555611610565b5f85815260208120601f198616915b828110156116a857888601518255948401946001909101908401611689565b50858210156116c557878501515f19600388901b60f8161c191681555b5050505050600190811b01905550565b60e081525f6116e760e083018a611115565b82810360208401526116f9818a611115565b9050828103604084015261170d8189611115565b905082810360608401526117218188611115565b9050851515608084015282810360a084015261173d8186611115565b9150508260c083015298975050505050505050565b608081525f6117646080830187611115565b82810360208401526117768187611115565b9050828103604084015261178a8186611115565b91505082606083015295945050505050565b634e487b7160e01b5f52603260045260245ffd5b5f600182016117cd57634e487b7160e01b5f52601160045260245ffd5b5060010190565b604081525f6117e66040830185611115565b9050826020830152939250505056fea2646970667358221220609fe68b8a31c4f8638d82468e76a98e39ae07066846431fa158b028f600c37c64736f6c63430008140033",
  "immutableReferences": {},
  "source": "// SPDX-License-Identifier: MIT\npragma solidity ^0.8.20;\n\nimport \"./AccessControl.sol\";\n\n/**\n * @title AuditLog\n * @dev Smart contract for immutable audit logging\n * Supports both hash-based logging (off-chain data) and full event logging (on-chain data)\n * Now uses AccessControl for role-based permissions\n */\ncontract AuditLog {\n    AccessControl public accessControl;\n    // Event emitted when an audit hash is logged (for off-chain data verification)\n    event AuditHashLogged(\n        bytes32 indexed hash,\n        string eventType,\n        uint256 timestamp,\n        address indexed loggedBy\n    );\n\n    // Event emitted when a critical event is logged (full data on-chain)\n    event CriticalEventLogged(\n        string eventType,\n        string userId,\n        string details,\n        uint256 timestamp,\n        address indexed loggedBy\n    );\n\n    // Event emitted when admin approval is logged\n    event AdminApprovalLogged(\n        string approvalId,\n        string eventType,\n        string userId,\n        string approverId,\n        bool approved,\n        string details,\n        uint256 timestamp,\n        address indexed loggedBy\n    );\n\n    // Struct to store audit hash entries\n    struct AuditHashEntry {\n        bytes32 hash;\n        string eventType;\n        uint256 timestamp;\n        address loggedBy;\n    }\n\n    // Struct to store critical event entries\n    struct CriticalEventEntry {\n        string eventType;\n        string userId;\n        string details;\n        uint256 timestamp;\n        address loggedBy;\n    }\n\n    // Struct to store admin approval entries\n    struct AdminApprovalEntry {\n        string approvalId;\n        string eventType;\n        string userId;\n        string approverId;\n        bool approved;\n        string details;\n        uint256 timestamp;\n        address loggedBy;\n    }\n\n    // Storage arrays\n    AuditHashEntry[] public auditHashEntries;\n    CriticalEventEntry[] public criticalEventEntries;\n    AdminApprovalEntry[] public adminApprovalEntries;\n\n    // Mapping for quick hash lookup\n    mapping(bytes32 => bool) public hashExists;\n\n    modifier onlyAuditor() {\n        require(\n            accessControl.hasRole(msg.sender, accessControl.AUDITOR_ROLE()),\n            \"AuditLog: caller does not have AUDITOR_ROLE\"\n        );\n        _;\n    }\n\n    constructor(address _accessControlAddress) {\n        require(_accessControlAddress != address(0), \"AuditLog: invalid access control address\");\n        accessControl = AccessControl(_accessControlAddress);\n    }\n\n    /**\n     * @dev Log an audit hash (for off-chain data verification)\n     * @param hash The SHA256 hash of the audit record stored off-chain\n     * @param eventType The type of event (e.g., \"profile_update\", \"email_change\")\n     */\n    function logAuditHash(bytes32 hash, string memory eventType) public onlyAuditor {\n        require(hash != bytes32(0), \"Hash cannot be zero\");\n        require(bytes(eventType).length > 0, \"Event type cannot be empty\");\n        require(!hashExists[hash], \"Hash already exists\");\n\n        hashExists[hash] = true;\n        \n        auditHashEntries.push(AuditHashEntry({\n            hash: hash,\n            eventType: eventType,\n            timestamp: block.timestamp,\n            loggedBy: msg.sender\n        }));\n\n        emit AuditHashLogged(hash, eventType, block.timestamp, msg.sender);\n    }\n\n    /**\n     * @dev Log a critical event with full details (on-chain storage)\n     * @param eventType The type of event\n     * @param userId The user ID affected\n     * @param details JSON string with full event details\n     */\n    function logCriticalEvent(\n        string memory eventType,\n        string memory userId,\n        string memory details\n    ) public onlyAuditor {\n        require(bytes(eventType).length > 0, \"Event type cannot be empty\");\n        require(bytes(userId).length > 0, \"User ID cannot be empty\");\n\n        criticalEventEntries.push(CriticalEventEntry({\n            eventType: eventType,\n            userId: userId,\n            details: details,\n            timestamp: block.timestamp,\n            loggedBy: msg.sender\n        }));\n\n        emit CriticalEventLogged(eventType, userId, details, block.timestamp, msg.sender);\n    }\n\n    /**\n     * @dev Log an admin approval event (on-chain storage)\n     * @param approvalId Unique identifier for the approval request\n     * @param eventType The type of event being approved\n     * @param userId The user ID affected\n     * @param approverId The admin ID who approved/rejected\n     * @param approved Whether the request was approved\n     * @param details Additional details about the approval\n     */\n    function logAdminApproval(\n        string memory approvalId,\n        string memory eventType,\n        string memory userId,\n        string memory approverId,\n        bool approved,\n        string memory details\n    ) public onlyAuditor {\n        require(bytes(approvalId).length > 0, \"Approval ID cannot be empty\");\n        require(bytes(eventType).length > 0, \"Event type cannot be empty\");\n        require(bytes(userId).length > 0, \"User ID cannot be empty\");\n        require(bytes(approverId).length > 0, \"Approver ID cannot be empty\");\n\n        adminApprovalEntries.push(AdminApprovalEntry({\n            approvalId: approvalId,\n            eventType: eventType,\n            userId: userId,\n            approverId: approverId,\n            approved: approved,\n            details: details,\n            timestamp: block.timestamp,\n            loggedBy: msg.sender\n        }));\n\n        emit AdminApprovalLogged(\n            approvalId,\n            eventType,\n            userId,\n            approverId,\n            approved,\n            details,\n            block.timestamp,\n            msg.sender\n        );\n    }\n\n    /**\n     * @dev Verify if a hash exists in the blockchain\n     * @param hash The hash to verify\n     * @return exists Whether the hash exists\n     * @return timestamp The timestamp when the hash was logged\n     */\n    function verifyHash(bytes32 hash) public view returns (bool exists, uint256 timestamp) {\n        exists = hashExists[hash];\n        if (exists) {\n            // Find the entry\n            for (uint256 i = 0; i < auditHashEntries.length; i++) {\n                if (auditHashEntries[i].hash == hash) {\n                    timestamp = auditHashEntries[i].timestamp;\n                    break;\n                }\n            }\n        }\n    }\n\n    /**\n     * @dev Get the total number of audit hash entries\n     * @return count The total count\n     */\n    function getAuditHashCount() public view returns (uint256) {\n        return auditHashEntries.length;\n    }\n\n    /**\n     * @dev Get the total number of critical event entries\n     * @return count The total count\n     */\n    function getCriticalEventCount() public view returns (uint256) {\n        return criticalEventEntries.length;\n    }\n\n    /**\n     * @dev Get the total number of admin approval entries\n     * @return count The total count\n     */\n    function getAdminApprovalCount() public view returns (uint256) {\n        return adminApprovalEntries.length;\n    }\n}\n",
  "sourcePath": "/Users/pendiaz/Documents/my-projects/Capstone/blockchain/contracts/AuditLog.sol",
  "compiler": {
    "name": "solc",
    "version": "0.8.20+commit.a1b79de6.Emscripten.clang"
  },
  "schemaVersion": "3.4.16",
  "updatedAt": "2026-01-19T11:22:49.064Z",
  "devdoc": {
    "details": "Smart contract for immutable audit logging Supports both hash-based logging (off-chain data) and full event logging (on-chain data) Now uses AccessControl for role-based permissions",
    "kind": "dev",
    "methods": {
      "getAdminApprovalCount()": {
        "details": "Get the total number of admin approval entries",
        "returns": {
          "_0": "count The total count"
        }
      },
      "getAuditHashCount()": {
        "details": "Get the total number of audit hash entries",
        "returns": {
          "_0": "count The total count"
        }
      },
      "getCriticalEventCount()": {
        "details": "Get the total number of critical event entries",
        "returns": {
          "_0": "count The total count"
        }
      },
      "logAdminApproval(string,string,string,string,bool,string)": {
        "details": "Log an admin approval event (on-chain storage)",
        "params": {
          "approvalId": "Unique identifier for the approval request",
          "approved": "Whether the request was approved",
          "approverId": "The admin ID who approved/rejected",
          "details": "Additional details about the approval",
          "eventType": "The type of event being approved",
          "userId": "The user ID affected"
        }
      },
      "logAuditHash(bytes32,string)": {
        "details": "Log an audit hash (for off-chain data verification)",
        "params": {
          "eventType": "The type of event (e.g., \"profile_update\", \"email_change\")",
          "hash": "The SHA256 hash of the audit record stored off-chain"
        }
      },
      "logCriticalEvent(string,string,string)": {
        "details": "Log a critical event with full details (on-chain storage)",
        "params": {
          "details": "JSON string with full event details",
          "eventType": "The type of event",
          "userId": "The user ID affected"
        }
      },
      "verifyHash(bytes32)": {
        "details": "Verify if a hash exists in the blockchain",
        "params": {
          "hash": "The hash to verify"
        },
        "returns": {
          "exists": "Whether the hash exists",
          "timestamp": "The timestamp when the hash was logged"
        }
      }
    },
    "title": "AuditLog",
    "version": 1
  },
  "userdoc": {
    "kind": "user",
    "methods": {},
    "version": 1
  }
}