{
  "contractName": "AuditLog",
  "abi": [
    {
      "inputs": [
        {
          "internalType": "address",
          "name": "_accessControlAddress",
          "type": "address"
        }
      ],
      "stateMutability": "nonpayable",
      "type": "constructor"
    },
    {
      "anonymous": false,
      "inputs": [
        {
          "indexed": false,
          "internalType": "string",
          "name": "approvalId",
          "type": "string"
        },
        {
          "indexed": false,
          "internalType": "string",
          "name": "eventType",
          "type": "string"
        },
        {
          "indexed": false,
          "internalType": "string",
          "name": "userId",
          "type": "string"
        },
        {
          "indexed": false,
          "internalType": "string",
          "name": "approverId",
          "type": "string"
        },
        {
          "indexed": false,
          "internalType": "bool",
          "name": "approved",
          "type": "bool"
        },
        {
          "indexed": false,
          "internalType": "string",
          "name": "details",
          "type": "string"
        },
        {
          "indexed": false,
          "internalType": "uint256",
          "name": "timestamp",
          "type": "uint256"
        },
        {
          "indexed": true,
          "internalType": "address",
          "name": "loggedBy",
          "type": "address"
        }
      ],
      "name": "AdminApprovalLogged",
      "type": "event"
    },
    {
      "anonymous": false,
      "inputs": [
        {
          "indexed": true,
          "internalType": "bytes32",
          "name": "hash",
          "type": "bytes32"
        },
        {
          "indexed": false,
          "internalType": "string",
          "name": "eventType",
          "type": "string"
        },
        {
          "indexed": false,
          "internalType": "uint256",
          "name": "timestamp",
          "type": "uint256"
        },
        {
          "indexed": true,
          "internalType": "address",
          "name": "loggedBy",
          "type": "address"
        }
      ],
      "name": "AuditHashLogged",
      "type": "event"
    },
    {
      "anonymous": false,
      "inputs": [
        {
          "indexed": false,
          "internalType": "string",
          "name": "eventType",
          "type": "string"
        },
        {
          "indexed": false,
          "internalType": "string",
          "name": "userId",
          "type": "string"
        },
        {
          "indexed": false,
          "internalType": "string",
          "name": "details",
          "type": "string"
        },
        {
          "indexed": false,
          "internalType": "uint256",
          "name": "timestamp",
          "type": "uint256"
        },
        {
          "indexed": true,
          "internalType": "address",
          "name": "loggedBy",
          "type": "address"
        }
      ],
      "name": "CriticalEventLogged",
      "type": "event"
    },
    {
      "inputs": [],
      "name": "accessControl",
      "outputs": [
        {
          "internalType": "contract AccessControl",
          "name": "",
          "type": "address"
        }
      ],
      "stateMutability": "view",
      "type": "function",
      "constant": true
    },
    {
      "inputs": [
        {
          "internalType": "uint256",
          "name": "",
          "type": "uint256"
        }
      ],
      "name": "adminApprovalEntries",
      "outputs": [
        {
          "internalType": "string",
          "name": "approvalId",
          "type": "string"
        },
        {
          "internalType": "string",
          "name": "eventType",
          "type": "string"
        },
        {
          "internalType": "string",
          "name": "userId",
          "type": "string"
        },
        {
          "internalType": "string",
          "name": "approverId",
          "type": "string"
        },
        {
          "internalType": "bool",
          "name": "approved",
          "type": "bool"
        },
        {
          "internalType": "string",
          "name": "details",
          "type": "string"
        },
        {
          "internalType": "uint256",
          "name": "timestamp",
          "type": "uint256"
        },
        {
          "internalType": "address",
          "name": "loggedBy",
          "type": "address"
        }
      ],
      "stateMutability": "view",
      "type": "function",
      "constant": true
    },
    {
      "inputs": [
        {
          "internalType": "uint256",
          "name": "",
          "type": "uint256"
        }
      ],
      "name": "auditHashEntries",
      "outputs": [
        {
          "internalType": "bytes32",
          "name": "hash",
          "type": "bytes32"
        },
        {
          "internalType": "string",
          "name": "eventType",
          "type": "string"
        },
        {
          "internalType": "uint256",
          "name": "timestamp",
          "type": "uint256"
        },
        {
          "internalType": "address",
          "name": "loggedBy",
          "type": "address"
        }
      ],
      "stateMutability": "view",
      "type": "function",
      "constant": true
    },
    {
      "inputs": [
        {
          "internalType": "uint256",
          "name": "",
          "type": "uint256"
        }
      ],
      "name": "criticalEventEntries",
      "outputs": [
        {
          "internalType": "string",
          "name": "eventType",
          "type": "string"
        },
        {
          "internalType": "string",
          "name": "userId",
          "type": "string"
        },
        {
          "internalType": "string",
          "name": "details",
          "type": "string"
        },
        {
          "internalType": "uint256",
          "name": "timestamp",
          "type": "uint256"
        },
        {
          "internalType": "address",
          "name": "loggedBy",
          "type": "address"
        }
      ],
      "stateMutability": "view",
      "type": "function",
      "constant": true
    },
    {
      "inputs": [
        {
          "internalType": "bytes32",
          "name": "",
          "type": "bytes32"
        }
      ],
      "name": "hashExists",
      "outputs": [
        {
          "internalType": "bool",
          "name": "",
          "type": "bool"
        }
      ],
      "stateMutability": "view",
      "type": "function",
      "constant": true
    },
    {
      "inputs": [
        {
          "internalType": "bytes32",
          "name": "",
          "type": "bytes32"
        }
      ],
      "name": "hashTimestamp",
      "outputs": [
        {
          "internalType": "uint256",
          "name": "",
          "type": "uint256"
        }
      ],
      "stateMutability": "view",
      "type": "function",
      "constant": true
    },
    {
      "inputs": [
        {
          "internalType": "bytes32",
          "name": "hash",
          "type": "bytes32"
        },
        {
          "internalType": "string",
          "name": "eventType",
          "type": "string"
        }
      ],
      "name": "logAuditHash",
      "outputs": [],
      "stateMutability": "nonpayable",
      "type": "function"
    },
    {
      "inputs": [
        {
          "internalType": "string",
          "name": "eventType",
          "type": "string"
        },
        {
          "internalType": "string",
          "name": "userId",
          "type": "string"
        },
        {
          "internalType": "string",
          "name": "details",
          "type": "string"
        }
      ],
      "name": "logCriticalEvent",
      "outputs": [],
      "stateMutability": "nonpayable",
      "type": "function"
    },
    {
      "inputs": [
        {
          "internalType": "string",
          "name": "approvalId",
          "type": "string"
        },
        {
          "internalType": "string",
          "name": "eventType",
          "type": "string"
        },
        {
          "internalType": "string",
          "name": "userId",
          "type": "string"
        },
        {
          "internalType": "string",
          "name": "approverId",
          "type": "string"
        },
        {
          "internalType": "bool",
          "name": "approved",
          "type": "bool"
        },
        {
          "internalType": "string",
          "name": "details",
          "type": "string"
        }
      ],
      "name": "logAdminApproval",
      "outputs": [],
      "stateMutability": "nonpayable",
      "type": "function"
    },
    {
      "inputs": [
        {
          "internalType": "bytes32",
          "name": "hash",
          "type": "bytes32"
        }
      ],
      "name": "verifyHash",
      "outputs": [
        {
          "internalType": "bool",
          "name": "exists",
          "type": "bool"
        },
        {
          "internalType": "uint256",
          "name": "timestamp",
          "type": "uint256"
        }
      ],
      "stateMutability": "view",
      "type": "function",
      "constant": true
    },
    {
      "inputs": [],
      "name": "getAuditHashCount",
      "outputs": [
        {
          "internalType": "uint256",
          "name": "",
          "type": "uint256"
        }
      ],
      "stateMutability": "view",
      "type": "function",
      "constant": true
    },
    {
      "inputs": [],
      "name": "getCriticalEventCount",
      "outputs": [
        {
          "internalType": "uint256",
          "name": "",
          "type": "uint256"
        }
      ],
      "stateMutability": "view",
      "type": "function",
      "constant": true
    },
    {
      "inputs": [],
      "name": "getAdminApprovalCount",
      "outputs": [
        {
          "internalType": "uint256",
          "name": "",
          "type": "uint256"
        }
      ],
      "stateMutability": "view",
      "type": "function",
      "constant": true
    },
    {
      "inputs": [
        {
          "internalType": "uint256",
          "name": "startTime",
          "type": "uint256"
        },
        {
          "internalType": "uint256",
          "name": "endTime",
          "type": "uint256"
        },
        {
          "internalType": "uint256",
          "name": "offset",
          "type": "uint256"
        },
        {
          "internalType": "uint256",
          "name": "limit",
          "type": "uint256"
        }
      ],
      "name": "getAuditHistory",
      "outputs": [
        {
          "internalType": "bytes32[]",
          "name": "hashes",
          "type": "bytes32[]"
        },
        {
          "internalType": "uint256[]",
          "name": "timestamps",
          "type": "uint256[]"
        },
        {
          "internalType": "string[]",
          "name": "eventTypes",
          "type": "string[]"
        },
        {
          "internalType": "uint256",
          "name": "totalInRange",
          "type": "uint256"
        }
      ],
      "stateMutability": "view",
      "type": "function",
      "constant": true
    },
    {
      "inputs": [
        {
          "internalType": "uint256",
          "name": "count",
          "type": "uint256"
        }
      ],
      "name": "getRecentAudits",
      "outputs": [
        {
          "internalType": "bytes32[]",
          "name": "hashes",
          "type": "bytes32[]"
        },
        {
          "internalType": "uint256[]",
          "name": "timestamps",
          "type": "uint256[]"
        },
        {
          "internalType": "string[]",
          "name": "eventTypes",
          "type": "string[]"
        }
      ],
      "stateMutability": "view",
      "type": "function",
      "constant": true
    },
    {
      "inputs": [],
      "name": "getAuditStats",
      "outputs": [
        {
          "internalType": "uint256",
          "name": "totalHashes",
          "type": "uint256"
        },
        {
          "internalType": "uint256",
          "name": "totalCriticalEvents",
          "type": "uint256"
        },
        {
          "internalType": "uint256",
          "name": "totalApprovals",
          "type": "uint256"
        },
        {
          "internalType": "uint256",
          "name": "latestTimestamp",
          "type": "uint256"
        }
      ],
      "stateMutability": "view",
      "type": "function",
      "constant": true
    }
  ],
  "bytecode": "0x60806040523480156200001157600080fd5b506040516200220d3803806200220d8339810160408190526200003491620000c6565b6001600160a01b038116620000a05760405162461bcd60e51b815260206004820152602860248201527f41756469744c6f673a20696e76616c69642061636365737320636f6e74726f6c604482015267206164647265737360c01b606482015260840160405180910390fd5b600080546001600160a01b0319166001600160a01b0392909216919091179055620000f8565b600060208284031215620000d957600080fd5b81516001600160a01b0381168114620000f157600080fd5b9392505050565b61210580620001086000396000f3fe608060405234801561001057600080fd5b50600436106101005760003560e01c80637d7aed9e11610097578063d27fcb5711610066578063d27fcb5714610263578063d29e075a14610286578063ef020f4a146102ad578063fa418daa146102d757600080fd5b80637d7aed9e146101dd578063a3f4490d14610205578063aed41cef14610228578063b535b5c31461023057600080fd5b80633598d50b116100d35780633598d50b1461018b578063405286f3146101a05780635720d35e146101c25780637abb1c36146101d557600080fd5b806303d098b81461010557806313007d551461011c57806317dd780b146101475780633260b1e71461016b575b600080fd5b6002545b6040519081526020015b60405180910390f35b60005461012f906001600160a01b031681565b6040516001600160a01b039091168152602001610113565b61015a610155366004611832565b6102ea565b604051610113959493929190611891565b610109610179366004611832565b60056020526000908152604090205481565b61019e6101993660046119b1565b6104d2565b005b6101b36101ae366004611832565b610859565b60405161011393929190611b22565b61019e6101d0366004611b65565b610ae1565b600354610109565b6101e5610d5b565b604080519485526020850193909352918301526060820152608001610113565b610218610213366004611bed565b610da6565b6040516101139493929190611c1f565b600154610109565b61025361023e366004611832565b60046020526000908152604090205460ff1681565b6040519015158152602001610113565b610276610271366004611832565b611148565b6040516101139493929190611c6a565b610299610294366004611832565b611216565b604051610113989796959493929190611ca4565b6102c06102bb366004611832565b611529565b604080519215158352602083019190915201610113565b61019e6102e5366004611d36565b611558565b600281815481106102fa57600080fd5b906000526020600020906005020160009150905080600001805461031d90611d7d565b80601f016020809104026020016040519081016040528092919081815260200182805461034990611d7d565b80156103965780601f1061036b57610100808354040283529160200191610396565b820191906000526020600020905b81548152906001019060200180831161037957829003601f168201915b5050505050908060010180546103ab90611d7d565b80601f01602080910402602001604051908101604052809291908181526020018280546103d790611d7d565b80156104245780601f106103f957610100808354040283529160200191610424565b820191906000526020600020905b81548152906001019060200180831161040757829003601f168201915b50505050509080600201805461043990611d7d565b80601f016020809104026020016040519081016040528092919081815260200182805461046590611d7d565b80156104b25780601f10610487576101008083540402835291602001916104b2565b820191906000526020600020905b81548152906001019060200180831161049557829003601f168201915b5050505060038301546004909301549192916001600160a01b0316905085565b6000546040805163370eb0b760e11b815290516001600160a01b039092169163ac4ab3fb9133918491636e1d616e9160048083019260209291908290030181865afa158015610525573d6000803e3d6000fd5b505050506040513d601f19601f820116820180604052508101906105499190611db7565b6040516001600160e01b031960e085901b1681526001600160a01b0390921660048301526024820152604401602060405180830381865afa158015610592573d6000803e3d6000fd5b505050506040513d601f19601f820116820180604052508101906105b69190611dd0565b6105db5760405162461bcd60e51b81526004016105d290611df4565b60405180910390fd5b600086511161062c5760405162461bcd60e51b815260206004820152601b60248201527f417070726f76616c2049442063616e6e6f7420626520656d707479000000000060448201526064016105d2565b600085511161064d5760405162461bcd60e51b81526004016105d290611e3f565b60008451116106985760405162461bcd60e51b8152602060048201526017602482015276557365722049442063616e6e6f7420626520656d70747960481b60448201526064016105d2565b60008351116106e95760405162461bcd60e51b815260206004820152601b60248201527f417070726f7665722049442063616e6e6f7420626520656d707479000000000060448201526064016105d2565b60408051610100810182528781526020810187905290810185905260608101849052821515608082015260a081018290524260c08201523360e082015260038054600181018255600091909152815160089091027fc2575a0e9e593c00f959f8c92f12db2869c3395a3b0502d05e2516446f71f85b0190819061076c9082611ec5565b50602082015160018201906107819082611ec5565b50604082015160028201906107969082611ec5565b50606082015160038201906107ab9082611ec5565b50608082015160048201805460ff191691151591909117905560a082015160058201906107d89082611ec5565b5060c0820151600682015560e090910151600790910180546001600160a01b0319166001600160a01b0390921691909117905560405133907f84c60a69ef0685783650f40fe753d726036d81fa79806b9d10daa188db5df20d90610849908990899089908990899089904290611f85565b60405180910390a2505050505050565b6001546060908190819060008186116108725785610874565b815b90508067ffffffffffffffff81111561088f5761088f6118ed565b6040519080825280602002602001820160405280156108b8578160200160208202803683370190505b5094508067ffffffffffffffff8111156108d4576108d46118ed565b6040519080825280602002602001820160405280156108fd578160200160208202803683370190505b5093508067ffffffffffffffff811115610919576109196118ed565b60405190808252806020026020018201604052801561094c57816020015b60608152602001906001900390816109375790505b50925060005b81811015610ad7576000816109678486612019565b6109719190612032565b90506001818154811061098657610986612045565b9060005260206000209060040201600001548783815181106109aa576109aa612045565b602002602001018181525050600181815481106109c9576109c9612045565b9060005260206000209060040201600201548683815181106109ed576109ed612045565b60200260200101818152505060018181548110610a0c57610a0c612045565b90600052602060002090600402016001018054610a2890611d7d565b80601f0160208091040260200160405190810160405280929190818152602001828054610a5490611d7d565b8015610aa15780601f10610a7657610100808354040283529160200191610aa1565b820191906000526020600020905b815481529060010190602001808311610a8457829003601f168201915b5050505050858381518110610ab857610ab8612045565b6020026020010181905250508080610acf9061205b565b915050610952565b5050509193909250565b6000546040805163370eb0b760e11b815290516001600160a01b039092169163ac4ab3fb9133918491636e1d616e9160048083019260209291908290030181865afa158015610b34573d6000803e3d6000fd5b505050506040513d601f19601f82011682018060405250810190610b589190611db7565b6040516001600160e01b031960e085901b1681526001600160a01b0390921660048301526024820152604401602060405180830381865afa158015610ba1573d6000803e3d6000fd5b505050506040513d601f19601f82011682018060405250810190610bc59190611dd0565b610be15760405162461bcd60e51b81526004016105d290611df4565b6000835111610c025760405162461bcd60e51b81526004016105d290611e3f565b6000825111610c4d5760405162461bcd60e51b8152602060048201526017602482015276557365722049442063616e6e6f7420626520656d70747960481b60448201526064016105d2565b6040805160a0810182528481526020810184905290810182905242606082015233608082015260028054600181018255600091909152815160059091027f405787fa12a823e0f2b7631cc41b3ba8828b3321ca811111fa75cd3aa3bb5ace01908190610cb99082611ec5565b5060208201516001820190610cce9082611ec5565b5060408201516002820190610ce39082611ec5565b5060608201516003820155608090910151600490910180546001600160a01b0319166001600160a01b0390921691909117905560405133907fad8a2cde1c7caa781aa68aea2a047f50ec88e8a6424bdc991b7572d33b6f732c90610d4e908690869086904290612074565b60405180910390a2505050565b60015460025460035460008315610da05760018054610d7b908290612019565b81548110610d8b57610d8b612045565b90600052602060002090600402016002015490505b90919293565b60608080600080805b600154811015610e36578960018281548110610dcd57610dcd612045565b90600052602060002090600402016002015410158015610e1157508860018281548110610dfc57610dfc612045565b90600052602060002090600402016002015411155b15610e245781610e208161205b565b9250505b80610e2e8161205b565b915050610daf565b508091506000878211610e4a576000610e54565b610e548883612019565b905086811115610e615750855b8067ffffffffffffffff811115610e7a57610e7a6118ed565b604051908082528060200260200182016040528015610ea3578160200160208202803683370190505b5095508067ffffffffffffffff811115610ebf57610ebf6118ed565b604051908082528060200260200182016040528015610ee8578160200160208202803683370190505b5094508067ffffffffffffffff811115610f0457610f046118ed565b604051908082528060200260200182016040528015610f3757816020015b6060815260200190600190039081610f225790505b50935060008060005b60015481108015610f5057508382105b15611138578c60018281548110610f6957610f69612045565b90600052602060002090600402016002015410158015610fad57508b60018281548110610f9857610f98612045565b90600052602060002090600402016002015411155b15611126578a83106111185760018181548110610fcc57610fcc612045565b906000526020600020906004020160000154898381518110610ff057610ff0612045565b6020026020010181815250506001818154811061100f5761100f612045565b90600052602060002090600402016002015488838151811061103357611033612045565b6020026020010181815250506001818154811061105257611052612045565b9060005260206000209060040201600101805461106e90611d7d565b80601f016020809104026020016040519081016040528092919081815260200182805461109a90611d7d565b80156110e75780601f106110bc576101008083540402835291602001916110e7565b820191906000526020600020905b8154815290600101906020018083116110ca57829003601f168201915b50505050508783815181106110fe576110fe612045565b602002602001018190525081806111149061205b565b9250505b826111228161205b565b9350505b806111308161205b565b915050610f40565b5050505050945094509450949050565b6001818154811061115857600080fd5b6000918252602090912060049091020180546001820180549193509061117d90611d7d565b80601f01602080910402602001604051908101604052809291908181526020018280546111a990611d7d565b80156111f65780601f106111cb576101008083540402835291602001916111f6565b820191906000526020600020905b8154815290600101906020018083116111d957829003601f168201915b5050505060028301546003909301549192916001600160a01b0316905084565b6003818154811061122657600080fd5b906000526020600020906008020160009150905080600001805461124990611d7d565b80601f016020809104026020016040519081016040528092919081815260200182805461127590611d7d565b80156112c25780601f10611297576101008083540402835291602001916112c2565b820191906000526020600020905b8154815290600101906020018083116112a557829003601f168201915b5050505050908060010180546112d790611d7d565b80601f016020809104026020016040519081016040528092919081815260200182805461130390611d7d565b80156113505780601f1061132557610100808354040283529160200191611350565b820191906000526020600020905b81548152906001019060200180831161133357829003601f168201915b50505050509080600201805461136590611d7d565b80601f016020809104026020016040519081016040528092919081815260200182805461139190611d7d565b80156113de5780601f106113b3576101008083540402835291602001916113de565b820191906000526020600020905b8154815290600101906020018083116113c157829003601f168201915b5050505050908060030180546113f390611d7d565b80601f016020809104026020016040519081016040528092919081815260200182805461141f90611d7d565b801561146c5780601f106114415761010080835404028352916020019161146c565b820191906000526020600020905b81548152906001019060200180831161144f57829003601f168201915b5050506004840154600585018054949560ff90921694919350915061149090611d7d565b80601f01602080910402602001604051908101604052809291908181526020018280546114bc90611d7d565b80156115095780601f106114de57610100808354040283529160200191611509565b820191906000526020600020905b8154815290600101906020018083116114ec57829003601f168201915b5050505060068301546007909301549192916001600160a01b0316905088565b60008181526004602052604081205460ff1690811561155357506000828152600560205260409020545b915091565b6000546040805163370eb0b760e11b815290516001600160a01b039092169163ac4ab3fb9133918491636e1d616e9160048083019260209291908290030181865afa1580156115ab573d6000803e3d6000fd5b505050506040513d601f19601f820116820180604052508101906115cf9190611db7565b6040516001600160e01b031960e085901b1681526001600160a01b0390921660048301526024820152604401602060405180830381865afa158015611618573d6000803e3d6000fd5b505050506040513d601f19601f8201168201806040525081019061163c9190611dd0565b6116585760405162461bcd60e51b81526004016105d290611df4565b8161169b5760405162461bcd60e51b8152602060048201526013602482015272486173682063616e6e6f74206265207a65726f60681b60448201526064016105d2565b60008151116116bc5760405162461bcd60e51b81526004016105d290611e3f565b60008281526004602052604090205460ff16156117115760405162461bcd60e51b81526020600482015260136024820152724861736820616c72656164792065786973747360681b60448201526064016105d2565b6000828152600460208181526040808420805460ff191660019081179091556005835281852042908190558251608081018452888152938401878152928401523360608401528054808201825594528151939092027fb10e2d527612073b26eecdfd717e6a320cf44b4afac2b0732d9fcbe2b7fa0cf6810193845591519092917fb10e2d527612073b26eecdfd717e6a320cf44b4afac2b0732d9fcbe2b7fa0cf701906117be9082611ec5565b506040828101516002830155606090920151600390910180546001600160a01b0319166001600160a01b0390921691909117905551339083907fc9e100e0967b21c3e981d1f6638cb278b926193bdb873f107071a7feb0076cef9061182690859042906120ad565b60405180910390a35050565b60006020828403121561184457600080fd5b5035919050565b6000815180845260005b8181101561187157602081850181015186830182015201611855565b506000602082860101526020601f19601f83011685010191505092915050565b60a0815260006118a460a083018861184b565b82810360208401526118b6818861184b565b905082810360408401526118ca818761184b565b606084019590955250506001600160a01b03919091166080909101529392505050565b634e487b7160e01b600052604160045260246000fd5b600082601f83011261191457600080fd5b813567ffffffffffffffff8082111561192f5761192f6118ed565b604051601f8301601f19908116603f01168101908282118183101715611957576119576118ed565b8160405283815286602085880101111561197057600080fd5b836020870160208301376000602085830101528094505050505092915050565b801515811461199e57600080fd5b50565b80356119ac81611990565b919050565b60008060008060008060c087890312156119ca57600080fd5b863567ffffffffffffffff808211156119e257600080fd5b6119ee8a838b01611903565b97506020890135915080821115611a0457600080fd5b611a108a838b01611903565b96506040890135915080821115611a2657600080fd5b611a328a838b01611903565b95506060890135915080821115611a4857600080fd5b611a548a838b01611903565b9450611a6260808a016119a1565b935060a0890135915080821115611a7857600080fd5b50611a8589828a01611903565b9150509295509295509295565b600081518084526020808501945080840160005b83811015611ac257815187529582019590820190600101611aa6565b509495945050505050565b600081518084526020808501808196508360051b8101915082860160005b85811015611b15578284038952611b0384835161184b565b98850198935090840190600101611aeb565b5091979650505050505050565b606081526000611b356060830186611a92565b8281036020840152611b478186611a92565b90508281036040840152611b5b8185611acd565b9695505050505050565b600080600060608486031215611b7a57600080fd5b833567ffffffffffffffff80821115611b9257600080fd5b611b9e87838801611903565b94506020860135915080821115611bb457600080fd5b611bc087838801611903565b93506040860135915080821115611bd657600080fd5b50611be386828701611903565b9150509250925092565b60008060008060808587031215611c0357600080fd5b5050823594602084013594506040840135936060013592509050565b608081526000611c326080830187611a92565b8281036020840152611c448187611a92565b90508281036040840152611c588186611acd565b91505082606083015295945050505050565b848152608060208201526000611c83608083018661184b565b6040830194909452506001600160a01b039190911660609091015292915050565b6000610100808352611cb88184018c61184b565b90508281036020840152611ccc818b61184b565b90508281036040840152611ce0818a61184b565b90508281036060840152611cf4818961184b565b9050861515608084015282810360a0840152611d10818761184b565b60c084019590955250506001600160a01b039190911660e0909101529695505050505050565b60008060408385031215611d4957600080fd5b82359150602083013567ffffffffffffffff811115611d6757600080fd5b611d7385828601611903565b9150509250929050565b600181811c90821680611d9157607f821691505b602082108103611db157634e487b7160e01b600052602260045260246000fd5b50919050565b600060208284031215611dc957600080fd5b5051919050565b600060208284031215611de257600080fd5b8151611ded81611990565b9392505050565b6020808252602b908201527f41756469744c6f673a2063616c6c657220646f6573206e6f742068617665204160408201526a554449544f525f524f4c4560a81b606082015260800190565b6020808252601a908201527f4576656e7420747970652063616e6e6f7420626520656d707479000000000000604082015260600190565b601f821115611ec057600081815260208120601f850160051c81016020861015611e9d5750805b601f850160051c820191505b81811015611ebc57828155600101611ea9565b5050505b505050565b815167ffffffffffffffff811115611edf57611edf6118ed565b611ef381611eed8454611d7d565b84611e76565b602080601f831160018114611f285760008415611f105750858301515b600019600386901b1c1916600185901b178555611ebc565b600085815260208120601f198616915b82811015611f5757888601518255948401946001909101908401611f38565b5085821015611f755787850151600019600388901b60f8161c191681555b5050505050600190811b01905550565b60e081526000611f9860e083018a61184b565b8281036020840152611faa818a61184b565b90508281036040840152611fbe818961184b565b90508281036060840152611fd2818861184b565b9050851515608084015282810360a0840152611fee818661184b565b9150508260c083015298975050505050505050565b634e487b7160e01b600052601160045260246000fd5b8181038181111561202c5761202c612003565b92915050565b8082018082111561202c5761202c612003565b634e487b7160e01b600052603260045260246000fd5b60006001820161206d5761206d612003565b5060010190565b608081526000612087608083018761184b565b8281036020840152612099818761184b565b90508281036040840152611c58818661184b565b6040815260006120c0604083018561184b565b9050826020830152939250505056fea264697066735822122033af60794eaea3846b3e1d659523237e2fd05eb0c9852deabf8394403e5fed6164736f6c63430008140033",
  "immutableReferences": {},
  "source": "// SPDX-License-Identifier: MIT\npragma solidity ^0.8.20;\n\nimport \"./AccessControl.sol\";\n\n/**\n * @title AuditLog\n * @dev Smart contract for immutable audit logging\n * Supports both hash-based logging (off-chain data) and full event logging (on-chain data)\n * Now uses AccessControl for role-based permissions\n */\ncontract AuditLog {\n    AccessControl public accessControl;\n    // Event emitted when an audit hash is logged (for off-chain data verification)\n    event AuditHashLogged(\n        bytes32 indexed hash,\n        string eventType,\n        uint256 timestamp,\n        address indexed loggedBy\n    );\n\n    // Event emitted when a critical event is logged (full data on-chain)\n    event CriticalEventLogged(\n        string eventType,\n        string userId,\n        string details,\n        uint256 timestamp,\n        address indexed loggedBy\n    );\n\n    // Event emitted when admin approval is logged\n    event AdminApprovalLogged(\n        string approvalId,\n        string eventType,\n        string userId,\n        string approverId,\n        bool approved,\n        string details,\n        uint256 timestamp,\n        address indexed loggedBy\n    );\n\n    // Struct to store audit hash entries\n    struct AuditHashEntry {\n        bytes32 hash;\n        string eventType;\n        uint256 timestamp;\n        address loggedBy;\n    }\n\n    // Struct to store critical event entries\n    struct CriticalEventEntry {\n        string eventType;\n        string userId;\n        string details;\n        uint256 timestamp;\n        address loggedBy;\n    }\n\n    // Struct to store admin approval entries\n    struct AdminApprovalEntry {\n        string approvalId;\n        string eventType;\n        string userId;\n        string approverId;\n        bool approved;\n        string details;\n        uint256 timestamp;\n        address loggedBy;\n    }\n\n    // Storage arrays\n    AuditHashEntry[] public auditHashEntries;\n    CriticalEventEntry[] public criticalEventEntries;\n    AdminApprovalEntry[] public adminApprovalEntries;\n\n    // Mapping for quick hash lookup\n    mapping(bytes32 => bool) public hashExists;\n    \n    // OPTIMIZATION: Direct hash-to-timestamp mapping for O(1) lookup\n    // Eliminates O(n) loop in verifyHash function\n    mapping(bytes32 => uint256) public hashTimestamp;\n\n    modifier onlyAuditor() {\n        require(\n            accessControl.hasRole(msg.sender, accessControl.AUDITOR_ROLE()),\n            \"AuditLog: caller does not have AUDITOR_ROLE\"\n        );\n        _;\n    }\n\n    constructor(address _accessControlAddress) {\n        require(_accessControlAddress != address(0), \"AuditLog: invalid access control address\");\n        accessControl = AccessControl(_accessControlAddress);\n    }\n\n    /**\n     * @dev Log an audit hash (for off-chain data verification)\n     * @param hash The SHA256 hash of the audit record stored off-chain\n     * @param eventType The type of event (e.g., \"profile_update\", \"email_change\")\n     */\n    function logAuditHash(bytes32 hash, string memory eventType) public onlyAuditor {\n        require(hash != bytes32(0), \"Hash cannot be zero\");\n        require(bytes(eventType).length > 0, \"Event type cannot be empty\");\n        require(!hashExists[hash], \"Hash already exists\");\n\n        hashExists[hash] = true;\n        hashTimestamp[hash] = block.timestamp;  // OPTIMIZATION: Store timestamp in mapping\n        \n        auditHashEntries.push(AuditHashEntry({\n            hash: hash,\n            eventType: eventType,\n            timestamp: block.timestamp,\n            loggedBy: msg.sender\n        }));\n\n        emit AuditHashLogged(hash, eventType, block.timestamp, msg.sender);\n    }\n\n    /**\n     * @dev Log a critical event with full details (on-chain storage)\n     * @param eventType The type of event\n     * @param userId The user ID affected\n     * @param details JSON string with full event details\n     */\n    function logCriticalEvent(\n        string memory eventType,\n        string memory userId,\n        string memory details\n    ) public onlyAuditor {\n        require(bytes(eventType).length > 0, \"Event type cannot be empty\");\n        require(bytes(userId).length > 0, \"User ID cannot be empty\");\n\n        criticalEventEntries.push(CriticalEventEntry({\n            eventType: eventType,\n            userId: userId,\n            details: details,\n            timestamp: block.timestamp,\n            loggedBy: msg.sender\n        }));\n\n        emit CriticalEventLogged(eventType, userId, details, block.timestamp, msg.sender);\n    }\n\n    /**\n     * @dev Log an admin approval event (on-chain storage)\n     * @param approvalId Unique identifier for the approval request\n     * @param eventType The type of event being approved\n     * @param userId The user ID affected\n     * @param approverId The admin ID who approved/rejected\n     * @param approved Whether the request was approved\n     * @param details Additional details about the approval\n     */\n    function logAdminApproval(\n        string memory approvalId,\n        string memory eventType,\n        string memory userId,\n        string memory approverId,\n        bool approved,\n        string memory details\n    ) public onlyAuditor {\n        require(bytes(approvalId).length > 0, \"Approval ID cannot be empty\");\n        require(bytes(eventType).length > 0, \"Event type cannot be empty\");\n        require(bytes(userId).length > 0, \"User ID cannot be empty\");\n        require(bytes(approverId).length > 0, \"Approver ID cannot be empty\");\n\n        adminApprovalEntries.push(AdminApprovalEntry({\n            approvalId: approvalId,\n            eventType: eventType,\n            userId: userId,\n            approverId: approverId,\n            approved: approved,\n            details: details,\n            timestamp: block.timestamp,\n            loggedBy: msg.sender\n        }));\n\n        emit AdminApprovalLogged(\n            approvalId,\n            eventType,\n            userId,\n            approverId,\n            approved,\n            details,\n            block.timestamp,\n            msg.sender\n        );\n    }\n\n    /**\n     * @dev Verify if a hash exists in the blockchain\n     * @param hash The hash to verify\n     * @return exists Whether the hash exists\n     * @return timestamp The timestamp when the hash was logged\n     */\n    function verifyHash(bytes32 hash) public view returns (bool exists, uint256 timestamp) {\n        exists = hashExists[hash];\n        if (exists) {\n            // OPTIMIZATION: O(1) lookup instead of O(n) loop\n            // Before: iterated through entire auditHashEntries array\n            // After: direct mapping lookup - constant time regardless of array size\n            timestamp = hashTimestamp[hash];\n        }\n    }\n\n    /**\n     * @dev Get the total number of audit hash entries\n     * @return count The total count\n     */\n    function getAuditHashCount() public view returns (uint256) {\n        return auditHashEntries.length;\n    }\n\n    /**\n     * @dev Get the total number of critical event entries\n     * @return count The total count\n     */\n    function getCriticalEventCount() public view returns (uint256) {\n        return criticalEventEntries.length;\n    }\n\n    /**\n     * @dev Get the total number of admin approval entries\n     * @return count The total count\n     */\n    function getAdminApprovalCount() public view returns (uint256) {\n        return adminApprovalEntries.length;\n    }\n\n    // =========================================================================\n    // SPRINT 2 FEATURE: Audit History Retrieval\n    // =========================================================================\n\n    /**\n     * @dev Get audit hash entries within a time range (paginated)\n     * SPRINT 2 FEATURE: Allows retrieving historical audit data\n     * @param startTime Unix timestamp for range start\n     * @param endTime Unix timestamp for range end\n     * @param offset Starting index for pagination\n     * @param limit Maximum entries to return\n     * @return hashes Array of hashes in range\n     * @return timestamps Array of corresponding timestamps\n     * @return eventTypes Array of event types\n     * @return totalInRange Total count of entries in the time range\n     */\n    function getAuditHistory(\n        uint256 startTime,\n        uint256 endTime,\n        uint256 offset,\n        uint256 limit\n    ) public view returns (\n        bytes32[] memory hashes,\n        uint256[] memory timestamps,\n        string[] memory eventTypes,\n        uint256 totalInRange\n    ) {\n        // First pass: count entries in range\n        uint256 count = 0;\n        for (uint256 i = 0; i < auditHashEntries.length; i++) {\n            if (auditHashEntries[i].timestamp >= startTime && \n                auditHashEntries[i].timestamp <= endTime) {\n                count++;\n            }\n        }\n        totalInRange = count;\n\n        // Calculate actual return size\n        uint256 returnSize = count > offset ? count - offset : 0;\n        if (returnSize > limit) {\n            returnSize = limit;\n        }\n\n        // Allocate arrays\n        hashes = new bytes32[](returnSize);\n        timestamps = new uint256[](returnSize);\n        eventTypes = new string[](returnSize);\n\n        // Second pass: populate arrays\n        uint256 found = 0;\n        uint256 added = 0;\n        for (uint256 i = 0; i < auditHashEntries.length && added < returnSize; i++) {\n            if (auditHashEntries[i].timestamp >= startTime && \n                auditHashEntries[i].timestamp <= endTime) {\n                if (found >= offset) {\n                    hashes[added] = auditHashEntries[i].hash;\n                    timestamps[added] = auditHashEntries[i].timestamp;\n                    eventTypes[added] = auditHashEntries[i].eventType;\n                    added++;\n                }\n                found++;\n            }\n        }\n    }\n\n    /**\n     * @dev Get the most recent N audit entries\n     * SPRINT 2 FEATURE: Quick access to recent audit activity\n     * @param count Number of recent entries to retrieve\n     * @return hashes Array of recent hashes\n     * @return timestamps Array of timestamps\n     * @return eventTypes Array of event types\n     */\n    function getRecentAudits(uint256 count) public view returns (\n        bytes32[] memory hashes,\n        uint256[] memory timestamps,\n        string[] memory eventTypes\n    ) {\n        uint256 total = auditHashEntries.length;\n        uint256 returnSize = count > total ? total : count;\n\n        hashes = new bytes32[](returnSize);\n        timestamps = new uint256[](returnSize);\n        eventTypes = new string[](returnSize);\n\n        for (uint256 i = 0; i < returnSize; i++) {\n            uint256 idx = total - returnSize + i;\n            hashes[i] = auditHashEntries[idx].hash;\n            timestamps[i] = auditHashEntries[idx].timestamp;\n            eventTypes[i] = auditHashEntries[idx].eventType;\n        }\n    }\n\n    /**\n     * @dev Get audit statistics\n     * SPRINT 2 FEATURE: Dashboard statistics for audit overview\n     * @return totalHashes Total number of audit hashes\n     * @return totalCriticalEvents Total critical events\n     * @return totalApprovals Total admin approvals\n     * @return latestTimestamp Timestamp of most recent entry\n     */\n    function getAuditStats() public view returns (\n        uint256 totalHashes,\n        uint256 totalCriticalEvents,\n        uint256 totalApprovals,\n        uint256 latestTimestamp\n    ) {\n        totalHashes = auditHashEntries.length;\n        totalCriticalEvents = criticalEventEntries.length;\n        totalApprovals = adminApprovalEntries.length;\n        \n        if (auditHashEntries.length > 0) {\n            latestTimestamp = auditHashEntries[auditHashEntries.length - 1].timestamp;\n        }\n    }\n}\n",
  "sourcePath": "/Users/pendiaz/Documents/my-projects/Capstone/blockchain/contracts/AuditLog.sol",
  "compiler": {
    "name": "solc",
    "version": "0.8.20+commit.a1b79de6.Emscripten.clang"
  },
  "schemaVersion": "3.3.4",
  "updatedAt": "2026-03-15T21:17:43.129Z",
  "networkType": "ethereum",
  "devdoc": {
    "details": "Smart contract for immutable audit logging Supports both hash-based logging (off-chain data) and full event logging (on-chain data) Now uses AccessControl for role-based permissions",
    "kind": "dev",
    "methods": {
      "getAdminApprovalCount()": {
        "details": "Get the total number of admin approval entries",
        "returns": {
          "_0": "count The total count"
        }
      },
      "getAuditHashCount()": {
        "details": "Get the total number of audit hash entries",
        "returns": {
          "_0": "count The total count"
        }
      },
      "getAuditHistory(uint256,uint256,uint256,uint256)": {
        "details": "Get audit hash entries within a time range (paginated) SPRINT 2 FEATURE: Allows retrieving historical audit data",
        "params": {
          "endTime": "Unix timestamp for range end",
          "limit": "Maximum entries to return",
          "offset": "Starting index for pagination",
          "startTime": "Unix timestamp for range start"
        },
        "returns": {
          "eventTypes": "Array of event types",
          "hashes": "Array of hashes in range",
          "timestamps": "Array of corresponding timestamps",
          "totalInRange": "Total count of entries in the time range"
        }
      },
      "getAuditStats()": {
        "details": "Get audit statistics SPRINT 2 FEATURE: Dashboard statistics for audit overview",
        "returns": {
          "latestTimestamp": "Timestamp of most recent entry",
          "totalApprovals": "Total admin approvals",
          "totalCriticalEvents": "Total critical events",
          "totalHashes": "Total number of audit hashes"
        }
      },
      "getCriticalEventCount()": {
        "details": "Get the total number of critical event entries",
        "returns": {
          "_0": "count The total count"
        }
      },
      "getRecentAudits(uint256)": {
        "details": "Get the most recent N audit entries SPRINT 2 FEATURE: Quick access to recent audit activity",
        "params": {
          "count": "Number of recent entries to retrieve"
        },
        "returns": {
          "eventTypes": "Array of event types",
          "hashes": "Array of recent hashes",
          "timestamps": "Array of timestamps"
        }
      },
      "logAdminApproval(string,string,string,string,bool,string)": {
        "details": "Log an admin approval event (on-chain storage)",
        "params": {
          "approvalId": "Unique identifier for the approval request",
          "approved": "Whether the request was approved",
          "approverId": "The admin ID who approved/rejected",
          "details": "Additional details about the approval",
          "eventType": "The type of event being approved",
          "userId": "The user ID affected"
        }
      },
      "logAuditHash(bytes32,string)": {
        "details": "Log an audit hash (for off-chain data verification)",
        "params": {
          "eventType": "The type of event (e.g., \"profile_update\", \"email_change\")",
          "hash": "The SHA256 hash of the audit record stored off-chain"
        }
      },
      "logCriticalEvent(string,string,string)": {
        "details": "Log a critical event with full details (on-chain storage)",
        "params": {
          "details": "JSON string with full event details",
          "eventType": "The type of event",
          "userId": "The user ID affected"
        }
      },
      "verifyHash(bytes32)": {
        "details": "Verify if a hash exists in the blockchain",
        "params": {
          "hash": "The hash to verify"
        },
        "returns": {
          "exists": "Whether the hash exists",
          "timestamp": "The timestamp when the hash was logged"
        }
      }
    },
    "title": "AuditLog",
    "version": 1
  },
  "userdoc": {
    "kind": "user",
    "methods": {},
    "version": 1
  }
}