{
  "contractName": "AuditLog",
  "abi": [
    {
      "inputs": [
        {
          "internalType": "address",
          "name": "_accessControlAddress",
          "type": "address"
        }
      ],
      "stateMutability": "nonpayable",
      "type": "constructor"
    },
    {
      "anonymous": false,
      "inputs": [
        {
          "indexed": true,
          "internalType": "bytes32",
          "name": "dataHash",
          "type": "bytes32"
        },
        {
          "indexed": false,
          "internalType": "uint8",
          "name": "eventCode",
          "type": "uint8"
        },
        {
          "indexed": false,
          "internalType": "bool",
          "name": "approved",
          "type": "bool"
        },
        {
          "indexed": false,
          "internalType": "uint256",
          "name": "timestamp",
          "type": "uint256"
        },
        {
          "indexed": true,
          "internalType": "address",
          "name": "loggedBy",
          "type": "address"
        }
      ],
      "name": "AdminApprovalCompactLogged",
      "type": "event"
    },
    {
      "anonymous": false,
      "inputs": [
        {
          "indexed": false,
          "internalType": "string",
          "name": "approvalId",
          "type": "string"
        },
        {
          "indexed": false,
          "internalType": "string",
          "name": "eventType",
          "type": "string"
        },
        {
          "indexed": false,
          "internalType": "string",
          "name": "userId",
          "type": "string"
        },
        {
          "indexed": false,
          "internalType": "string",
          "name": "approverId",
          "type": "string"
        },
        {
          "indexed": false,
          "internalType": "bool",
          "name": "approved",
          "type": "bool"
        },
        {
          "indexed": false,
          "internalType": "string",
          "name": "details",
          "type": "string"
        },
        {
          "indexed": false,
          "internalType": "uint256",
          "name": "timestamp",
          "type": "uint256"
        },
        {
          "indexed": true,
          "internalType": "address",
          "name": "loggedBy",
          "type": "address"
        }
      ],
      "name": "AdminApprovalLogged",
      "type": "event"
    },
    {
      "anonymous": false,
      "inputs": [
        {
          "indexed": true,
          "internalType": "bytes32",
          "name": "hash",
          "type": "bytes32"
        },
        {
          "indexed": false,
          "internalType": "string",
          "name": "eventType",
          "type": "string"
        },
        {
          "indexed": false,
          "internalType": "uint256",
          "name": "timestamp",
          "type": "uint256"
        },
        {
          "indexed": true,
          "internalType": "address",
          "name": "loggedBy",
          "type": "address"
        }
      ],
      "name": "AuditHashLogged",
      "type": "event"
    },
    {
      "anonymous": false,
      "inputs": [
        {
          "indexed": false,
          "internalType": "uint256",
          "name": "count",
          "type": "uint256"
        },
        {
          "indexed": false,
          "internalType": "uint256",
          "name": "timestamp",
          "type": "uint256"
        },
        {
          "indexed": true,
          "internalType": "address",
          "name": "loggedBy",
          "type": "address"
        }
      ],
      "name": "BatchAuditHashLogged",
      "type": "event"
    },
    {
      "anonymous": false,
      "inputs": [
        {
          "indexed": true,
          "internalType": "bytes32",
          "name": "dataHash",
          "type": "bytes32"
        },
        {
          "indexed": false,
          "internalType": "uint8",
          "name": "eventCode",
          "type": "uint8"
        },
        {
          "indexed": false,
          "internalType": "uint256",
          "name": "timestamp",
          "type": "uint256"
        },
        {
          "indexed": true,
          "internalType": "address",
          "name": "loggedBy",
          "type": "address"
        }
      ],
      "name": "CriticalEventCompactLogged",
      "type": "event"
    },
    {
      "anonymous": false,
      "inputs": [
        {
          "indexed": false,
          "internalType": "string",
          "name": "eventType",
          "type": "string"
        },
        {
          "indexed": false,
          "internalType": "string",
          "name": "userId",
          "type": "string"
        },
        {
          "indexed": false,
          "internalType": "string",
          "name": "details",
          "type": "string"
        },
        {
          "indexed": false,
          "internalType": "uint256",
          "name": "timestamp",
          "type": "uint256"
        },
        {
          "indexed": true,
          "internalType": "address",
          "name": "loggedBy",
          "type": "address"
        }
      ],
      "name": "CriticalEventLogged",
      "type": "event"
    },
    {
      "anonymous": false,
      "inputs": [
        {
          "indexed": true,
          "internalType": "bytes32",
          "name": "digestRoot",
          "type": "bytes32"
        },
        {
          "indexed": false,
          "internalType": "uint32",
          "name": "leafCount",
          "type": "uint32"
        },
        {
          "indexed": false,
          "internalType": "uint64",
          "name": "windowStart",
          "type": "uint64"
        },
        {
          "indexed": false,
          "internalType": "uint64",
          "name": "windowEnd",
          "type": "uint64"
        },
        {
          "indexed": false,
          "internalType": "uint8",
          "name": "digestType",
          "type": "uint8"
        },
        {
          "indexed": false,
          "internalType": "uint256",
          "name": "timestamp",
          "type": "uint256"
        },
        {
          "indexed": true,
          "internalType": "address",
          "name": "loggedBy",
          "type": "address"
        }
      ],
      "name": "DigestRootAnchored",
      "type": "event"
    },
    {
      "inputs": [],
      "name": "accessControl",
      "outputs": [
        {
          "internalType": "contract AccessControl",
          "name": "",
          "type": "address"
        }
      ],
      "stateMutability": "view",
      "type": "function",
      "constant": true
    },
    {
      "inputs": [
        {
          "internalType": "uint256",
          "name": "",
          "type": "uint256"
        }
      ],
      "name": "adminApprovalEntries",
      "outputs": [
        {
          "internalType": "string",
          "name": "approvalId",
          "type": "string"
        },
        {
          "internalType": "string",
          "name": "eventType",
          "type": "string"
        },
        {
          "internalType": "string",
          "name": "userId",
          "type": "string"
        },
        {
          "internalType": "string",
          "name": "approverId",
          "type": "string"
        },
        {
          "internalType": "bool",
          "name": "approved",
          "type": "bool"
        },
        {
          "internalType": "string",
          "name": "details",
          "type": "string"
        },
        {
          "internalType": "uint256",
          "name": "timestamp",
          "type": "uint256"
        },
        {
          "internalType": "address",
          "name": "loggedBy",
          "type": "address"
        }
      ],
      "stateMutability": "view",
      "type": "function",
      "constant": true
    },
    {
      "inputs": [
        {
          "internalType": "uint256",
          "name": "",
          "type": "uint256"
        }
      ],
      "name": "auditHashEntries",
      "outputs": [
        {
          "internalType": "bytes32",
          "name": "hash",
          "type": "bytes32"
        },
        {
          "internalType": "string",
          "name": "eventType",
          "type": "string"
        },
        {
          "internalType": "uint256",
          "name": "timestamp",
          "type": "uint256"
        },
        {
          "internalType": "address",
          "name": "loggedBy",
          "type": "address"
        }
      ],
      "stateMutability": "view",
      "type": "function",
      "constant": true
    },
    {
      "inputs": [
        {
          "internalType": "uint256",
          "name": "",
          "type": "uint256"
        }
      ],
      "name": "criticalEventEntries",
      "outputs": [
        {
          "internalType": "string",
          "name": "eventType",
          "type": "string"
        },
        {
          "internalType": "string",
          "name": "userId",
          "type": "string"
        },
        {
          "internalType": "string",
          "name": "details",
          "type": "string"
        },
        {
          "internalType": "uint256",
          "name": "timestamp",
          "type": "uint256"
        },
        {
          "internalType": "address",
          "name": "loggedBy",
          "type": "address"
        }
      ],
      "stateMutability": "view",
      "type": "function",
      "constant": true
    },
    {
      "inputs": [
        {
          "internalType": "bytes32",
          "name": "",
          "type": "bytes32"
        }
      ],
      "name": "digestRootExists",
      "outputs": [
        {
          "internalType": "bool",
          "name": "",
          "type": "bool"
        }
      ],
      "stateMutability": "view",
      "type": "function",
      "constant": true
    },
    {
      "inputs": [
        {
          "internalType": "bytes32",
          "name": "",
          "type": "bytes32"
        }
      ],
      "name": "digestRootTimestamp",
      "outputs": [
        {
          "internalType": "uint256",
          "name": "",
          "type": "uint256"
        }
      ],
      "stateMutability": "view",
      "type": "function",
      "constant": true
    },
    {
      "inputs": [
        {
          "internalType": "bytes32",
          "name": "",
          "type": "bytes32"
        }
      ],
      "name": "hashExists",
      "outputs": [
        {
          "internalType": "bool",
          "name": "",
          "type": "bool"
        }
      ],
      "stateMutability": "view",
      "type": "function",
      "constant": true
    },
    {
      "inputs": [
        {
          "internalType": "bytes32",
          "name": "",
          "type": "bytes32"
        }
      ],
      "name": "hashTimestamp",
      "outputs": [
        {
          "internalType": "uint256",
          "name": "",
          "type": "uint256"
        }
      ],
      "stateMutability": "view",
      "type": "function",
      "constant": true
    },
    {
      "inputs": [
        {
          "internalType": "bytes32",
          "name": "hash",
          "type": "bytes32"
        },
        {
          "internalType": "string",
          "name": "eventType",
          "type": "string"
        }
      ],
      "name": "logAuditHash",
      "outputs": [],
      "stateMutability": "nonpayable",
      "type": "function"
    },
    {
      "inputs": [
        {
          "internalType": "string",
          "name": "eventType",
          "type": "string"
        },
        {
          "internalType": "string",
          "name": "userId",
          "type": "string"
        },
        {
          "internalType": "string",
          "name": "details",
          "type": "string"
        }
      ],
      "name": "logCriticalEvent",
      "outputs": [],
      "stateMutability": "nonpayable",
      "type": "function"
    },
    {
      "inputs": [
        {
          "internalType": "string",
          "name": "approvalId",
          "type": "string"
        },
        {
          "internalType": "string",
          "name": "eventType",
          "type": "string"
        },
        {
          "internalType": "string",
          "name": "userId",
          "type": "string"
        },
        {
          "internalType": "string",
          "name": "approverId",
          "type": "string"
        },
        {
          "internalType": "bool",
          "name": "approved",
          "type": "bool"
        },
        {
          "internalType": "string",
          "name": "details",
          "type": "string"
        }
      ],
      "name": "logAdminApproval",
      "outputs": [],
      "stateMutability": "nonpayable",
      "type": "function"
    },
    {
      "inputs": [
        {
          "internalType": "bytes32",
          "name": "hash",
          "type": "bytes32"
        }
      ],
      "name": "verifyHash",
      "outputs": [
        {
          "internalType": "bool",
          "name": "exists",
          "type": "bool"
        },
        {
          "internalType": "uint256",
          "name": "timestamp",
          "type": "uint256"
        }
      ],
      "stateMutability": "view",
      "type": "function",
      "constant": true
    },
    {
      "inputs": [],
      "name": "getAuditHashCount",
      "outputs": [
        {
          "internalType": "uint256",
          "name": "",
          "type": "uint256"
        }
      ],
      "stateMutability": "view",
      "type": "function",
      "constant": true
    },
    {
      "inputs": [],
      "name": "getCriticalEventCount",
      "outputs": [
        {
          "internalType": "uint256",
          "name": "",
          "type": "uint256"
        }
      ],
      "stateMutability": "view",
      "type": "function",
      "constant": true
    },
    {
      "inputs": [],
      "name": "getAdminApprovalCount",
      "outputs": [
        {
          "internalType": "uint256",
          "name": "",
          "type": "uint256"
        }
      ],
      "stateMutability": "view",
      "type": "function",
      "constant": true
    },
    {
      "inputs": [
        {
          "internalType": "bytes32",
          "name": "dataHash",
          "type": "bytes32"
        },
        {
          "internalType": "uint8",
          "name": "eventCode",
          "type": "uint8"
        }
      ],
      "name": "logCriticalEventCompact",
      "outputs": [],
      "stateMutability": "nonpayable",
      "type": "function"
    },
    {
      "inputs": [
        {
          "internalType": "bytes32",
          "name": "dataHash",
          "type": "bytes32"
        },
        {
          "internalType": "uint8",
          "name": "eventCode",
          "type": "uint8"
        },
        {
          "internalType": "bool",
          "name": "approved",
          "type": "bool"
        }
      ],
      "name": "logAdminApprovalCompact",
      "outputs": [],
      "stateMutability": "nonpayable",
      "type": "function"
    },
    {
      "inputs": [
        {
          "internalType": "bytes32[]",
          "name": "hashes",
          "type": "bytes32[]"
        },
        {
          "internalType": "string",
          "name": "eventType",
          "type": "string"
        }
      ],
      "name": "batchLogAuditHash",
      "outputs": [],
      "stateMutability": "nonpayable",
      "type": "function"
    },
    {
      "inputs": [
        {
          "internalType": "bytes32",
          "name": "digestRoot",
          "type": "bytes32"
        },
        {
          "internalType": "uint32",
          "name": "leafCount",
          "type": "uint32"
        },
        {
          "internalType": "uint64",
          "name": "windowStart",
          "type": "uint64"
        },
        {
          "internalType": "uint64",
          "name": "windowEnd",
          "type": "uint64"
        },
        {
          "internalType": "uint8",
          "name": "digestType",
          "type": "uint8"
        }
      ],
      "name": "anchorDigestRoot",
      "outputs": [],
      "stateMutability": "nonpayable",
      "type": "function"
    },
    {
      "inputs": [
        {
          "internalType": "bytes32",
          "name": "digestRoot",
          "type": "bytes32"
        }
      ],
      "name": "verifyDigestRoot",
      "outputs": [
        {
          "internalType": "bool",
          "name": "exists",
          "type": "bool"
        },
        {
          "internalType": "uint256",
          "name": "timestamp",
          "type": "uint256"
        }
      ],
      "stateMutability": "view",
      "type": "function",
      "constant": true
    },
    {
      "inputs": [
        {
          "internalType": "uint256",
          "name": "startTime",
          "type": "uint256"
        },
        {
          "internalType": "uint256",
          "name": "endTime",
          "type": "uint256"
        },
        {
          "internalType": "uint256",
          "name": "offset",
          "type": "uint256"
        },
        {
          "internalType": "uint256",
          "name": "limit",
          "type": "uint256"
        }
      ],
      "name": "getAuditHistory",
      "outputs": [
        {
          "internalType": "bytes32[]",
          "name": "hashes",
          "type": "bytes32[]"
        },
        {
          "internalType": "uint256[]",
          "name": "timestamps",
          "type": "uint256[]"
        },
        {
          "internalType": "string[]",
          "name": "eventTypes",
          "type": "string[]"
        },
        {
          "internalType": "uint256",
          "name": "totalInRange",
          "type": "uint256"
        }
      ],
      "stateMutability": "view",
      "type": "function",
      "constant": true
    },
    {
      "inputs": [
        {
          "internalType": "uint256",
          "name": "count",
          "type": "uint256"
        }
      ],
      "name": "getRecentAudits",
      "outputs": [
        {
          "internalType": "bytes32[]",
          "name": "hashes",
          "type": "bytes32[]"
        },
        {
          "internalType": "uint256[]",
          "name": "timestamps",
          "type": "uint256[]"
        },
        {
          "internalType": "string[]",
          "name": "eventTypes",
          "type": "string[]"
        }
      ],
      "stateMutability": "view",
      "type": "function",
      "constant": true
    },
    {
      "inputs": [],
      "name": "getAuditStats",
      "outputs": [
        {
          "internalType": "uint256",
          "name": "totalHashes",
          "type": "uint256"
        },
        {
          "internalType": "uint256",
          "name": "totalCriticalEvents",
          "type": "uint256"
        },
        {
          "internalType": "uint256",
          "name": "totalApprovals",
          "type": "uint256"
        },
        {
          "internalType": "uint256",
          "name": "latestTimestamp",
          "type": "uint256"
        }
      ],
      "stateMutability": "view",
      "type": "function",
      "constant": true
    }
  ],
  "bytecode": "0x60806040523480156200001157600080fd5b5060405162002fd938038062002fd98339810160408190526200003491620000c6565b6001600160a01b038116620000a05760405162461bcd60e51b815260206004820152602860248201527f41756469744c6f673a20696e76616c69642061636365737320636f6e74726f6c604482015267206164647265737360c01b606482015260840160405180910390fd5b600080546001600160a01b0319166001600160a01b0392909216919091179055620000f8565b600060208284031215620000d957600080fd5b81516001600160a01b0381168114620000f157600080fd5b9392505050565b612ed180620001086000396000f3fe608060405234801561001057600080fd5b506004361061014d5760003560e01c80635b43faa6116100c3578063aed41cef1161007c578063aed41cef1461035c578063b535b5c314610364578063d27fcb5714610387578063d29e075a146103aa578063ef020f4a146103d1578063fa418daa146103e457600080fd5b80635b43faa6146102b05780637abb1c36146102e35780637d7aed9e146102eb5780639a5ed379146103135780639af2acc314610326578063a3f4490d1461033957600080fd5b806317dd780b1161011557806317dd780b146102115780633260b1e7146102355780633598d50b14610255578063405286f31461026857806343ea88431461028a5780635720d35e1461029d57600080fd5b806303d098b8146101525780630ab81966146101695780630bc0f5fc146101b15780630fe0fb35146101c657806313007d55146101e6575b600080fd5b6002545b6040519081526020015b60405180910390f35b61019a61017736600461239c565b60009081526006602090815260408083205460079092529091205460ff90911691565b604080519215158352602083019190915201610160565b6101c46101bf3660046123e2565b6103f7565b005b6101566101d436600461239c565b60076020526000908152604090205481565b6000546101f9906001600160a01b031681565b6040516001600160a01b039091168152602001610160565b61022461021f36600461239c565b6106e1565b604051610160959493929190612491565b61015661024336600461239c565b60056020526000908152604090205481565b6101c46102633660046125be565b6108c9565b61027b61027636600461239c565b610c47565b6040516101609392919061272e565b6101c4610298366004612771565b610ecc565b6101c46102ab3660046127b1565b61113e565b6102d36102be36600461239c565b60066020526000908152604090205460ff1681565b6040519015158152602001610160565b600354610156565b6102f36113b8565b604080519485526020850193909352918301526060820152608001610160565b6101c4610321366004612838565b611403565b6101c4610334366004612864565b61166a565b61034c61034736600461292b565b61198f565b604051610160949392919061295d565b600154610156565b6102d361037236600461239c565b60046020526000908152604090205460ff1681565b61039a61039536600461239c565b611d2e565b60405161016094939291906129a8565b6103bd6103b836600461239c565b611dfc565b6040516101609897969594939291906129e2565b61019a6103df36600461239c565b61210f565b6101c46103f2366004612a74565b61213e565b6000546040805163370eb0b760e11b815290516001600160a01b039092169163ac4ab3fb9133918491636e1d616e9160048083019260209291908290030181865afa15801561044a573d6000803e3d6000fd5b505050506040513d601f19601f8201168201806040525081019061046e9190612ab0565b6040516001600160e01b031960e085901b1681526001600160a01b0390921660048301526024820152604401602060405180830381865afa1580156104b7573d6000803e3d6000fd5b505050506040513d601f19601f820116820180604052508101906104db9190612ac9565b6105005760405162461bcd60e51b81526004016104f790612aed565b60405180910390fd5b8461054d5760405162461bcd60e51b815260206004820152601a60248201527f44696765737420726f6f742063616e6e6f74206265207a65726f00000000000060448201526064016104f7565b60008581526006602052604090205460ff16156105ac5760405162461bcd60e51b815260206004820152601c60248201527f44696765737420726f6f7420616c726561647920616e63686f7265640000000060448201526064016104f7565b60008463ffffffff16116105fb5760405162461bcd60e51b815260206004820152601660248201527504c65616620636f756e74206d757374206265203e20360541b60448201526064016104f7565b826001600160401b0316826001600160401b0316101561064e5760405162461bcd60e51b815260206004820152600e60248201526d496e76616c69642077696e646f7760901b60448201526064016104f7565b6000858152600660209081526040808320805460ff1916600117905560078252918290204290819055825163ffffffff881681526001600160401b03878116938201939093529185168284015260ff8416606083015260808201529051339187917f68fc2cc2aae2ecdaf6658d539a74733268a50e5c88dd2e43518213c049194aee9160a0908290030190a35050505050565b600281815481106106f157600080fd5b906000526020600020906005020160009150905080600001805461071490612b38565b80601f016020809104026020016040519081016040528092919081815260200182805461074090612b38565b801561078d5780601f106107625761010080835404028352916020019161078d565b820191906000526020600020905b81548152906001019060200180831161077057829003601f168201915b5050505050908060010180546107a290612b38565b80601f01602080910402602001604051908101604052809291908181526020018280546107ce90612b38565b801561081b5780601f106107f05761010080835404028352916020019161081b565b820191906000526020600020905b8154815290600101906020018083116107fe57829003601f168201915b50505050509080600201805461083090612b38565b80601f016020809104026020016040519081016040528092919081815260200182805461085c90612b38565b80156108a95780601f1061087e576101008083540402835291602001916108a9565b820191906000526020600020905b81548152906001019060200180831161088c57829003601f168201915b5050505060038301546004909301549192916001600160a01b0316905085565b6000546040805163370eb0b760e11b815290516001600160a01b039092169163ac4ab3fb9133918491636e1d616e9160048083019260209291908290030181865afa15801561091c573d6000803e3d6000fd5b505050506040513d601f19601f820116820180604052508101906109409190612ab0565b6040516001600160e01b031960e085901b1681526001600160a01b0390921660048301526024820152604401602060405180830381865afa158015610989573d6000803e3d6000fd5b505050506040513d601f19601f820116820180604052508101906109ad9190612ac9565b6109c95760405162461bcd60e51b81526004016104f790612aed565b6000865111610a1a5760405162461bcd60e51b815260206004820152601b60248201527f417070726f76616c2049442063616e6e6f7420626520656d707479000000000060448201526064016104f7565b6000855111610a3b5760405162461bcd60e51b81526004016104f790612b72565b6000845111610a865760405162461bcd60e51b8152602060048201526017602482015276557365722049442063616e6e6f7420626520656d70747960481b60448201526064016104f7565b6000835111610ad75760405162461bcd60e51b815260206004820152601b60248201527f417070726f7665722049442063616e6e6f7420626520656d707479000000000060448201526064016104f7565b60408051610100810182528781526020810187905290810185905260608101849052821515608082015260a081018290524260c08201523360e082015260038054600181018255600091909152815160089091027fc2575a0e9e593c00f959f8c92f12db2869c3395a3b0502d05e2516446f71f85b01908190610b5a9082612bf8565b5060208201516001820190610b6f9082612bf8565b5060408201516002820190610b849082612bf8565b5060608201516003820190610b999082612bf8565b50608082015160048201805460ff191691151591909117905560a08201516005820190610bc69082612bf8565b5060c0820151600682015560e090910151600790910180546001600160a01b0319166001600160a01b0390921691909117905560405133907f84c60a69ef0685783650f40fe753d726036d81fa79806b9d10daa188db5df20d90610c37908990899089908990899089904290612cb7565b60405180910390a2505050505050565b600154606090819081906000818611610c605785610c62565b815b9050806001600160401b03811115610c7c57610c7c6124ed565b604051908082528060200260200182016040528015610ca5578160200160208202803683370190505b509450806001600160401b03811115610cc057610cc06124ed565b604051908082528060200260200182016040528015610ce9578160200160208202803683370190505b509350806001600160401b03811115610d0457610d046124ed565b604051908082528060200260200182016040528015610d3757816020015b6060815260200190600190039081610d225790505b50925060005b81811015610ec257600081610d528486612d4b565b610d5c9190612d64565b905060018181548110610d7157610d71612d77565b906000526020600020906004020160000154878381518110610d9557610d95612d77565b60200260200101818152505060018181548110610db457610db4612d77565b906000526020600020906004020160020154868381518110610dd857610dd8612d77565b60200260200101818152505060018181548110610df757610df7612d77565b90600052602060002090600402016001018054610e1390612b38565b80601f0160208091040260200160405190810160405280929190818152602001828054610e3f90612b38565b8015610e8c5780601f10610e6157610100808354040283529160200191610e8c565b820191906000526020600020905b815481529060010190602001808311610e6f57829003601f168201915b5050505050858381518110610ea357610ea3612d77565b6020026020010181905250508080610eba90612d8d565b915050610d3d565b5050509193909250565b6000546040805163370eb0b760e11b815290516001600160a01b039092169163ac4ab3fb9133918491636e1d616e9160048083019260209291908290030181865afa158015610f1f573d6000803e3d6000fd5b505050506040513d601f19601f82011682018060405250810190610f439190612ab0565b6040516001600160e01b031960e085901b1681526001600160a01b0390921660048301526024820152604401602060405180830381865afa158015610f8c573d6000803e3d6000fd5b505050506040513d601f19601f82011682018060405250810190610fb09190612ac9565b610fcc5760405162461bcd60e51b81526004016104f790612aed565b82610fe95760405162461bcd60e51b81526004016104f790612da6565b60008381526004602052604090205460ff16156110185760405162461bcd60e51b81526004016104f790612dd3565b60008381526004602081815260408084208054600160ff1990911681179091556005835281852042908190558251608081018452898152835180850185526008815267185c1c1c9bdd985b60c21b81870152948101948552928301523360608301528054808201825594528051600080516020612e5c8339815191529490930293840192835590519092600080516020612e7c83398151915201906110bd9082612bf8565b506040828101516002830155606092830151600390920180546001600160a01b0319166001600160a01b0390931692909217909155805160ff8516815283151560208201524291810191909152339185917f208cbeb0baf4124a3786d602986c4d07496f62cac4fcf55faa3803674c28d5b8910160405180910390a3505050565b6000546040805163370eb0b760e11b815290516001600160a01b039092169163ac4ab3fb9133918491636e1d616e9160048083019260209291908290030181865afa158015611191573d6000803e3d6000fd5b505050506040513d601f19601f820116820180604052508101906111b59190612ab0565b6040516001600160e01b031960e085901b1681526001600160a01b0390921660048301526024820152604401602060405180830381865afa1580156111fe573d6000803e3d6000fd5b505050506040513d601f19601f820116820180604052508101906112229190612ac9565b61123e5760405162461bcd60e51b81526004016104f790612aed565b600083511161125f5760405162461bcd60e51b81526004016104f790612b72565b60008251116112aa5760405162461bcd60e51b8152602060048201526017602482015276557365722049442063616e6e6f7420626520656d70747960481b60448201526064016104f7565b6040805160a0810182528481526020810184905290810182905242606082015233608082015260028054600181018255600091909152815160059091027f405787fa12a823e0f2b7631cc41b3ba8828b3321ca811111fa75cd3aa3bb5ace019081906113169082612bf8565b506020820151600182019061132b9082612bf8565b50604082015160028201906113409082612bf8565b5060608201516003820155608090910151600490910180546001600160a01b0319166001600160a01b0390921691909117905560405133907fad8a2cde1c7caa781aa68aea2a047f50ec88e8a6424bdc991b7572d33b6f732c906113ab908690869086904290612e00565b60405180910390a2505050565b600154600254600354600083156113fd57600180546113d8908290612d4b565b815481106113e8576113e8612d77565b90600052602060002090600402016002015490505b90919293565b6000546040805163370eb0b760e11b815290516001600160a01b039092169163ac4ab3fb9133918491636e1d616e9160048083019260209291908290030181865afa158015611456573d6000803e3d6000fd5b505050506040513d601f19601f8201168201806040525081019061147a9190612ab0565b6040516001600160e01b031960e085901b1681526001600160a01b0390921660048301526024820152604401602060405180830381865afa1580156114c3573d6000803e3d6000fd5b505050506040513d601f19601f820116820180604052508101906114e79190612ac9565b6115035760405162461bcd60e51b81526004016104f790612aed565b816115205760405162461bcd60e51b81526004016104f790612da6565b60008281526004602052604090205460ff161561154f5760405162461bcd60e51b81526004016104f790612dd3565b60008281526004602081815260408084208054600160ff199091168117909155600583528185204290819055825160808101845288815283518085018552600881526718dc9a5d1a58d85b60c21b81870152948101948552928301523360608301528054808201825594528051600080516020612e5c8339815191529490930293840192835590519092600080516020612e7c83398151915201906115f49082612bf8565b506040828101516002830155606090920151600390910180546001600160a01b0319166001600160a01b03909216919091179055805160ff83168152426020820152339184917f104508f258739ab7c0ab5c628a8eefc69138907b304ba966edb49f520cfb999491015b60405180910390a35050565b6000546040805163370eb0b760e11b815290516001600160a01b039092169163ac4ab3fb9133918491636e1d616e9160048083019260209291908290030181865afa1580156116bd573d6000803e3d6000fd5b505050506040513d601f19601f820116820180604052508101906116e19190612ab0565b6040516001600160e01b031960e085901b1681526001600160a01b0390921660048301526024820152604401602060405180830381865afa15801561172a573d6000803e3d6000fd5b505050506040513d601f19601f8201168201806040525081019061174e9190612ac9565b61176a5760405162461bcd60e51b81526004016104f790612aed565b60008251116117a95760405162461bcd60e51b815260206004820152600b60248201526a08adae0e8f240c4c2e8c6d60ab1b60448201526064016104f7565b6032825111156117ed5760405162461bcd60e51b815260206004820152600f60248201526e426174636820746f6f206c6172676560881b60448201526064016104f7565b60005b825181101561194e57600083828151811061180d5761180d612d77565b602002602001015190506000801b811480611836575060008181526004602052604090205460ff165b15611841575061193c565b6000818152600460208181526040808420805460ff19166001908117909155600583528185204290819055825160808101845287815293840189815292840152336060840152805480820182559452815193909202600080516020612e5c83398151915281019384559151909291600080516020612e7c83398151915201906118ca9082612bf8565b506040828101516002830155606090920151600390910180546001600160a01b0319166001600160a01b0390921691909117905551339082907fc9e100e0967b21c3e981d1f6638cb278b926193bdb873f107071a7feb0076cef906119329087904290612e39565b60405180910390a3505b8061194681612d8d565b9150506117f0565b5081516040805191825242602083015233917f6517f7ee40b4a18281b91a107cb3e7cff69996318c95048353897f34bceb3afa910160405180910390a25050565b60608080600080805b600154811015611a1f5789600182815481106119b6576119b6612d77565b906000526020600020906004020160020154101580156119fa575088600182815481106119e5576119e5612d77565b90600052602060002090600402016002015411155b15611a0d5781611a0981612d8d565b9250505b80611a1781612d8d565b915050611998565b508091506000878211611a33576000611a3d565b611a3d8883612d4b565b905086811115611a4a5750855b806001600160401b03811115611a6257611a626124ed565b604051908082528060200260200182016040528015611a8b578160200160208202803683370190505b509550806001600160401b03811115611aa657611aa66124ed565b604051908082528060200260200182016040528015611acf578160200160208202803683370190505b509450806001600160401b03811115611aea57611aea6124ed565b604051908082528060200260200182016040528015611b1d57816020015b6060815260200190600190039081611b085790505b50935060008060005b60015481108015611b3657508382105b15611d1e578c60018281548110611b4f57611b4f612d77565b90600052602060002090600402016002015410158015611b9357508b60018281548110611b7e57611b7e612d77565b90600052602060002090600402016002015411155b15611d0c578a8310611cfe5760018181548110611bb257611bb2612d77565b906000526020600020906004020160000154898381518110611bd657611bd6612d77565b60200260200101818152505060018181548110611bf557611bf5612d77565b906000526020600020906004020160020154888381518110611c1957611c19612d77565b60200260200101818152505060018181548110611c3857611c38612d77565b90600052602060002090600402016001018054611c5490612b38565b80601f0160208091040260200160405190810160405280929190818152602001828054611c8090612b38565b8015611ccd5780601f10611ca257610100808354040283529160200191611ccd565b820191906000526020600020905b815481529060010190602001808311611cb057829003601f168201915b5050505050878381518110611ce457611ce4612d77565b60200260200101819052508180611cfa90612d8d565b9250505b82611d0881612d8d565b9350505b80611d1681612d8d565b915050611b26565b5050505050945094509450949050565b60018181548110611d3e57600080fd5b60009182526020909120600490910201805460018201805491935090611d6390612b38565b80601f0160208091040260200160405190810160405280929190818152602001828054611d8f90612b38565b8015611ddc5780601f10611db157610100808354040283529160200191611ddc565b820191906000526020600020905b815481529060010190602001808311611dbf57829003601f168201915b5050505060028301546003909301549192916001600160a01b0316905084565b60038181548110611e0c57600080fd5b9060005260206000209060080201600091509050806000018054611e2f90612b38565b80601f0160208091040260200160405190810160405280929190818152602001828054611e5b90612b38565b8015611ea85780601f10611e7d57610100808354040283529160200191611ea8565b820191906000526020600020905b815481529060010190602001808311611e8b57829003601f168201915b505050505090806001018054611ebd90612b38565b80601f0160208091040260200160405190810160405280929190818152602001828054611ee990612b38565b8015611f365780601f10611f0b57610100808354040283529160200191611f36565b820191906000526020600020905b815481529060010190602001808311611f1957829003601f168201915b505050505090806002018054611f4b90612b38565b80601f0160208091040260200160405190810160405280929190818152602001828054611f7790612b38565b8015611fc45780601f10611f9957610100808354040283529160200191611fc4565b820191906000526020600020905b815481529060010190602001808311611fa757829003601f168201915b505050505090806003018054611fd990612b38565b80601f016020809104026020016040519081016040528092919081815260200182805461200590612b38565b80156120525780601f1061202757610100808354040283529160200191612052565b820191906000526020600020905b81548152906001019060200180831161203557829003601f168201915b5050506004840154600585018054949560ff90921694919350915061207690612b38565b80601f01602080910402602001604051908101604052809291908181526020018280546120a290612b38565b80156120ef5780601f106120c4576101008083540402835291602001916120ef565b820191906000526020600020905b8154815290600101906020018083116120d257829003601f168201915b5050505060068301546007909301549192916001600160a01b0316905088565b60008181526004602052604081205460ff1690811561213957506000828152600560205260409020545b915091565b6000546040805163370eb0b760e11b815290516001600160a01b039092169163ac4ab3fb9133918491636e1d616e9160048083019260209291908290030181865afa158015612191573d6000803e3d6000fd5b505050506040513d601f19601f820116820180604052508101906121b59190612ab0565b6040516001600160e01b031960e085901b1681526001600160a01b0390921660048301526024820152604401602060405180830381865afa1580156121fe573d6000803e3d6000fd5b505050506040513d601f19601f820116820180604052508101906122229190612ac9565b61223e5760405162461bcd60e51b81526004016104f790612aed565b8161225b5760405162461bcd60e51b81526004016104f790612da6565b600081511161227c5760405162461bcd60e51b81526004016104f790612b72565b60008281526004602052604090205460ff16156122ab5760405162461bcd60e51b81526004016104f790612dd3565b6000828152600460208181526040808420805460ff19166001908117909155600583528185204290819055825160808101845288815293840187815292840152336060840152805480820182559452815193909202600080516020612e5c83398151915281019384559151909291600080516020612e7c83398151915201906123349082612bf8565b506040828101516002830155606090920151600390910180546001600160a01b0319166001600160a01b0390921691909117905551339083907fc9e100e0967b21c3e981d1f6638cb278b926193bdb873f107071a7feb0076cef9061165e9085904290612e39565b6000602082840312156123ae57600080fd5b5035919050565b80356001600160401b03811681146123cc57600080fd5b919050565b803560ff811681146123cc57600080fd5b600080600080600060a086880312156123fa57600080fd5b85359450602086013563ffffffff8116811461241557600080fd5b9350612423604087016123b5565b9250612431606087016123b5565b915061243f608087016123d1565b90509295509295909350565b6000815180845260005b8181101561247157602081850181015186830182015201612455565b506000602082860101526020601f19601f83011685010191505092915050565b60a0815260006124a460a083018861244b565b82810360208401526124b6818861244b565b905082810360408401526124ca818761244b565b606084019590955250506001600160a01b03919091166080909101529392505050565b634e487b7160e01b600052604160045260246000fd5b604051601f8201601f191681016001600160401b038111828210171561252b5761252b6124ed565b604052919050565b600082601f83011261254457600080fd5b81356001600160401b0381111561255d5761255d6124ed565b612570601f8201601f1916602001612503565b81815284602083860101111561258557600080fd5b816020850160208301376000918101602001919091529392505050565b80151581146125b057600080fd5b50565b80356123cc816125a2565b60008060008060008060c087890312156125d757600080fd5b86356001600160401b03808211156125ee57600080fd5b6125fa8a838b01612533565b9750602089013591508082111561261057600080fd5b61261c8a838b01612533565b9650604089013591508082111561263257600080fd5b61263e8a838b01612533565b9550606089013591508082111561265457600080fd5b6126608a838b01612533565b945061266e60808a016125b3565b935060a089013591508082111561268457600080fd5b5061269189828a01612533565b9150509295509295509295565b600081518084526020808501945080840160005b838110156126ce578151875295820195908201906001016126b2565b509495945050505050565b600081518084526020808501808196508360051b8101915082860160005b8581101561272157828403895261270f84835161244b565b988501989350908401906001016126f7565b5091979650505050505050565b606081526000612741606083018661269e565b8281036020840152612753818661269e565b9050828103604084015261276781856126d9565b9695505050505050565b60008060006060848603121561278657600080fd5b83359250612796602085016123d1565b915060408401356127a6816125a2565b809150509250925092565b6000806000606084860312156127c657600080fd5b83356001600160401b03808211156127dd57600080fd5b6127e987838801612533565b945060208601359150808211156127ff57600080fd5b61280b87838801612533565b9350604086013591508082111561282157600080fd5b5061282e86828701612533565b9150509250925092565b6000806040838503121561284b57600080fd5b8235915061285b602084016123d1565b90509250929050565b6000806040838503121561287757600080fd5b82356001600160401b038082111561288e57600080fd5b818501915085601f8301126128a257600080fd5b81356020828211156128b6576128b66124ed565b8160051b6128c5828201612503565b928352848101820192828101908a8511156128df57600080fd5b958301955b848710156128fd578635825295830195908301906128e4565b975050508601359250508082111561291457600080fd5b5061292185828601612533565b9150509250929050565b6000806000806080858703121561294157600080fd5b5050823594602084013594506040840135936060013592509050565b608081526000612970608083018761269e565b8281036020840152612982818761269e565b9050828103604084015261299681866126d9565b91505082606083015295945050505050565b8481526080602082015260006129c1608083018661244b565b6040830194909452506001600160a01b039190911660609091015292915050565b60006101008083526129f68184018c61244b565b90508281036020840152612a0a818b61244b565b90508281036040840152612a1e818a61244b565b90508281036060840152612a32818961244b565b9050861515608084015282810360a0840152612a4e818761244b565b60c084019590955250506001600160a01b039190911660e0909101529695505050505050565b60008060408385031215612a8757600080fd5b8235915060208301356001600160401b03811115612aa457600080fd5b61292185828601612533565b600060208284031215612ac257600080fd5b5051919050565b600060208284031215612adb57600080fd5b8151612ae6816125a2565b9392505050565b6020808252602b908201527f41756469744c6f673a2063616c6c657220646f6573206e6f742068617665204160408201526a554449544f525f524f4c4560a81b606082015260800190565b600181811c90821680612b4c57607f821691505b602082108103612b6c57634e487b7160e01b600052602260045260246000fd5b50919050565b6020808252601a908201527f4576656e7420747970652063616e6e6f7420626520656d707479000000000000604082015260600190565b601f821115612bf357600081815260208120601f850160051c81016020861015612bd05750805b601f850160051c820191505b81811015612bef57828155600101612bdc565b5050505b505050565b81516001600160401b03811115612c1157612c116124ed565b612c2581612c1f8454612b38565b84612ba9565b602080601f831160018114612c5a5760008415612c425750858301515b600019600386901b1c1916600185901b178555612bef565b600085815260208120601f198616915b82811015612c8957888601518255948401946001909101908401612c6a565b5085821015612ca75787850151600019600388901b60f8161c191681555b5050505050600190811b01905550565b60e081526000612cca60e083018a61244b565b8281036020840152612cdc818a61244b565b90508281036040840152612cf0818961244b565b90508281036060840152612d04818861244b565b9050851515608084015282810360a0840152612d20818661244b565b9150508260c083015298975050505050505050565b634e487b7160e01b600052601160045260246000fd5b81810381811115612d5e57612d5e612d35565b92915050565b80820180821115612d5e57612d5e612d35565b634e487b7160e01b600052603260045260246000fd5b600060018201612d9f57612d9f612d35565b5060010190565b602080825260139082015272486173682063616e6e6f74206265207a65726f60681b604082015260600190565b6020808252601390820152724861736820616c72656164792065786973747360681b604082015260600190565b608081526000612e13608083018761244b565b8281036020840152612e25818761244b565b90508281036040840152612996818661244b565b604081526000612e4c604083018561244b565b9050826020830152939250505056feb10e2d527612073b26eecdfd717e6a320cf44b4afac2b0732d9fcbe2b7fa0cf6b10e2d527612073b26eecdfd717e6a320cf44b4afac2b0732d9fcbe2b7fa0cf7a264697066735822122050fdea1d1f7e07b38c4467dcefcf1f76ee65ecf3bf1d1b0a1cd9eb5e39edbe0f64736f6c63430008140033",
  "immutableReferences": {},
  "source": "// SPDX-License-Identifier: MIT\npragma solidity ^0.8.20;\n\nimport \"./AccessControl.sol\";\n\n/**\n * @title AuditLog\n * @dev Smart contract for immutable audit logging\n * Supports both hash-based logging (off-chain data) and full event logging (on-chain data)\n * Now uses AccessControl for role-based permissions\n */\ncontract AuditLog {\n    AccessControl public accessControl;\n    // Event emitted when an audit hash is logged (for off-chain data verification)\n    event AuditHashLogged(\n        bytes32 indexed hash,\n        string eventType,\n        uint256 timestamp,\n        address indexed loggedBy\n    );\n\n    // Event emitted when a critical event is logged (full data on-chain)\n    event CriticalEventLogged(\n        string eventType,\n        string userId,\n        string details,\n        uint256 timestamp,\n        address indexed loggedBy\n    );\n\n    // Event emitted when admin approval is logged\n    event AdminApprovalLogged(\n        string approvalId,\n        string eventType,\n        string userId,\n        string approverId,\n        bool approved,\n        string details,\n        uint256 timestamp,\n        address indexed loggedBy\n    );\n\n    // Struct to store audit hash entries\n    struct AuditHashEntry {\n        bytes32 hash;\n        string eventType;\n        uint256 timestamp;\n        address loggedBy;\n    }\n\n    // Struct to store critical event entries\n    struct CriticalEventEntry {\n        string eventType;\n        string userId;\n        string details;\n        uint256 timestamp;\n        address loggedBy;\n    }\n\n    // Struct to store admin approval entries\n    struct AdminApprovalEntry {\n        string approvalId;\n        string eventType;\n        string userId;\n        string approverId;\n        bool approved;\n        string details;\n        uint256 timestamp;\n        address loggedBy;\n    }\n\n    // Storage arrays\n    AuditHashEntry[] public auditHashEntries;\n    CriticalEventEntry[] public criticalEventEntries;\n    AdminApprovalEntry[] public adminApprovalEntries;\n\n    // Mapping for quick hash lookup\n    mapping(bytes32 => bool) public hashExists;\n    \n    // OPTIMIZATION: Direct hash-to-timestamp mapping for O(1) lookup\n    // Eliminates O(n) loop in verifyHash function\n    mapping(bytes32 => uint256) public hashTimestamp;\n\n    modifier onlyAuditor() {\n        require(\n            accessControl.hasRole(msg.sender, accessControl.AUDITOR_ROLE()),\n            \"AuditLog: caller does not have AUDITOR_ROLE\"\n        );\n        _;\n    }\n\n    constructor(address _accessControlAddress) {\n        require(_accessControlAddress != address(0), \"AuditLog: invalid access control address\");\n        accessControl = AccessControl(_accessControlAddress);\n    }\n\n    /**\n     * @dev Log an audit hash (for off-chain data verification)\n     * @param hash The SHA256 hash of the audit record stored off-chain\n     * @param eventType The type of event (e.g., \"profile_update\", \"email_change\")\n     */\n    function logAuditHash(bytes32 hash, string memory eventType) public onlyAuditor {\n        require(hash != bytes32(0), \"Hash cannot be zero\");\n        require(bytes(eventType).length > 0, \"Event type cannot be empty\");\n        require(!hashExists[hash], \"Hash already exists\");\n\n        hashExists[hash] = true;\n        hashTimestamp[hash] = block.timestamp;  // OPTIMIZATION: Store timestamp in mapping\n        \n        auditHashEntries.push(AuditHashEntry({\n            hash: hash,\n            eventType: eventType,\n            timestamp: block.timestamp,\n            loggedBy: msg.sender\n        }));\n\n        emit AuditHashLogged(hash, eventType, block.timestamp, msg.sender);\n    }\n\n    /**\n     * @dev Log a critical event with full details (on-chain storage)\n     * @param eventType The type of event\n     * @param userId The user ID affected\n     * @param details JSON string with full event details\n     */\n    function logCriticalEvent(\n        string memory eventType,\n        string memory userId,\n        string memory details\n    ) public onlyAuditor {\n        require(bytes(eventType).length > 0, \"Event type cannot be empty\");\n        require(bytes(userId).length > 0, \"User ID cannot be empty\");\n\n        criticalEventEntries.push(CriticalEventEntry({\n            eventType: eventType,\n            userId: userId,\n            details: details,\n            timestamp: block.timestamp,\n            loggedBy: msg.sender\n        }));\n\n        emit CriticalEventLogged(eventType, userId, details, block.timestamp, msg.sender);\n    }\n\n    /**\n     * @dev Log an admin approval event (on-chain storage)\n     * @param approvalId Unique identifier for the approval request\n     * @param eventType The type of event being approved\n     * @param userId The user ID affected\n     * @param approverId The admin ID who approved/rejected\n     * @param approved Whether the request was approved\n     * @param details Additional details about the approval\n     */\n    function logAdminApproval(\n        string memory approvalId,\n        string memory eventType,\n        string memory userId,\n        string memory approverId,\n        bool approved,\n        string memory details\n    ) public onlyAuditor {\n        require(bytes(approvalId).length > 0, \"Approval ID cannot be empty\");\n        require(bytes(eventType).length > 0, \"Event type cannot be empty\");\n        require(bytes(userId).length > 0, \"User ID cannot be empty\");\n        require(bytes(approverId).length > 0, \"Approver ID cannot be empty\");\n\n        adminApprovalEntries.push(AdminApprovalEntry({\n            approvalId: approvalId,\n            eventType: eventType,\n            userId: userId,\n            approverId: approverId,\n            approved: approved,\n            details: details,\n            timestamp: block.timestamp,\n            loggedBy: msg.sender\n        }));\n\n        emit AdminApprovalLogged(\n            approvalId,\n            eventType,\n            userId,\n            approverId,\n            approved,\n            details,\n            block.timestamp,\n            msg.sender\n        );\n    }\n\n    /**\n     * @dev Verify if a hash exists in the blockchain\n     * @param hash The hash to verify\n     * @return exists Whether the hash exists\n     * @return timestamp The timestamp when the hash was logged\n     */\n    function verifyHash(bytes32 hash) public view returns (bool exists, uint256 timestamp) {\n        exists = hashExists[hash];\n        if (exists) {\n            // OPTIMIZATION: O(1) lookup instead of O(n) loop\n            // Before: iterated through entire auditHashEntries array\n            // After: direct mapping lookup - constant time regardless of array size\n            timestamp = hashTimestamp[hash];\n        }\n    }\n\n    /**\n     * @dev Get the total number of audit hash entries\n     * @return count The total count\n     */\n    function getAuditHashCount() public view returns (uint256) {\n        return auditHashEntries.length;\n    }\n\n    /**\n     * @dev Get the total number of critical event entries\n     * @return count The total count\n     */\n    function getCriticalEventCount() public view returns (uint256) {\n        return criticalEventEntries.length;\n    }\n\n    /**\n     * @dev Get the total number of admin approval entries\n     * @return count The total count\n     */\n    function getAdminApprovalCount() public view returns (uint256) {\n        return adminApprovalEntries.length;\n    }\n\n    // =========================================================================\n    // V2 GAS-OPTIMIZED METHODS\n    // =========================================================================\n\n    // V2 compact event for critical events (hash-only, no strings on-chain)\n    event CriticalEventCompactLogged(\n        bytes32 indexed dataHash,\n        uint8 eventCode,\n        uint256 timestamp,\n        address indexed loggedBy\n    );\n\n    // V2 compact event for admin approvals (hash-only, no strings on-chain)\n    event AdminApprovalCompactLogged(\n        bytes32 indexed dataHash,\n        uint8 eventCode,\n        bool approved,\n        uint256 timestamp,\n        address indexed loggedBy\n    );\n\n    // V2 batch event\n    event BatchAuditHashLogged(\n        uint256 count,\n        uint256 timestamp,\n        address indexed loggedBy\n    );\n\n    /**\n     * @dev V2: Log a critical event using only a hash (details stored off-chain in DB/IPFS)\n     * @param dataHash SHA256 hash of the full event payload (eventType + userId + details)\n     * @param eventCode Compact numeric code for event type (replaces string)\n     */\n    function logCriticalEventCompact(\n        bytes32 dataHash,\n        uint8 eventCode\n    ) public onlyAuditor {\n        require(dataHash != bytes32(0), \"Hash cannot be zero\");\n        require(!hashExists[dataHash], \"Hash already exists\");\n\n        hashExists[dataHash] = true;\n        hashTimestamp[dataHash] = block.timestamp;\n\n        auditHashEntries.push(AuditHashEntry({\n            hash: dataHash,\n            eventType: \"critical\",\n            timestamp: block.timestamp,\n            loggedBy: msg.sender\n        }));\n\n        emit CriticalEventCompactLogged(dataHash, eventCode, block.timestamp, msg.sender);\n    }\n\n    /**\n     * @dev V2: Log an admin approval using only a hash (details stored off-chain)\n     * @param dataHash SHA256 hash of full approval payload\n     * @param eventCode Compact numeric code for event type\n     * @param approved Whether the request was approved\n     */\n    function logAdminApprovalCompact(\n        bytes32 dataHash,\n        uint8 eventCode,\n        bool approved\n    ) public onlyAuditor {\n        require(dataHash != bytes32(0), \"Hash cannot be zero\");\n        require(!hashExists[dataHash], \"Hash already exists\");\n\n        hashExists[dataHash] = true;\n        hashTimestamp[dataHash] = block.timestamp;\n\n        auditHashEntries.push(AuditHashEntry({\n            hash: dataHash,\n            eventType: \"approval\",\n            timestamp: block.timestamp,\n            loggedBy: msg.sender\n        }));\n\n        emit AdminApprovalCompactLogged(dataHash, eventCode, approved, block.timestamp, msg.sender);\n    }\n\n    /**\n     * @dev V2: Batch log multiple audit hashes in a single transaction\n     * @param hashes Array of hashes to log\n     * @param eventType Shared event type for the batch (use short codes)\n     */\n    function batchLogAuditHash(\n        bytes32[] memory hashes,\n        string memory eventType\n    ) public onlyAuditor {\n        require(hashes.length > 0, \"Empty batch\");\n        require(hashes.length <= 50, \"Batch too large\");\n\n        for (uint256 i = 0; i < hashes.length; i++) {\n            bytes32 h = hashes[i];\n            if (h == bytes32(0) || hashExists[h]) continue;\n\n            hashExists[h] = true;\n            hashTimestamp[h] = block.timestamp;\n\n            auditHashEntries.push(AuditHashEntry({\n                hash: h,\n                eventType: eventType,\n                timestamp: block.timestamp,\n                loggedBy: msg.sender\n            }));\n\n            emit AuditHashLogged(h, eventType, block.timestamp, msg.sender);\n        }\n\n        emit BatchAuditHashLogged(hashes.length, block.timestamp, msg.sender);\n    }\n\n    // =========================================================================\n    // V3 MAINNET-$1K MODE: Epoch Digest Root Anchoring\n    // =========================================================================\n\n    // V3 event for digest root anchoring (minimal gas)\n    event DigestRootAnchored(\n        bytes32 indexed digestRoot,\n        uint32 leafCount,\n        uint64 windowStart,\n        uint64 windowEnd,\n        uint8 digestType,\n        uint256 timestamp,\n        address indexed loggedBy\n    );\n\n    // Mapping to track anchored digest roots\n    mapping(bytes32 => bool) public digestRootExists;\n    mapping(bytes32 => uint256) public digestRootTimestamp;\n\n    /**\n     * @dev V3: Anchor a digest root representing multiple audit events\n     * This is the most gas-efficient method for mainnet-$1k mode.\n     * @param digestRoot The root hash of the epoch digest (hash chain or merkle root)\n     * @param leafCount Number of audit events included in this digest\n     * @param windowStart Unix timestamp of epoch window start\n     * @param windowEnd Unix timestamp of epoch window end\n     * @param digestType 0 = hash_chain, 1 = merkle\n     */\n    function anchorDigestRoot(\n        bytes32 digestRoot,\n        uint32 leafCount,\n        uint64 windowStart,\n        uint64 windowEnd,\n        uint8 digestType\n    ) public onlyAuditor {\n        require(digestRoot != bytes32(0), \"Digest root cannot be zero\");\n        require(!digestRootExists[digestRoot], \"Digest root already anchored\");\n        require(leafCount > 0, \"Leaf count must be > 0\");\n        require(windowEnd >= windowStart, \"Invalid window\");\n\n        digestRootExists[digestRoot] = true;\n        digestRootTimestamp[digestRoot] = block.timestamp;\n\n        emit DigestRootAnchored(\n            digestRoot,\n            leafCount,\n            windowStart,\n            windowEnd,\n            digestType,\n            block.timestamp,\n            msg.sender\n        );\n    }\n\n    /**\n     * @dev Verify if a digest root has been anchored\n     * @param digestRoot The digest root to verify\n     * @return exists Whether the digest root exists on-chain\n     * @return timestamp When it was anchored (0 if not exists)\n     */\n    function verifyDigestRoot(bytes32 digestRoot) public view returns (bool exists, uint256 timestamp) {\n        exists = digestRootExists[digestRoot];\n        timestamp = digestRootTimestamp[digestRoot];\n    }\n\n    // =========================================================================\n    // SPRINT 2 FEATURE: Audit History Retrieval\n    // =========================================================================\n\n    /**\n     * @dev Get audit hash entries within a time range (paginated)\n     * SPRINT 2 FEATURE: Allows retrieving historical audit data\n     * @param startTime Unix timestamp for range start\n     * @param endTime Unix timestamp for range end\n     * @param offset Starting index for pagination\n     * @param limit Maximum entries to return\n     * @return hashes Array of hashes in range\n     * @return timestamps Array of corresponding timestamps\n     * @return eventTypes Array of event types\n     * @return totalInRange Total count of entries in the time range\n     */\n    function getAuditHistory(\n        uint256 startTime,\n        uint256 endTime,\n        uint256 offset,\n        uint256 limit\n    ) public view returns (\n        bytes32[] memory hashes,\n        uint256[] memory timestamps,\n        string[] memory eventTypes,\n        uint256 totalInRange\n    ) {\n        // First pass: count entries in range\n        uint256 count = 0;\n        for (uint256 i = 0; i < auditHashEntries.length; i++) {\n            if (auditHashEntries[i].timestamp >= startTime && \n                auditHashEntries[i].timestamp <= endTime) {\n                count++;\n            }\n        }\n        totalInRange = count;\n\n        // Calculate actual return size\n        uint256 returnSize = count > offset ? count - offset : 0;\n        if (returnSize > limit) {\n            returnSize = limit;\n        }\n\n        // Allocate arrays\n        hashes = new bytes32[](returnSize);\n        timestamps = new uint256[](returnSize);\n        eventTypes = new string[](returnSize);\n\n        // Second pass: populate arrays\n        uint256 found = 0;\n        uint256 added = 0;\n        for (uint256 i = 0; i < auditHashEntries.length && added < returnSize; i++) {\n            if (auditHashEntries[i].timestamp >= startTime && \n                auditHashEntries[i].timestamp <= endTime) {\n                if (found >= offset) {\n                    hashes[added] = auditHashEntries[i].hash;\n                    timestamps[added] = auditHashEntries[i].timestamp;\n                    eventTypes[added] = auditHashEntries[i].eventType;\n                    added++;\n                }\n                found++;\n            }\n        }\n    }\n\n    /**\n     * @dev Get the most recent N audit entries\n     * SPRINT 2 FEATURE: Quick access to recent audit activity\n     * @param count Number of recent entries to retrieve\n     * @return hashes Array of recent hashes\n     * @return timestamps Array of timestamps\n     * @return eventTypes Array of event types\n     */\n    function getRecentAudits(uint256 count) public view returns (\n        bytes32[] memory hashes,\n        uint256[] memory timestamps,\n        string[] memory eventTypes\n    ) {\n        uint256 total = auditHashEntries.length;\n        uint256 returnSize = count > total ? total : count;\n\n        hashes = new bytes32[](returnSize);\n        timestamps = new uint256[](returnSize);\n        eventTypes = new string[](returnSize);\n\n        for (uint256 i = 0; i < returnSize; i++) {\n            uint256 idx = total - returnSize + i;\n            hashes[i] = auditHashEntries[idx].hash;\n            timestamps[i] = auditHashEntries[idx].timestamp;\n            eventTypes[i] = auditHashEntries[idx].eventType;\n        }\n    }\n\n    /**\n     * @dev Get audit statistics\n     * SPRINT 2 FEATURE: Dashboard statistics for audit overview\n     * @return totalHashes Total number of audit hashes\n     * @return totalCriticalEvents Total critical events\n     * @return totalApprovals Total admin approvals\n     * @return latestTimestamp Timestamp of most recent entry\n     */\n    function getAuditStats() public view returns (\n        uint256 totalHashes,\n        uint256 totalCriticalEvents,\n        uint256 totalApprovals,\n        uint256 latestTimestamp\n    ) {\n        totalHashes = auditHashEntries.length;\n        totalCriticalEvents = criticalEventEntries.length;\n        totalApprovals = adminApprovalEntries.length;\n        \n        if (auditHashEntries.length > 0) {\n            latestTimestamp = auditHashEntries[auditHashEntries.length - 1].timestamp;\n        }\n    }\n}\n",
  "sourcePath": "/Users/pendiaz/Documents/my-projects/capstone-test/Capstone/blockchain/contracts/AuditLog.sol",
  "compiler": {
    "name": "solc",
    "version": "0.8.20+commit.a1b79de6.Emscripten.clang"
  },
  "schemaVersion": "3.3.4",
  "updatedAt": "2026-04-15T11:25:37.483Z",
  "networkType": "ethereum",
  "devdoc": {
    "details": "Smart contract for immutable audit logging Supports both hash-based logging (off-chain data) and full event logging (on-chain data) Now uses AccessControl for role-based permissions",
    "kind": "dev",
    "methods": {
      "anchorDigestRoot(bytes32,uint32,uint64,uint64,uint8)": {
        "details": "V3: Anchor a digest root representing multiple audit events This is the most gas-efficient method for mainnet-$1k mode.",
        "params": {
          "digestRoot": "The root hash of the epoch digest (hash chain or merkle root)",
          "digestType": "0 = hash_chain, 1 = merkle",
          "leafCount": "Number of audit events included in this digest",
          "windowEnd": "Unix timestamp of epoch window end",
          "windowStart": "Unix timestamp of epoch window start"
        }
      },
      "batchLogAuditHash(bytes32[],string)": {
        "details": "V2: Batch log multiple audit hashes in a single transaction",
        "params": {
          "eventType": "Shared event type for the batch (use short codes)",
          "hashes": "Array of hashes to log"
        }
      },
      "getAdminApprovalCount()": {
        "details": "Get the total number of admin approval entries",
        "returns": {
          "_0": "count The total count"
        }
      },
      "getAuditHashCount()": {
        "details": "Get the total number of audit hash entries",
        "returns": {
          "_0": "count The total count"
        }
      },
      "getAuditHistory(uint256,uint256,uint256,uint256)": {
        "details": "Get audit hash entries within a time range (paginated) SPRINT 2 FEATURE: Allows retrieving historical audit data",
        "params": {
          "endTime": "Unix timestamp for range end",
          "limit": "Maximum entries to return",
          "offset": "Starting index for pagination",
          "startTime": "Unix timestamp for range start"
        },
        "returns": {
          "eventTypes": "Array of event types",
          "hashes": "Array of hashes in range",
          "timestamps": "Array of corresponding timestamps",
          "totalInRange": "Total count of entries in the time range"
        }
      },
      "getAuditStats()": {
        "details": "Get audit statistics SPRINT 2 FEATURE: Dashboard statistics for audit overview",
        "returns": {
          "latestTimestamp": "Timestamp of most recent entry",
          "totalApprovals": "Total admin approvals",
          "totalCriticalEvents": "Total critical events",
          "totalHashes": "Total number of audit hashes"
        }
      },
      "getCriticalEventCount()": {
        "details": "Get the total number of critical event entries",
        "returns": {
          "_0": "count The total count"
        }
      },
      "getRecentAudits(uint256)": {
        "details": "Get the most recent N audit entries SPRINT 2 FEATURE: Quick access to recent audit activity",
        "params": {
          "count": "Number of recent entries to retrieve"
        },
        "returns": {
          "eventTypes": "Array of event types",
          "hashes": "Array of recent hashes",
          "timestamps": "Array of timestamps"
        }
      },
      "logAdminApproval(string,string,string,string,bool,string)": {
        "details": "Log an admin approval event (on-chain storage)",
        "params": {
          "approvalId": "Unique identifier for the approval request",
          "approved": "Whether the request was approved",
          "approverId": "The admin ID who approved/rejected",
          "details": "Additional details about the approval",
          "eventType": "The type of event being approved",
          "userId": "The user ID affected"
        }
      },
      "logAdminApprovalCompact(bytes32,uint8,bool)": {
        "details": "V2: Log an admin approval using only a hash (details stored off-chain)",
        "params": {
          "approved": "Whether the request was approved",
          "dataHash": "SHA256 hash of full approval payload",
          "eventCode": "Compact numeric code for event type"
        }
      },
      "logAuditHash(bytes32,string)": {
        "details": "Log an audit hash (for off-chain data verification)",
        "params": {
          "eventType": "The type of event (e.g., \"profile_update\", \"email_change\")",
          "hash": "The SHA256 hash of the audit record stored off-chain"
        }
      },
      "logCriticalEvent(string,string,string)": {
        "details": "Log a critical event with full details (on-chain storage)",
        "params": {
          "details": "JSON string with full event details",
          "eventType": "The type of event",
          "userId": "The user ID affected"
        }
      },
      "logCriticalEventCompact(bytes32,uint8)": {
        "details": "V2: Log a critical event using only a hash (details stored off-chain in DB/IPFS)",
        "params": {
          "dataHash": "SHA256 hash of the full event payload (eventType + userId + details)",
          "eventCode": "Compact numeric code for event type (replaces string)"
        }
      },
      "verifyDigestRoot(bytes32)": {
        "details": "Verify if a digest root has been anchored",
        "params": {
          "digestRoot": "The digest root to verify"
        },
        "returns": {
          "exists": "Whether the digest root exists on-chain",
          "timestamp": "When it was anchored (0 if not exists)"
        }
      },
      "verifyHash(bytes32)": {
        "details": "Verify if a hash exists in the blockchain",
        "params": {
          "hash": "The hash to verify"
        },
        "returns": {
          "exists": "Whether the hash exists",
          "timestamp": "The timestamp when the hash was logged"
        }
      }
    },
    "title": "AuditLog",
    "version": 1
  },
  "userdoc": {
    "kind": "user",
    "methods": {},
    "version": 1
  }
}