{
  "contractName": "DocumentStorage",
  "abi": [
    {
      "inputs": [
        {
          "internalType": "address",
          "name": "_accessControlAddress",
          "type": "address"
        }
      ],
      "stateMutability": "nonpayable",
      "type": "constructor"
    },
    {
      "anonymous": false,
      "inputs": [
        {
          "indexed": true,
          "internalType": "string",
          "name": "userId",
          "type": "string"
        },
        {
          "indexed": true,
          "internalType": "enum DocumentStorage.DocumentType",
          "name": "docType",
          "type": "uint8"
        },
        {
          "indexed": false,
          "internalType": "string",
          "name": "ipfsCid",
          "type": "string"
        },
        {
          "indexed": false,
          "internalType": "uint256",
          "name": "version",
          "type": "uint256"
        },
        {
          "indexed": false,
          "internalType": "uint256",
          "name": "timestamp",
          "type": "uint256"
        }
      ],
      "name": "DocumentStored",
      "type": "event"
    },
    {
      "inputs": [],
      "name": "accessControl",
      "outputs": [
        {
          "internalType": "contract AccessControl",
          "name": "",
          "type": "address"
        }
      ],
      "stateMutability": "view",
      "type": "function",
      "constant": true
    },
    {
      "inputs": [
        {
          "internalType": "string",
          "name": "",
          "type": "string"
        },
        {
          "internalType": "enum DocumentStorage.DocumentType",
          "name": "",
          "type": "uint8"
        }
      ],
      "name": "currentVersionIndex",
      "outputs": [
        {
          "internalType": "uint256",
          "name": "",
          "type": "uint256"
        }
      ],
      "stateMutability": "view",
      "type": "function",
      "constant": true
    },
    {
      "inputs": [
        {
          "internalType": "string",
          "name": "",
          "type": "string"
        },
        {
          "internalType": "enum DocumentStorage.DocumentType",
          "name": "",
          "type": "uint8"
        },
        {
          "internalType": "uint256",
          "name": "",
          "type": "uint256"
        }
      ],
      "name": "documents",
      "outputs": [
        {
          "internalType": "string",
          "name": "userId",
          "type": "string"
        },
        {
          "internalType": "enum DocumentStorage.DocumentType",
          "name": "docType",
          "type": "uint8"
        },
        {
          "internalType": "string",
          "name": "ipfsCid",
          "type": "string"
        },
        {
          "internalType": "uint256",
          "name": "uploadedAt",
          "type": "uint256"
        },
        {
          "internalType": "uint256",
          "name": "version",
          "type": "uint256"
        }
      ],
      "stateMutability": "view",
      "type": "function",
      "constant": true
    },
    {
      "inputs": [
        {
          "internalType": "string",
          "name": "userId",
          "type": "string"
        },
        {
          "internalType": "enum DocumentStorage.DocumentType",
          "name": "docType",
          "type": "uint8"
        },
        {
          "internalType": "string",
          "name": "ipfsCid",
          "type": "string"
        }
      ],
      "name": "storeDocument",
      "outputs": [],
      "stateMutability": "nonpayable",
      "type": "function"
    },
    {
      "inputs": [
        {
          "internalType": "string",
          "name": "userId",
          "type": "string"
        },
        {
          "internalType": "enum DocumentStorage.DocumentType",
          "name": "docType",
          "type": "uint8"
        }
      ],
      "name": "getDocumentCid",
      "outputs": [
        {
          "internalType": "string",
          "name": "ipfsCid",
          "type": "string"
        },
        {
          "internalType": "uint256",
          "name": "version",
          "type": "uint256"
        },
        {
          "internalType": "uint256",
          "name": "uploadedAt",
          "type": "uint256"
        }
      ],
      "stateMutability": "view",
      "type": "function",
      "constant": true
    },
    {
      "inputs": [
        {
          "internalType": "string",
          "name": "userId",
          "type": "string"
        },
        {
          "internalType": "enum DocumentStorage.DocumentType",
          "name": "docType",
          "type": "uint8"
        }
      ],
      "name": "getDocumentHistory",
      "outputs": [
        {
          "internalType": "string[]",
          "name": "cids",
          "type": "string[]"
        },
        {
          "internalType": "uint256[]",
          "name": "versions",
          "type": "uint256[]"
        },
        {
          "internalType": "uint256[]",
          "name": "timestamps",
          "type": "uint256[]"
        }
      ],
      "stateMutability": "view",
      "type": "function",
      "constant": true
    },
    {
      "inputs": [
        {
          "internalType": "string",
          "name": "userId",
          "type": "string"
        },
        {
          "internalType": "enum DocumentStorage.DocumentType",
          "name": "docType",
          "type": "uint8"
        }
      ],
      "name": "documentExists",
      "outputs": [
        {
          "internalType": "bool",
          "name": "",
          "type": "bool"
        }
      ],
      "stateMutability": "view",
      "type": "function",
      "constant": true
    },
    {
      "inputs": [
        {
          "internalType": "string",
          "name": "userId",
          "type": "string"
        },
        {
          "internalType": "enum DocumentStorage.DocumentType",
          "name": "docType",
          "type": "uint8"
        }
      ],
      "name": "getDocumentVersionCount",
      "outputs": [
        {
          "internalType": "uint256",
          "name": "",
          "type": "uint256"
        }
      ],
      "stateMutability": "view",
      "type": "function",
      "constant": true
    }
  ],
  "bytecode": "0x608060405234801561001057600080fd5b506040516114d43803806114d483398101604081905261002f916100c6565b6001600160a01b0381166100a15760405162461bcd60e51b815260206004820152602f60248201527f446f63756d656e7453746f726167653a20696e76616c6964206163636573732060448201526e636f6e74726f6c206164647265737360881b606482015260840160405180910390fd5b600080546001600160a01b0319166001600160a01b03929092169190911790556100f6565b6000602082840312156100d857600080fd5b81516001600160a01b03811681146100ef57600080fd5b9392505050565b6113cf806101056000396000f3fe608060405234801561001057600080fd5b50600436106100885760003560e01c806374b242ad1161005b57806374b242ad1461013b578063bdecba9114610150578063d25c927314610173578063ee74616b1461019757600080fd5b806313007d551461008d5780631e6fd402146100bd57806351d7b06d146100de5780636d9bf9f214610100575b600080fd5b6000546100a0906001600160a01b031681565b6040516001600160a01b0390911681526020015b60405180910390f35b6100d06100cb366004610ebf565b6101b9565b6040519081526020016100b4565b6100f16100ec366004610ebf565b610218565b6040516100b493929190610f5d565b6100d061010e366004610ebf565b81516020818401810180516002825292820194820194909420919093529091526000908152604090205481565b61014e610149366004610f82565b6104e9565b005b61016361015e366004610ebf565b61097b565b60405190151581526020016100b4565b610186610181366004610ff6565b6109da565b6040516100b4959493929190611063565b6101aa6101a5366004610ebf565b610b5d565b6040516100b4939291906110fc565b60006001836040516101cb9190611187565b908152602001604051809103902060008360068111156101ed576101ed61104d565b60068111156101fe576101fe61104d565b815260208101919091526040016000205490505b92915050565b6060600080600060018660405161022f9190611187565b908152602001604051809103902060008660068111156102515761025161104d565b60068111156102625761026261104d565b8152602001908152602001600020905060008180549050116102dc5760405162461bcd60e51b815260206004820152602860248201527f446f63756d656e7453746f726167653a20646f63756d656e7420646f6573206e6044820152671bdd08195e1a5cdd60c21b60648201526084015b60405180910390fd5b60006002876040516102ee9190611187565b908152602001604051809103902060008760068111156103105761031061104d565b60068111156103215761032161104d565b81526020019081526020016000205490506000828281548110610346576103466111a3565b90600052602060002090600502016040518060a001604052908160008201805461036f906111b9565b80601f016020809104026020016040519081016040528092919081815260200182805461039b906111b9565b80156103e85780601f106103bd576101008083540402835291602001916103e8565b820191906000526020600020905b8154815290600101906020018083116103cb57829003601f168201915b5050509183525050600182015460209091019060ff16600681111561040f5761040f61104d565b60068111156104205761042061104d565b8152602001600282018054610434906111b9565b80601f0160208091040260200160405190810160405280929190818152602001828054610460906111b9565b80156104ad5780601f10610482576101008083540402835291602001916104ad565b820191906000526020600020905b81548152906001019060200180831161049057829003601f168201915b5050509183525050600382015460208201526004909101546040918201528101516080820151606090920151909a919950975095505050505050565b600054604080516367fd7f6160e11b815290516001600160a01b039092169163ac4ab3fb913391849163cffafec29160048083019260209291908290030181865afa15801561053c573d6000803e3d6000fd5b505050506040513d601f19601f8201168201806040525081019061056091906111f3565b6040516001600160e01b031960e085901b1681526001600160a01b0390921660048301526024820152604401602060405180830381865afa1580156105a9573d6000803e3d6000fd5b505050506040513d601f19601f820116820180604052508101906105cd919061120c565b61063f5760405162461bcd60e51b815260206004820152603b60248201527f446f63756d656e7453746f726167653a2063616c6c657220646f6573206e6f7460448201527f206861766520444f43554d454e545f4d414e414745525f524f4c45000000000060648201526084016102d3565b60008351116106a05760405162461bcd60e51b815260206004820152602760248201527f446f63756d656e7453746f726167653a207573657249642063616e6e6f7420626044820152666520656d70747960c81b60648201526084016102d3565b60008151116107025760405162461bcd60e51b815260206004820152602860248201527f446f63756d656e7453746f726167653a20697066734369642063616e6e6f7420604482015267626520656d70747960c01b60648201526084016102d3565b60006001846040516107149190611187565b908152602001604051809103902060008460068111156107365761073661104d565b60068111156107475761074761104d565b8152602001908152602001600020905060008082805490501161076b5760016107ec565b8160028660405161077c9190611187565b9081526020016040518091039020600086600681111561079e5761079e61104d565b60068111156107af576107af61104d565b815260200190815260200160002054815481106107ce576107ce6111a3565b90600052602060002090600502016004015460016107ec919061124b565b905060006040518060a001604052808781526020018660068111156108135761081361104d565b81526020808201879052426040830152606090910184905284546001810186556000868152919091208251929350839260059092020190819061085690826112ad565b50602082015160018083018054909160ff199091169083600681111561087e5761087e61104d565b02179055506040820151600282019061089790826112ad565b506060820151600382015560809091015160049091015582546108bc9060019061136d565b6002876040516108cc9190611187565b908152602001604051809103902060008760068111156108ee576108ee61104d565b60068111156108ff576108ff61104d565b81526020810191909152604001600020558460068111156109225761092261104d565b866040516109309190611187565b60405180910390207fc264d5006afef0fbdd979736a7cdefa033c9db8bdbf3ba38a43b980f48b79d8986854260405161096b93929190610f5d565b60405180910390a3505050505050565b60008060018460405161098e9190611187565b908152602001604051809103902060008460068111156109b0576109b061104d565b60068111156109c1576109c161104d565b8152602081019190915260400160002054119392505050565b8251602081850181018051600182529282018287012092905252600082815260409020805482908110610a0c57600080fd5b90600052602060002090600502016000925092505050806000018054610a31906111b9565b80601f0160208091040260200160405190810160405280929190818152602001828054610a5d906111b9565b8015610aaa5780601f10610a7f57610100808354040283529160200191610aaa565b820191906000526020600020905b815481529060010190602001808311610a8d57829003601f168201915b5050506001840154600285018054949560ff909216949193509150610ace906111b9565b80601f0160208091040260200160405190810160405280929190818152602001828054610afa906111b9565b8015610b475780601f10610b1c57610100808354040283529160200191610b47565b820191906000526020600020905b815481529060010190602001808311610b2a57829003601f168201915b5050505050908060030154908060040154905085565b60608060606000600186604051610b749190611187565b90815260200160405180910390206000866006811115610b9657610b9661104d565b6006811115610ba757610ba761104d565b8152602081019190915260400160002080549091508067ffffffffffffffff811115610bd557610bd5610e08565b604051908082528060200260200182016040528015610c0857816020015b6060815260200190600190039081610bf35790505b5094508067ffffffffffffffff811115610c2457610c24610e08565b604051908082528060200260200182016040528015610c4d578160200160208202803683370190505b5093508067ffffffffffffffff811115610c6957610c69610e08565b604051908082528060200260200182016040528015610c92578160200160208202803683370190505b50925060005b81811015610dfe57828181548110610cb257610cb26111a3565b90600052602060002090600502016002018054610cce906111b9565b80601f0160208091040260200160405190810160405280929190818152602001828054610cfa906111b9565b8015610d475780601f10610d1c57610100808354040283529160200191610d47565b820191906000526020600020905b815481529060010190602001808311610d2a57829003601f168201915b5050505050868281518110610d5e57610d5e6111a3565b6020026020010181905250828181548110610d7b57610d7b6111a3565b906000526020600020906005020160040154858281518110610d9f57610d9f6111a3565b602002602001018181525050828181548110610dbd57610dbd6111a3565b906000526020600020906005020160030154848281518110610de157610de16111a3565b602090810291909101015280610df681611380565b915050610c98565b5050509250925092565b634e487b7160e01b600052604160045260246000fd5b600082601f830112610e2f57600080fd5b813567ffffffffffffffff80821115610e4a57610e4a610e08565b604051601f8301601f19908116603f01168101908282118183101715610e7257610e72610e08565b81604052838152866020858801011115610e8b57600080fd5b836020870160208301376000602085830101528094505050505092915050565b803560078110610eba57600080fd5b919050565b60008060408385031215610ed257600080fd5b823567ffffffffffffffff811115610ee957600080fd5b610ef585828601610e1e565b925050610f0460208401610eab565b90509250929050565b60005b83811015610f28578181015183820152602001610f10565b50506000910152565b60008151808452610f49816020860160208601610f0d565b601f01601f19169290920160200192915050565b606081526000610f706060830186610f31565b60208301949094525060400152919050565b600080600060608486031215610f9757600080fd5b833567ffffffffffffffff80821115610faf57600080fd5b610fbb87838801610e1e565b9450610fc960208701610eab565b93506040860135915080821115610fdf57600080fd5b50610fec86828701610e1e565b9150509250925092565b60008060006060848603121561100b57600080fd5b833567ffffffffffffffff81111561102257600080fd5b61102e86828701610e1e565b93505061103d60208501610eab565b9150604084013590509250925092565b634e487b7160e01b600052602160045260246000fd5b60a08152600061107660a0830188610f31565b6007871061109457634e487b7160e01b600052602160045260246000fd5b86602084015282810360408401526110ac8187610f31565b60608401959095525050608001529392505050565b600081518084526020808501945080840160005b838110156110f1578151875295820195908201906001016110d5565b509495945050505050565b6000606082016060835280865180835260808501915060808160051b8601019250602080890160005b8381101561115357607f19888703018552611141868351610f31565b95509382019390820190600101611125565b50508584038187015250505061116981866110c1565b9050828103604084015261117d81856110c1565b9695505050505050565b60008251611199818460208701610f0d565b9190910192915050565b634e487b7160e01b600052603260045260246000fd5b600181811c908216806111cd57607f821691505b6020821081036111ed57634e487b7160e01b600052602260045260246000fd5b50919050565b60006020828403121561120557600080fd5b5051919050565b60006020828403121561121e57600080fd5b8151801515811461122e57600080fd5b9392505050565b634e487b7160e01b600052601160045260246000fd5b8082018082111561021257610212611235565b601f8211156112a857600081815260208120601f850160051c810160208610156112855750805b601f850160051c820191505b818110156112a457828155600101611291565b5050505b505050565b815167ffffffffffffffff8111156112c7576112c7610e08565b6112db816112d584546111b9565b8461125e565b602080601f83116001811461131057600084156112f85750858301515b600019600386901b1c1916600185901b1785556112a4565b600085815260208120601f198616915b8281101561133f57888601518255948401946001909101908401611320565b508582101561135d5787850151600019600388901b60f8161c191681555b5050505050600190811b01905550565b8181038181111561021257610212611235565b60006001820161139257611392611235565b506001019056fea26469706673582212203f8e6689da983eca3a14e0ed35db3bfdd24f73179fe5b8ea4dc186661223610264736f6c63430008140033",
  "immutableReferences": {},
  "source": "// SPDX-License-Identifier: MIT\npragma solidity ^0.8.20;\n\nimport \"./AccessControl.sol\";\n\n/**\n * @title DocumentStorage\n * @dev Smart contract for storing IPFS CIDs for documents\n * Links documents to users and tracks document versions\n */\ncontract DocumentStorage {\n    AccessControl public accessControl;\n\n    // Document types\n    enum DocumentType {\n        AVATAR,\n        ID_FRONT,\n        ID_BACK,\n        BUSINESS_REGISTRATION,\n        BIR_CERTIFICATE,\n        LGU_DOCUMENT,\n        OTHER\n    }\n\n    // Struct to store document information\n    struct Document {\n        string userId;\n        DocumentType docType;\n        string ipfsCid;\n        uint256 uploadedAt;\n        uint256 version;\n    }\n\n    // Mapping from userId to documentType to Document array (version history)\n    mapping(string => mapping(DocumentType => Document[])) public documents;\n    \n    // Mapping from userId to documentType to current version index\n    mapping(string => mapping(DocumentType => uint256)) public currentVersionIndex;\n\n    // Events\n    event DocumentStored(\n        string indexed userId,\n        DocumentType indexed docType,\n        string ipfsCid,\n        uint256 version,\n        uint256 timestamp\n    );\n\n    modifier onlyDocumentManager() {\n        require(\n            accessControl.hasRole(msg.sender, accessControl.DOCUMENT_MANAGER_ROLE()),\n            \"DocumentStorage: caller does not have DOCUMENT_MANAGER_ROLE\"\n        );\n        _;\n    }\n\n    constructor(address _accessControlAddress) {\n        require(_accessControlAddress != address(0), \"DocumentStorage: invalid access control address\");\n        accessControl = AccessControl(_accessControlAddress);\n    }\n\n    /**\n     * @dev Store a document CID for a user\n     * @param userId The user identifier\n     * @param docType The document type\n     * @param ipfsCid The IPFS CID of the document\n     */\n    function storeDocument(\n        string memory userId,\n        DocumentType docType,\n        string memory ipfsCid\n    ) public onlyDocumentManager {\n        require(bytes(userId).length > 0, \"DocumentStorage: userId cannot be empty\");\n        require(bytes(ipfsCid).length > 0, \"DocumentStorage: ipfsCid cannot be empty\");\n\n        Document[] storage docHistory = documents[userId][docType];\n        uint256 currentVersion = docHistory.length > 0 \n            ? docHistory[currentVersionIndex[userId][docType]].version + 1 \n            : 1;\n\n        Document memory newDoc = Document({\n            userId: userId,\n            docType: docType,\n            ipfsCid: ipfsCid,\n            uploadedAt: block.timestamp,\n            version: currentVersion\n        });\n\n        docHistory.push(newDoc);\n        currentVersionIndex[userId][docType] = docHistory.length - 1;\n\n        emit DocumentStored(userId, docType, ipfsCid, currentVersion, block.timestamp);\n    }\n\n    /**\n     * @dev Get the current document CID for a user and document type\n     * @param userId The user identifier\n     * @param docType The document type\n     * @return ipfsCid The IPFS CID\n     * @return version The document version\n     * @return uploadedAt Upload timestamp\n     */\n    function getDocumentCid(\n        string memory userId,\n        DocumentType docType\n    ) public view returns (\n        string memory ipfsCid,\n        uint256 version,\n        uint256 uploadedAt\n    ) {\n        Document[] storage docHistory = documents[userId][docType];\n        require(docHistory.length > 0, \"DocumentStorage: document does not exist\");\n\n        uint256 currentIndex = currentVersionIndex[userId][docType];\n        Document memory currentDoc = docHistory[currentIndex];\n        \n        return (currentDoc.ipfsCid, currentDoc.version, currentDoc.uploadedAt);\n    }\n\n    /**\n     * @dev Get document history for a user and document type\n     * @param userId The user identifier\n     * @param docType The document type\n     * @return cids Array of IPFS CIDs (all versions)\n     * @return versions Array of version numbers\n     * @return timestamps Array of upload timestamps\n     */\n    function getDocumentHistory(\n        string memory userId,\n        DocumentType docType\n    ) public view returns (\n        string[] memory cids,\n        uint256[] memory versions,\n        uint256[] memory timestamps\n    ) {\n        Document[] storage docHistory = documents[userId][docType];\n        uint256 length = docHistory.length;\n        \n        cids = new string[](length);\n        versions = new uint256[](length);\n        timestamps = new uint256[](length);\n\n        for (uint256 i = 0; i < length; i++) {\n            cids[i] = docHistory[i].ipfsCid;\n            versions[i] = docHistory[i].version;\n            timestamps[i] = docHistory[i].uploadedAt;\n        }\n\n        return (cids, versions, timestamps);\n    }\n\n    /**\n     * @dev Check if a document exists for a user\n     * @param userId The user identifier\n     * @param docType The document type\n     * @return bool True if document exists\n     */\n    function documentExists(string memory userId, DocumentType docType) public view returns (bool) {\n        return documents[userId][docType].length > 0;\n    }\n\n    /**\n     * @dev Get the number of versions for a document\n     * @param userId The user identifier\n     * @param docType The document type\n     * @return count The number of versions\n     */\n    function getDocumentVersionCount(string memory userId, DocumentType docType) public view returns (uint256) {\n        return documents[userId][docType].length;\n    }\n}\n",
  "sourcePath": "/Users/pendiaz/Documents/my-projects/Capstone/blockchain/contracts/DocumentStorage.sol",
  "compiler": {
    "name": "solc",
    "version": "0.8.20+commit.a1b79de6.Emscripten.clang"
  },
  "schemaVersion": "3.3.4",
  "updatedAt": "2026-03-15T21:17:43.029Z",
  "networkType": "ethereum",
  "devdoc": {
    "details": "Smart contract for storing IPFS CIDs for documents Links documents to users and tracks document versions",
    "kind": "dev",
    "methods": {
      "documentExists(string,uint8)": {
        "details": "Check if a document exists for a user",
        "params": {
          "docType": "The document type",
          "userId": "The user identifier"
        },
        "returns": {
          "_0": "bool True if document exists"
        }
      },
      "getDocumentCid(string,uint8)": {
        "details": "Get the current document CID for a user and document type",
        "params": {
          "docType": "The document type",
          "userId": "The user identifier"
        },
        "returns": {
          "ipfsCid": "The IPFS CID",
          "uploadedAt": "Upload timestamp",
          "version": "The document version"
        }
      },
      "getDocumentHistory(string,uint8)": {
        "details": "Get document history for a user and document type",
        "params": {
          "docType": "The document type",
          "userId": "The user identifier"
        },
        "returns": {
          "cids": "Array of IPFS CIDs (all versions)",
          "timestamps": "Array of upload timestamps",
          "versions": "Array of version numbers"
        }
      },
      "getDocumentVersionCount(string,uint8)": {
        "details": "Get the number of versions for a document",
        "params": {
          "docType": "The document type",
          "userId": "The user identifier"
        },
        "returns": {
          "_0": "count The number of versions"
        }
      },
      "storeDocument(string,uint8,string)": {
        "details": "Store a document CID for a user",
        "params": {
          "docType": "The document type",
          "ipfsCid": "The IPFS CID of the document",
          "userId": "The user identifier"
        }
      }
    },
    "title": "DocumentStorage",
    "version": 1
  },
  "userdoc": {
    "kind": "user",
    "methods": {},
    "version": 1
  }
}