{
  "contractName": "DocumentStorage",
  "abi": [
    {
      "inputs": [
        {
          "internalType": "address",
          "name": "_accessControlAddress",
          "type": "address"
        }
      ],
      "stateMutability": "nonpayable",
      "type": "constructor"
    },
    {
      "anonymous": false,
      "inputs": [
        {
          "indexed": false,
          "internalType": "uint256",
          "name": "count",
          "type": "uint256"
        },
        {
          "indexed": false,
          "internalType": "uint256",
          "name": "timestamp",
          "type": "uint256"
        },
        {
          "indexed": true,
          "internalType": "address",
          "name": "storedBy",
          "type": "address"
        }
      ],
      "name": "BatchDocumentHashStored",
      "type": "event"
    },
    {
      "anonymous": false,
      "inputs": [
        {
          "indexed": true,
          "internalType": "bytes32",
          "name": "userIdHash",
          "type": "bytes32"
        },
        {
          "indexed": true,
          "internalType": "enum DocumentStorage.DocumentType",
          "name": "docType",
          "type": "uint8"
        },
        {
          "indexed": false,
          "internalType": "bytes32",
          "name": "cidHash",
          "type": "bytes32"
        },
        {
          "indexed": false,
          "internalType": "uint256",
          "name": "version",
          "type": "uint256"
        },
        {
          "indexed": false,
          "internalType": "uint256",
          "name": "timestamp",
          "type": "uint256"
        }
      ],
      "name": "DocumentHashStored",
      "type": "event"
    },
    {
      "anonymous": false,
      "inputs": [
        {
          "indexed": true,
          "internalType": "string",
          "name": "userId",
          "type": "string"
        },
        {
          "indexed": true,
          "internalType": "enum DocumentStorage.DocumentType",
          "name": "docType",
          "type": "uint8"
        },
        {
          "indexed": false,
          "internalType": "string",
          "name": "ipfsCid",
          "type": "string"
        },
        {
          "indexed": false,
          "internalType": "uint256",
          "name": "version",
          "type": "uint256"
        },
        {
          "indexed": false,
          "internalType": "uint256",
          "name": "timestamp",
          "type": "uint256"
        }
      ],
      "name": "DocumentStored",
      "type": "event"
    },
    {
      "inputs": [],
      "name": "accessControl",
      "outputs": [
        {
          "internalType": "contract AccessControl",
          "name": "",
          "type": "address"
        }
      ],
      "stateMutability": "view",
      "type": "function",
      "constant": true
    },
    {
      "inputs": [
        {
          "internalType": "bytes32",
          "name": "",
          "type": "bytes32"
        },
        {
          "internalType": "enum DocumentStorage.DocumentType",
          "name": "",
          "type": "uint8"
        }
      ],
      "name": "currentHashVersionIndex",
      "outputs": [
        {
          "internalType": "uint256",
          "name": "",
          "type": "uint256"
        }
      ],
      "stateMutability": "view",
      "type": "function",
      "constant": true
    },
    {
      "inputs": [
        {
          "internalType": "string",
          "name": "",
          "type": "string"
        },
        {
          "internalType": "enum DocumentStorage.DocumentType",
          "name": "",
          "type": "uint8"
        }
      ],
      "name": "currentVersionIndex",
      "outputs": [
        {
          "internalType": "uint256",
          "name": "",
          "type": "uint256"
        }
      ],
      "stateMutability": "view",
      "type": "function",
      "constant": true
    },
    {
      "inputs": [
        {
          "internalType": "bytes32",
          "name": "",
          "type": "bytes32"
        },
        {
          "internalType": "enum DocumentStorage.DocumentType",
          "name": "",
          "type": "uint8"
        },
        {
          "internalType": "uint256",
          "name": "",
          "type": "uint256"
        }
      ],
      "name": "documentHashes",
      "outputs": [
        {
          "internalType": "bytes32",
          "name": "userIdHash",
          "type": "bytes32"
        },
        {
          "internalType": "enum DocumentStorage.DocumentType",
          "name": "docType",
          "type": "uint8"
        },
        {
          "internalType": "bytes32",
          "name": "cidHash",
          "type": "bytes32"
        },
        {
          "internalType": "uint256",
          "name": "uploadedAt",
          "type": "uint256"
        },
        {
          "internalType": "uint256",
          "name": "version",
          "type": "uint256"
        }
      ],
      "stateMutability": "view",
      "type": "function",
      "constant": true
    },
    {
      "inputs": [
        {
          "internalType": "string",
          "name": "",
          "type": "string"
        },
        {
          "internalType": "enum DocumentStorage.DocumentType",
          "name": "",
          "type": "uint8"
        },
        {
          "internalType": "uint256",
          "name": "",
          "type": "uint256"
        }
      ],
      "name": "documents",
      "outputs": [
        {
          "internalType": "string",
          "name": "userId",
          "type": "string"
        },
        {
          "internalType": "enum DocumentStorage.DocumentType",
          "name": "docType",
          "type": "uint8"
        },
        {
          "internalType": "string",
          "name": "ipfsCid",
          "type": "string"
        },
        {
          "internalType": "uint256",
          "name": "uploadedAt",
          "type": "uint256"
        },
        {
          "internalType": "uint256",
          "name": "version",
          "type": "uint256"
        }
      ],
      "stateMutability": "view",
      "type": "function",
      "constant": true
    },
    {
      "inputs": [
        {
          "internalType": "string",
          "name": "userId",
          "type": "string"
        },
        {
          "internalType": "enum DocumentStorage.DocumentType",
          "name": "docType",
          "type": "uint8"
        },
        {
          "internalType": "string",
          "name": "ipfsCid",
          "type": "string"
        }
      ],
      "name": "storeDocument",
      "outputs": [],
      "stateMutability": "nonpayable",
      "type": "function"
    },
    {
      "inputs": [
        {
          "internalType": "string",
          "name": "userId",
          "type": "string"
        },
        {
          "internalType": "enum DocumentStorage.DocumentType",
          "name": "docType",
          "type": "uint8"
        }
      ],
      "name": "getDocumentCid",
      "outputs": [
        {
          "internalType": "string",
          "name": "ipfsCid",
          "type": "string"
        },
        {
          "internalType": "uint256",
          "name": "version",
          "type": "uint256"
        },
        {
          "internalType": "uint256",
          "name": "uploadedAt",
          "type": "uint256"
        }
      ],
      "stateMutability": "view",
      "type": "function",
      "constant": true
    },
    {
      "inputs": [
        {
          "internalType": "string",
          "name": "userId",
          "type": "string"
        },
        {
          "internalType": "enum DocumentStorage.DocumentType",
          "name": "docType",
          "type": "uint8"
        }
      ],
      "name": "getDocumentHistory",
      "outputs": [
        {
          "internalType": "string[]",
          "name": "cids",
          "type": "string[]"
        },
        {
          "internalType": "uint256[]",
          "name": "versions",
          "type": "uint256[]"
        },
        {
          "internalType": "uint256[]",
          "name": "timestamps",
          "type": "uint256[]"
        }
      ],
      "stateMutability": "view",
      "type": "function",
      "constant": true
    },
    {
      "inputs": [
        {
          "internalType": "bytes32",
          "name": "userIdHash",
          "type": "bytes32"
        },
        {
          "internalType": "enum DocumentStorage.DocumentType",
          "name": "docType",
          "type": "uint8"
        },
        {
          "internalType": "bytes32",
          "name": "cidHash",
          "type": "bytes32"
        }
      ],
      "name": "storeDocumentHash",
      "outputs": [],
      "stateMutability": "nonpayable",
      "type": "function"
    },
    {
      "inputs": [
        {
          "internalType": "bytes32[]",
          "name": "userIdHashes",
          "type": "bytes32[]"
        },
        {
          "internalType": "enum DocumentStorage.DocumentType[]",
          "name": "docTypes",
          "type": "uint8[]"
        },
        {
          "internalType": "bytes32[]",
          "name": "cidHashes",
          "type": "bytes32[]"
        }
      ],
      "name": "batchStoreDocumentHash",
      "outputs": [],
      "stateMutability": "nonpayable",
      "type": "function"
    },
    {
      "inputs": [
        {
          "internalType": "string",
          "name": "userId",
          "type": "string"
        },
        {
          "internalType": "enum DocumentStorage.DocumentType",
          "name": "docType",
          "type": "uint8"
        }
      ],
      "name": "documentExists",
      "outputs": [
        {
          "internalType": "bool",
          "name": "",
          "type": "bool"
        }
      ],
      "stateMutability": "view",
      "type": "function",
      "constant": true
    },
    {
      "inputs": [
        {
          "internalType": "string",
          "name": "userId",
          "type": "string"
        },
        {
          "internalType": "enum DocumentStorage.DocumentType",
          "name": "docType",
          "type": "uint8"
        }
      ],
      "name": "getDocumentVersionCount",
      "outputs": [
        {
          "internalType": "uint256",
          "name": "",
          "type": "uint256"
        }
      ],
      "stateMutability": "view",
      "type": "function",
      "constant": true
    }
  ],
  "bytecode": "0x60806040523480156200001157600080fd5b506040516200219f3803806200219f8339810160408190526200003491620000cd565b6001600160a01b038116620000a75760405162461bcd60e51b815260206004820152602f60248201527f446f63756d656e7453746f726167653a20696e76616c6964206163636573732060448201526e636f6e74726f6c206164647265737360881b606482015260840160405180910390fd5b600080546001600160a01b0319166001600160a01b0392909216919091179055620000ff565b600060208284031215620000e057600080fd5b81516001600160a01b0381168114620000f857600080fd5b9392505050565b612090806200010f6000396000f3fe608060405234801561001057600080fd5b50600436106100b45760003560e01c8063bdecba9111610071578063bdecba91146101a0578063bf3fe98f146101c3578063d25c9273146101d6578063e1fba820146101fa578063e982360214610225578063ee74616b1461023857600080fd5b806313007d55146100b95780631e6fd402146100e957806351d7b06d1461010a5780635b1b63761461012c5780636d9bf9f21461015057806374b242ad1461018b575b600080fd5b6000546100cc906001600160a01b031681565b6040516001600160a01b0390911681526020015b60405180910390f35b6100fc6100f7366004611938565b61025a565b6040519081526020016100e0565b61011d610118366004611938565b6102b9565b6040516100e0939291906119d6565b61013f61013a3660046119fb565b61058a565b6040516100e0959493929190611a68565b6100fc61015e366004611938565b81516020818401810180516002825292820194820194909420919093529091526000908152604090205481565b61019e610199366004611a98565b6105e8565b005b6101b36101ae366004611938565b610a24565b60405190151581526020016100e0565b61019e6101d1366004611b9b565b610a83565b6101e96101e4366004611c74565b611068565b6040516100e0959493929190611cbb565b6100fc610208366004611d02565b600460209081526000928352604080842090915290825290205481565b61019e6102333660046119fb565b6111eb565b61024b610246366004611938565b6115c2565b6040516100e093929190611d60565b600060018360405161026c9190611deb565b9081526020016040518091039020600083600681111561028e5761028e611a30565b600681111561029f5761029f611a30565b815260208101919091526040016000205490505b92915050565b606060008060006001866040516102d09190611deb565b908152602001604051809103902060008660068111156102f2576102f2611a30565b600681111561030357610303611a30565b81526020019081526020016000209050600081805490501161037d5760405162461bcd60e51b815260206004820152602860248201527f446f63756d656e7453746f726167653a20646f63756d656e7420646f6573206e6044820152671bdd08195e1a5cdd60c21b60648201526084015b60405180910390fd5b600060028760405161038f9190611deb565b908152602001604051809103902060008760068111156103b1576103b1611a30565b60068111156103c2576103c2611a30565b815260200190815260200160002054905060008282815481106103e7576103e7611e07565b90600052602060002090600502016040518060a001604052908160008201805461041090611e1d565b80601f016020809104026020016040519081016040528092919081815260200182805461043c90611e1d565b80156104895780601f1061045e57610100808354040283529160200191610489565b820191906000526020600020905b81548152906001019060200180831161046c57829003601f168201915b5050509183525050600182015460209091019060ff1660068111156104b0576104b0611a30565b60068111156104c1576104c1611a30565b81526020016002820180546104d590611e1d565b80601f016020809104026020016040519081016040528092919081815260200182805461050190611e1d565b801561054e5780601f106105235761010080835404028352916020019161054e565b820191906000526020600020905b81548152906001019060200180831161053157829003601f168201915b5050509183525050600382015460208201526004909101546040918201528101516080820151606090920151909a919950975095505050505050565b600360205282600052604060002060205281600052604060002081815481106105b257600080fd5b60009182526020909120600590910201805460018201546002830154600384015460049094015492965060ff9091169450925085565b600054604080516367fd7f6160e11b815290516001600160a01b039092169163ac4ab3fb913391849163cffafec29160048083019260209291908290030181865afa15801561063b573d6000803e3d6000fd5b505050506040513d601f19601f8201168201806040525081019061065f9190611e57565b6040516001600160e01b031960e085901b1681526001600160a01b0390921660048301526024820152604401602060405180830381865afa1580156106a8573d6000803e3d6000fd5b505050506040513d601f19601f820116820180604052508101906106cc9190611e70565b6106e85760405162461bcd60e51b815260040161037490611e99565b60008351116107495760405162461bcd60e51b815260206004820152602760248201527f446f63756d656e7453746f726167653a207573657249642063616e6e6f7420626044820152666520656d70747960c81b6064820152608401610374565b60008151116107ab5760405162461bcd60e51b815260206004820152602860248201527f446f63756d656e7453746f726167653a20697066734369642063616e6e6f7420604482015267626520656d70747960c01b6064820152608401610374565b60006001846040516107bd9190611deb565b908152602001604051809103902060008460068111156107df576107df611a30565b60068111156107f0576107f0611a30565b81526020019081526020016000209050600080828054905011610814576001610895565b816002866040516108259190611deb565b9081526020016040518091039020600086600681111561084757610847611a30565b600681111561085857610858611a30565b8152602001908152602001600020548154811061087757610877611e07565b90600052602060002090600502016004015460016108959190611f0c565b905060006040518060a001604052808781526020018660068111156108bc576108bc611a30565b8152602080820187905242604083015260609091018490528454600181018655600086815291909120825192935083926005909202019081906108ff9082611f6e565b50602082015160018083018054909160ff199091169083600681111561092757610927611a30565b0217905550604082015160028201906109409082611f6e565b506060820151600382015560809091015160049091015582546109659060019061202e565b6002876040516109759190611deb565b9081526020016040518091039020600087600681111561099757610997611a30565b60068111156109a8576109a8611a30565b81526020810191909152604001600020558460068111156109cb576109cb611a30565b866040516109d99190611deb565b60405180910390207fc264d5006afef0fbdd979736a7cdefa033c9db8bdbf3ba38a43b980f48b79d89868542604051610a14939291906119d6565b60405180910390a3505050505050565b600080600184604051610a379190611deb565b90815260200160405180910390206000846006811115610a5957610a59611a30565b6006811115610a6a57610a6a611a30565b8152602081019190915260400160002054119392505050565b600054604080516367fd7f6160e11b815290516001600160a01b039092169163ac4ab3fb913391849163cffafec29160048083019260209291908290030181865afa158015610ad6573d6000803e3d6000fd5b505050506040513d601f19601f82011682018060405250810190610afa9190611e57565b6040516001600160e01b031960e085901b1681526001600160a01b0390921660048301526024820152604401602060405180830381865afa158015610b43573d6000803e3d6000fd5b505050506040513d601f19601f82011682018060405250810190610b679190611e70565b610b835760405162461bcd60e51b815260040161037490611e99565b6000835111610bc25760405162461bcd60e51b815260206004820152600b60248201526a08adae0e8f240c4c2e8c6d60ab1b6044820152606401610374565b603283511115610c065760405162461bcd60e51b815260206004820152600f60248201526e426174636820746f6f206c6172676560881b6044820152606401610374565b81518351148015610c18575080518251145b610c5c5760405162461bcd60e51b8152602060048201526015602482015274082e4e4c2f240d8cadccee8d040dad2e6dac2e8c6d605b1b6044820152606401610374565b60005b8351811015611026576000801b848281518110610c7e57610c7e611e07565b60200260200101511480610cad57506000801b828281518110610ca357610ca3611e07565b6020026020010151145b61101457600060036000868481518110610cc957610cc9611e07565b602002602001015181526020019081526020016000206000858481518110610cf357610cf3611e07565b60200260200101516006811115610d0c57610d0c611a30565b6006811115610d1d57610d1d611a30565b81526020019081526020016000209050600080828054905011610d41576001610de9565b8160046000888681518110610d5857610d58611e07565b602002602001015181526020019081526020016000206000878681518110610d8257610d82611e07565b60200260200101516006811115610d9b57610d9b611a30565b6006811115610dac57610dac611a30565b81526020019081526020016000205481548110610dcb57610dcb611e07565b9060005260206000209060050201600401546001610de99190611f0c565b9050816040518060a00160405280888681518110610e0957610e09611e07565b60200260200101518152602001878681518110610e2857610e28611e07565b60200260200101516006811115610e4157610e41611a30565b8152602001868681518110610e5857610e58611e07565b6020908102919091018101518252428282015260409091018490528254600181810185556000948552938290208351600590920201908155908201518184018054939492939192909160ff191690836006811115610eb857610eb8611a30565b021790555060408201516002820155606082015160038201556080909101516004909101558154610eeb9060019061202e565b60046000888681518110610f0157610f01611e07565b602002602001015181526020019081526020016000206000878681518110610f2b57610f2b611e07565b60200260200101516006811115610f4457610f44611a30565b6006811115610f5557610f55611a30565b815260200190815260200160002081905550848381518110610f7957610f79611e07565b60200260200101516006811115610f9257610f92611a30565b868481518110610fa457610fa4611e07565b60200260200101517f13b43acf3a98a7e7407e1d0bb52e058de05955dbcd5daf00248271249208feaa868681518110610fdf57610fdf611e07565b60200260200101518442604051611009939291909283526020830191909152604082015260600190565b60405180910390a350505b8061101e81612041565b915050610c5f565b5082516040805191825242602083015233917f0f170d14fb26003bb1492505f450c581767ff08de498851bf18fee4f2736647e910160405180910390a2505050565b825160208185018101805160018252928201828701209290525260008281526040902080548290811061109a57600080fd5b906000526020600020906005020160009250925050508060000180546110bf90611e1d565b80601f01602080910402602001604051908101604052809291908181526020018280546110eb90611e1d565b80156111385780601f1061110d57610100808354040283529160200191611138565b820191906000526020600020905b81548152906001019060200180831161111b57829003601f168201915b5050506001840154600285018054949560ff90921694919350915061115c90611e1d565b80601f016020809104026020016040519081016040528092919081815260200182805461118890611e1d565b80156111d55780601f106111aa576101008083540402835291602001916111d5565b820191906000526020600020905b8154815290600101906020018083116111b857829003601f168201915b5050505050908060030154908060040154905085565b600054604080516367fd7f6160e11b815290516001600160a01b039092169163ac4ab3fb913391849163cffafec29160048083019260209291908290030181865afa15801561123e573d6000803e3d6000fd5b505050506040513d601f19601f820116820180604052508101906112629190611e57565b6040516001600160e01b031960e085901b1681526001600160a01b0390921660048301526024820152604401602060405180830381865afa1580156112ab573d6000803e3d6000fd5b505050506040513d601f19601f820116820180604052508101906112cf9190611e70565b6112eb5760405162461bcd60e51b815260040161037490611e99565b8261134b5760405162461bcd60e51b815260206004820152602a60248201527f446f63756d656e7453746f726167653a20757365724964486173682063616e6e6044820152696f74206265207a65726f60b01b6064820152608401610374565b806113a85760405162461bcd60e51b815260206004820152602760248201527f446f63756d656e7453746f726167653a20636964486173682063616e6e6f74206044820152666265207a65726f60c81b6064820152608401610374565b6000838152600360205260408120818460068111156113c9576113c9611a30565b60068111156113da576113da611a30565b815260200190815260200160002090506000808280549050116113fe57600161146e565b6000858152600460205260408120839186600681111561142057611420611a30565b600681111561143157611431611a30565b8152602001908152602001600020548154811061145057611450611e07565b906000526020600020906005020160040154600161146e9190611f0c565b9050816040518060a0016040528087815260200186600681111561149457611494611a30565b8152602080820187905242604083015260609091018490528254600181810185556000948552938290208351600590920201908155908201518184018054939492939192909160ff1916908360068111156114f1576114f1611a30565b0217905550604082015160028201556060820151600382015560809091015160049091015581546115249060019061202e565b60008681526004602052604081209086600681111561154557611545611a30565b600681111561155657611556611a30565b815260208101919091526040016000205583600681111561157957611579611a30565b60408051858152602081018490524281830152905187917f13b43acf3a98a7e7407e1d0bb52e058de05955dbcd5daf00248271249208feaa919081900360600190a35050505050565b606080606060006001866040516115d99190611deb565b908152602001604051809103902060008660068111156115fb576115fb611a30565b600681111561160c5761160c611a30565b8152602081019190915260400160002080549091508067ffffffffffffffff81111561163a5761163a61186d565b60405190808252806020026020018201604052801561166d57816020015b60608152602001906001900390816116585790505b5094508067ffffffffffffffff8111156116895761168961186d565b6040519080825280602002602001820160405280156116b2578160200160208202803683370190505b5093508067ffffffffffffffff8111156116ce576116ce61186d565b6040519080825280602002602001820160405280156116f7578160200160208202803683370190505b50925060005b818110156118635782818154811061171757611717611e07565b9060005260206000209060050201600201805461173390611e1d565b80601f016020809104026020016040519081016040528092919081815260200182805461175f90611e1d565b80156117ac5780601f10611781576101008083540402835291602001916117ac565b820191906000526020600020905b81548152906001019060200180831161178f57829003601f168201915b50505050508682815181106117c3576117c3611e07565b60200260200101819052508281815481106117e0576117e0611e07565b90600052602060002090600502016004015485828151811061180457611804611e07565b60200260200101818152505082818154811061182257611822611e07565b90600052602060002090600502016003015484828151811061184657611846611e07565b60209081029190910101528061185b81612041565b9150506116fd565b5050509250925092565b634e487b7160e01b600052604160045260246000fd5b604051601f8201601f1916810167ffffffffffffffff811182821017156118ac576118ac61186d565b604052919050565b600082601f8301126118c557600080fd5b813567ffffffffffffffff8111156118df576118df61186d565b6118f2601f8201601f1916602001611883565b81815284602083860101111561190757600080fd5b816020850160208301376000918101602001919091529392505050565b80356007811061193357600080fd5b919050565b6000806040838503121561194b57600080fd5b823567ffffffffffffffff81111561196257600080fd5b61196e858286016118b4565b92505061197d60208401611924565b90509250929050565b60005b838110156119a1578181015183820152602001611989565b50506000910152565b600081518084526119c2816020860160208601611986565b601f01601f19169290920160200192915050565b6060815260006119e960608301866119aa565b60208301949094525060400152919050565b600080600060608486031215611a1057600080fd5b83359250611a2060208501611924565b9150604084013590509250925092565b634e487b7160e01b600052602160045260246000fd5b60078110611a6457634e487b7160e01b600052602160045260246000fd5b9052565b85815260a08101611a7c6020830187611a46565b8460408301528360608301528260808301529695505050505050565b600080600060608486031215611aad57600080fd5b833567ffffffffffffffff80821115611ac557600080fd5b611ad1878388016118b4565b9450611adf60208701611924565b93506040860135915080821115611af557600080fd5b50611b02868287016118b4565b9150509250925092565b600067ffffffffffffffff821115611b2657611b2661186d565b5060051b60200190565b600082601f830112611b4157600080fd5b81356020611b56611b5183611b0c565b611883565b82815260059290921b84018101918181019086841115611b7557600080fd5b8286015b84811015611b905780358352918301918301611b79565b509695505050505050565b600080600060608486031215611bb057600080fd5b833567ffffffffffffffff80821115611bc857600080fd5b611bd487838801611b30565b9450602091508186013581811115611beb57600080fd5b8601601f81018813611bfc57600080fd5b8035611c0a611b5182611b0c565b81815260059190911b8201840190848101908a831115611c2957600080fd5b928501925b82841015611c4e57611c3f84611924565b82529285019290850190611c2e565b96505050506040860135915080821115611c6757600080fd5b50611b0286828701611b30565b600080600060608486031215611c8957600080fd5b833567ffffffffffffffff811115611ca057600080fd5b611cac868287016118b4565b935050611a2060208501611924565b60a081526000611cce60a08301886119aa565b611cdb6020840188611a46565b8281036040840152611ced81876119aa565b60608401959095525050608001529392505050565b60008060408385031215611d1557600080fd5b8235915061197d60208401611924565b600081518084526020808501945080840160005b83811015611d5557815187529582019590820190600101611d39565b509495945050505050565b6000606082016060835280865180835260808501915060808160051b8601019250602080890160005b83811015611db757607f19888703018552611da58683516119aa565b95509382019390820190600101611d89565b505085840381870152505050611dcd8186611d25565b90508281036040840152611de18185611d25565b9695505050505050565b60008251611dfd818460208701611986565b9190910192915050565b634e487b7160e01b600052603260045260246000fd5b600181811c90821680611e3157607f821691505b602082108103611e5157634e487b7160e01b600052602260045260246000fd5b50919050565b600060208284031215611e6957600080fd5b5051919050565b600060208284031215611e8257600080fd5b81518015158114611e9257600080fd5b9392505050565b6020808252603b908201527f446f63756d656e7453746f726167653a2063616c6c657220646f6573206e6f7460408201527f206861766520444f43554d454e545f4d414e414745525f524f4c450000000000606082015260800190565b634e487b7160e01b600052601160045260246000fd5b808201808211156102b3576102b3611ef6565b601f821115611f6957600081815260208120601f850160051c81016020861015611f465750805b601f850160051c820191505b81811015611f6557828155600101611f52565b5050505b505050565b815167ffffffffffffffff811115611f8857611f8861186d565b611f9c81611f968454611e1d565b84611f1f565b602080601f831160018114611fd15760008415611fb95750858301515b600019600386901b1c1916600185901b178555611f65565b600085815260208120601f198616915b8281101561200057888601518255948401946001909101908401611fe1565b508582101561201e5787850151600019600388901b60f8161c191681555b5050505050600190811b01905550565b818103818111156102b3576102b3611ef6565b60006001820161205357612053611ef6565b506001019056fea264697066735822122047820dff309c4d53eb7e32d0ee596c8aed1ae4231289303e3e2185076a1e63ef64736f6c63430008140033",
  "immutableReferences": {},
  "source": "// SPDX-License-Identifier: MIT\npragma solidity ^0.8.20;\n\nimport \"./AccessControl.sol\";\n\n/**\n * @title DocumentStorage\n * @dev Smart contract for storing IPFS CIDs for documents\n * Links documents to users and tracks document versions\n */\ncontract DocumentStorage {\n    AccessControl public accessControl;\n\n    // Document types\n    enum DocumentType {\n        AVATAR,\n        ID_FRONT,\n        ID_BACK,\n        BUSINESS_REGISTRATION,\n        BIR_CERTIFICATE,\n        LGU_DOCUMENT,\n        OTHER\n    }\n\n    // Struct to store document information\n    struct Document {\n        string userId;\n        DocumentType docType;\n        string ipfsCid;\n        uint256 uploadedAt;\n        uint256 version;\n    }\n\n    // Mapping from userId to documentType to Document array (version history)\n    mapping(string => mapping(DocumentType => Document[])) public documents;\n    \n    // Mapping from userId to documentType to current version index\n    mapping(string => mapping(DocumentType => uint256)) public currentVersionIndex;\n\n    // Events\n    event DocumentStored(\n        string indexed userId,\n        DocumentType indexed docType,\n        string ipfsCid,\n        uint256 version,\n        uint256 timestamp\n    );\n\n    modifier onlyDocumentManager() {\n        require(\n            accessControl.hasRole(msg.sender, accessControl.DOCUMENT_MANAGER_ROLE()),\n            \"DocumentStorage: caller does not have DOCUMENT_MANAGER_ROLE\"\n        );\n        _;\n    }\n\n    constructor(address _accessControlAddress) {\n        require(_accessControlAddress != address(0), \"DocumentStorage: invalid access control address\");\n        accessControl = AccessControl(_accessControlAddress);\n    }\n\n    /**\n     * @dev Store a document CID for a user\n     * @param userId The user identifier\n     * @param docType The document type\n     * @param ipfsCid The IPFS CID of the document\n     */\n    function storeDocument(\n        string memory userId,\n        DocumentType docType,\n        string memory ipfsCid\n    ) public onlyDocumentManager {\n        require(bytes(userId).length > 0, \"DocumentStorage: userId cannot be empty\");\n        require(bytes(ipfsCid).length > 0, \"DocumentStorage: ipfsCid cannot be empty\");\n\n        Document[] storage docHistory = documents[userId][docType];\n        uint256 currentVersion = docHistory.length > 0 \n            ? docHistory[currentVersionIndex[userId][docType]].version + 1 \n            : 1;\n\n        Document memory newDoc = Document({\n            userId: userId,\n            docType: docType,\n            ipfsCid: ipfsCid,\n            uploadedAt: block.timestamp,\n            version: currentVersion\n        });\n\n        docHistory.push(newDoc);\n        currentVersionIndex[userId][docType] = docHistory.length - 1;\n\n        emit DocumentStored(userId, docType, ipfsCid, currentVersion, block.timestamp);\n    }\n\n    /**\n     * @dev Get the current document CID for a user and document type\n     * @param userId The user identifier\n     * @param docType The document type\n     * @return ipfsCid The IPFS CID\n     * @return version The document version\n     * @return uploadedAt Upload timestamp\n     */\n    function getDocumentCid(\n        string memory userId,\n        DocumentType docType\n    ) public view returns (\n        string memory ipfsCid,\n        uint256 version,\n        uint256 uploadedAt\n    ) {\n        Document[] storage docHistory = documents[userId][docType];\n        require(docHistory.length > 0, \"DocumentStorage: document does not exist\");\n\n        uint256 currentIndex = currentVersionIndex[userId][docType];\n        Document memory currentDoc = docHistory[currentIndex];\n        \n        return (currentDoc.ipfsCid, currentDoc.version, currentDoc.uploadedAt);\n    }\n\n    /**\n     * @dev Get document history for a user and document type\n     * @param userId The user identifier\n     * @param docType The document type\n     * @return cids Array of IPFS CIDs (all versions)\n     * @return versions Array of version numbers\n     * @return timestamps Array of upload timestamps\n     */\n    function getDocumentHistory(\n        string memory userId,\n        DocumentType docType\n    ) public view returns (\n        string[] memory cids,\n        uint256[] memory versions,\n        uint256[] memory timestamps\n    ) {\n        Document[] storage docHistory = documents[userId][docType];\n        uint256 length = docHistory.length;\n        \n        cids = new string[](length);\n        versions = new uint256[](length);\n        timestamps = new uint256[](length);\n\n        for (uint256 i = 0; i < length; i++) {\n            cids[i] = docHistory[i].ipfsCid;\n            versions[i] = docHistory[i].version;\n            timestamps[i] = docHistory[i].uploadedAt;\n        }\n\n        return (cids, versions, timestamps);\n    }\n\n    // =========================================================================\n    // V2 GAS-OPTIMIZED METHODS\n    // =========================================================================\n\n    // V2 compact struct: stores hash of CID instead of full string\n    struct DocumentHashEntry {\n        bytes32 userIdHash;\n        DocumentType docType;\n        bytes32 cidHash;\n        uint256 uploadedAt;\n        uint256 version;\n    }\n\n    // V2 storage: userIdHash => docType => DocumentHashEntry[]\n    mapping(bytes32 => mapping(DocumentType => DocumentHashEntry[])) public documentHashes;\n    mapping(bytes32 => mapping(DocumentType => uint256)) public currentHashVersionIndex;\n\n    // V2 events\n    event DocumentHashStored(\n        bytes32 indexed userIdHash,\n        DocumentType indexed docType,\n        bytes32 cidHash,\n        uint256 version,\n        uint256 timestamp\n    );\n\n    event BatchDocumentHashStored(\n        uint256 count,\n        uint256 timestamp,\n        address indexed storedBy\n    );\n\n    /**\n     * @dev V2: Store a document CID hash (full CID kept off-chain in DB/IPFS)\n     * @param userIdHash Hash of the userId\n     * @param docType The document type\n     * @param cidHash Hash of the IPFS CID\n     */\n    function storeDocumentHash(\n        bytes32 userIdHash,\n        DocumentType docType,\n        bytes32 cidHash\n    ) public onlyDocumentManager {\n        require(userIdHash != bytes32(0), \"DocumentStorage: userIdHash cannot be zero\");\n        require(cidHash != bytes32(0), \"DocumentStorage: cidHash cannot be zero\");\n\n        DocumentHashEntry[] storage history = documentHashes[userIdHash][docType];\n        uint256 currentVersion = history.length > 0\n            ? history[currentHashVersionIndex[userIdHash][docType]].version + 1\n            : 1;\n\n        history.push(DocumentHashEntry({\n            userIdHash: userIdHash,\n            docType: docType,\n            cidHash: cidHash,\n            uploadedAt: block.timestamp,\n            version: currentVersion\n        }));\n        currentHashVersionIndex[userIdHash][docType] = history.length - 1;\n\n        emit DocumentHashStored(userIdHash, docType, cidHash, currentVersion, block.timestamp);\n    }\n\n    /**\n     * @dev V2: Batch store multiple document CID hashes in one transaction\n     * @param userIdHashes Array of userId hashes\n     * @param docTypes Array of document types\n     * @param cidHashes Array of CID hashes\n     */\n    function batchStoreDocumentHash(\n        bytes32[] memory userIdHashes,\n        DocumentType[] memory docTypes,\n        bytes32[] memory cidHashes\n    ) public onlyDocumentManager {\n        require(userIdHashes.length > 0, \"Empty batch\");\n        require(userIdHashes.length <= 50, \"Batch too large\");\n        require(userIdHashes.length == docTypes.length && docTypes.length == cidHashes.length, \"Array length mismatch\");\n\n        for (uint256 i = 0; i < userIdHashes.length; i++) {\n            if (userIdHashes[i] == bytes32(0) || cidHashes[i] == bytes32(0)) continue;\n\n            DocumentHashEntry[] storage history = documentHashes[userIdHashes[i]][docTypes[i]];\n            uint256 currentVersion = history.length > 0\n                ? history[currentHashVersionIndex[userIdHashes[i]][docTypes[i]]].version + 1\n                : 1;\n\n            history.push(DocumentHashEntry({\n                userIdHash: userIdHashes[i],\n                docType: docTypes[i],\n                cidHash: cidHashes[i],\n                uploadedAt: block.timestamp,\n                version: currentVersion\n            }));\n            currentHashVersionIndex[userIdHashes[i]][docTypes[i]] = history.length - 1;\n\n            emit DocumentHashStored(userIdHashes[i], docTypes[i], cidHashes[i], currentVersion, block.timestamp);\n        }\n\n        emit BatchDocumentHashStored(userIdHashes.length, block.timestamp, msg.sender);\n    }\n\n    /**\n     * @dev Check if a document exists for a user\n     * @param userId The user identifier\n     * @param docType The document type\n     * @return bool True if document exists\n     */\n    function documentExists(string memory userId, DocumentType docType) public view returns (bool) {\n        return documents[userId][docType].length > 0;\n    }\n\n    /**\n     * @dev Get the number of versions for a document\n     * @param userId The user identifier\n     * @param docType The document type\n     * @return count The number of versions\n     */\n    function getDocumentVersionCount(string memory userId, DocumentType docType) public view returns (uint256) {\n        return documents[userId][docType].length;\n    }\n}\n",
  "sourcePath": "/Users/pendiaz/Documents/my-projects/Capstone/blockchain/contracts/DocumentStorage.sol",
  "compiler": {
    "name": "solc",
    "version": "0.8.20+commit.a1b79de6.Emscripten.clang"
  },
  "schemaVersion": "3.3.4",
  "updatedAt": "2026-05-01T23:35:49.429Z",
  "networkType": "ethereum",
  "devdoc": {
    "details": "Smart contract for storing IPFS CIDs for documents Links documents to users and tracks document versions",
    "kind": "dev",
    "methods": {
      "batchStoreDocumentHash(bytes32[],uint8[],bytes32[])": {
        "details": "V2: Batch store multiple document CID hashes in one transaction",
        "params": {
          "cidHashes": "Array of CID hashes",
          "docTypes": "Array of document types",
          "userIdHashes": "Array of userId hashes"
        }
      },
      "documentExists(string,uint8)": {
        "details": "Check if a document exists for a user",
        "params": {
          "docType": "The document type",
          "userId": "The user identifier"
        },
        "returns": {
          "_0": "bool True if document exists"
        }
      },
      "getDocumentCid(string,uint8)": {
        "details": "Get the current document CID for a user and document type",
        "params": {
          "docType": "The document type",
          "userId": "The user identifier"
        },
        "returns": {
          "ipfsCid": "The IPFS CID",
          "uploadedAt": "Upload timestamp",
          "version": "The document version"
        }
      },
      "getDocumentHistory(string,uint8)": {
        "details": "Get document history for a user and document type",
        "params": {
          "docType": "The document type",
          "userId": "The user identifier"
        },
        "returns": {
          "cids": "Array of IPFS CIDs (all versions)",
          "timestamps": "Array of upload timestamps",
          "versions": "Array of version numbers"
        }
      },
      "getDocumentVersionCount(string,uint8)": {
        "details": "Get the number of versions for a document",
        "params": {
          "docType": "The document type",
          "userId": "The user identifier"
        },
        "returns": {
          "_0": "count The number of versions"
        }
      },
      "storeDocument(string,uint8,string)": {
        "details": "Store a document CID for a user",
        "params": {
          "docType": "The document type",
          "ipfsCid": "The IPFS CID of the document",
          "userId": "The user identifier"
        }
      },
      "storeDocumentHash(bytes32,uint8,bytes32)": {
        "details": "V2: Store a document CID hash (full CID kept off-chain in DB/IPFS)",
        "params": {
          "cidHash": "Hash of the IPFS CID",
          "docType": "The document type",
          "userIdHash": "Hash of the userId"
        }
      }
    },
    "title": "DocumentStorage",
    "version": 1
  },
  "userdoc": {
    "kind": "user",
    "methods": {},
    "version": 1
  }
}