{
  "contractName": "DocumentStorage",
  "abi": [
    {
      "inputs": [
        {
          "internalType": "address",
          "name": "_accessControlAddress",
          "type": "address"
        }
      ],
      "stateMutability": "nonpayable",
      "type": "constructor"
    },
    {
      "anonymous": false,
      "inputs": [
        {
          "indexed": true,
          "internalType": "string",
          "name": "userId",
          "type": "string"
        },
        {
          "indexed": true,
          "internalType": "enum DocumentStorage.DocumentType",
          "name": "docType",
          "type": "uint8"
        },
        {
          "indexed": false,
          "internalType": "string",
          "name": "ipfsCid",
          "type": "string"
        },
        {
          "indexed": false,
          "internalType": "uint256",
          "name": "version",
          "type": "uint256"
        },
        {
          "indexed": false,
          "internalType": "uint256",
          "name": "timestamp",
          "type": "uint256"
        }
      ],
      "name": "DocumentStored",
      "type": "event"
    },
    {
      "inputs": [],
      "name": "accessControl",
      "outputs": [
        {
          "internalType": "contract AccessControl",
          "name": "",
          "type": "address"
        }
      ],
      "stateMutability": "view",
      "type": "function",
      "constant": true
    },
    {
      "inputs": [
        {
          "internalType": "string",
          "name": "",
          "type": "string"
        },
        {
          "internalType": "enum DocumentStorage.DocumentType",
          "name": "",
          "type": "uint8"
        }
      ],
      "name": "currentVersionIndex",
      "outputs": [
        {
          "internalType": "uint256",
          "name": "",
          "type": "uint256"
        }
      ],
      "stateMutability": "view",
      "type": "function",
      "constant": true
    },
    {
      "inputs": [
        {
          "internalType": "string",
          "name": "",
          "type": "string"
        },
        {
          "internalType": "enum DocumentStorage.DocumentType",
          "name": "",
          "type": "uint8"
        },
        {
          "internalType": "uint256",
          "name": "",
          "type": "uint256"
        }
      ],
      "name": "documents",
      "outputs": [
        {
          "internalType": "string",
          "name": "userId",
          "type": "string"
        },
        {
          "internalType": "enum DocumentStorage.DocumentType",
          "name": "docType",
          "type": "uint8"
        },
        {
          "internalType": "string",
          "name": "ipfsCid",
          "type": "string"
        },
        {
          "internalType": "uint256",
          "name": "uploadedAt",
          "type": "uint256"
        },
        {
          "internalType": "uint256",
          "name": "version",
          "type": "uint256"
        }
      ],
      "stateMutability": "view",
      "type": "function",
      "constant": true
    },
    {
      "inputs": [
        {
          "internalType": "string",
          "name": "userId",
          "type": "string"
        },
        {
          "internalType": "enum DocumentStorage.DocumentType",
          "name": "docType",
          "type": "uint8"
        },
        {
          "internalType": "string",
          "name": "ipfsCid",
          "type": "string"
        }
      ],
      "name": "storeDocument",
      "outputs": [],
      "stateMutability": "nonpayable",
      "type": "function"
    },
    {
      "inputs": [
        {
          "internalType": "string",
          "name": "userId",
          "type": "string"
        },
        {
          "internalType": "enum DocumentStorage.DocumentType",
          "name": "docType",
          "type": "uint8"
        }
      ],
      "name": "getDocumentCid",
      "outputs": [
        {
          "internalType": "string",
          "name": "ipfsCid",
          "type": "string"
        },
        {
          "internalType": "uint256",
          "name": "version",
          "type": "uint256"
        },
        {
          "internalType": "uint256",
          "name": "uploadedAt",
          "type": "uint256"
        }
      ],
      "stateMutability": "view",
      "type": "function",
      "constant": true
    },
    {
      "inputs": [
        {
          "internalType": "string",
          "name": "userId",
          "type": "string"
        },
        {
          "internalType": "enum DocumentStorage.DocumentType",
          "name": "docType",
          "type": "uint8"
        }
      ],
      "name": "getDocumentHistory",
      "outputs": [
        {
          "internalType": "string[]",
          "name": "cids",
          "type": "string[]"
        },
        {
          "internalType": "uint256[]",
          "name": "versions",
          "type": "uint256[]"
        },
        {
          "internalType": "uint256[]",
          "name": "timestamps",
          "type": "uint256[]"
        }
      ],
      "stateMutability": "view",
      "type": "function",
      "constant": true
    },
    {
      "inputs": [
        {
          "internalType": "string",
          "name": "userId",
          "type": "string"
        },
        {
          "internalType": "enum DocumentStorage.DocumentType",
          "name": "docType",
          "type": "uint8"
        }
      ],
      "name": "documentExists",
      "outputs": [
        {
          "internalType": "bool",
          "name": "",
          "type": "bool"
        }
      ],
      "stateMutability": "view",
      "type": "function",
      "constant": true
    },
    {
      "inputs": [
        {
          "internalType": "string",
          "name": "userId",
          "type": "string"
        },
        {
          "internalType": "enum DocumentStorage.DocumentType",
          "name": "docType",
          "type": "uint8"
        }
      ],
      "name": "getDocumentVersionCount",
      "outputs": [
        {
          "internalType": "uint256",
          "name": "",
          "type": "uint256"
        }
      ],
      "stateMutability": "view",
      "type": "function",
      "constant": true
    }
  ],
  "bytecode": "0x608060405234801561000f575f80fd5b5060405161145638038061145683398101604081905261002e916100c4565b6001600160a01b0381166100a05760405162461bcd60e51b815260206004820152602f60248201527f446f63756d656e7453746f726167653a20696e76616c6964206163636573732060448201526e636f6e74726f6c206164647265737360881b606482015260840160405180910390fd5b5f80546001600160a01b0319166001600160a01b03929092169190911790556100f1565b5f602082840312156100d4575f80fd5b81516001600160a01b03811681146100ea575f80fd5b9392505050565b611358806100fe5f395ff3fe608060405234801561000f575f80fd5b5060043610610085575f3560e01c806374b242ad1161005857806374b242ad14610135578063bdecba911461014a578063d25c92731461016d578063ee74616b14610191575f80fd5b806313007d55146100895780631e6fd402146100b857806351d7b06d146100d95780636d9bf9f2146100fb575b5f80fd5b5f5461009b906001600160a01b031681565b6040516001600160a01b0390911681526020015b60405180910390f35b6100cb6100c6366004610e73565b6101b3565b6040519081526020016100af565b6100ec6100e7366004610e73565b61020f565b6040516100af93929190610f0b565b6100cb610109366004610e73565b81516020818401810180516002825292820194820194909420919093529091525f908152604090205481565b610148610143366004610f2f565b6104d0565b005b61015d610158366004610e73565b61094f565b60405190151581526020016100af565b61018061017b366004610f9e565b6109ab565b6040516100af959493929190611005565b6101a461019f366004610e73565b610b24565b6040516100af93929190611099565b5f6001836040516101c49190611122565b90815260200160405180910390205f8360068111156101e5576101e5610ff1565b60068111156101f6576101f6610ff1565b815260208101919091526040015f205490505b92915050565b60605f805f6001866040516102249190611122565b90815260200160405180910390205f86600681111561024557610245610ff1565b600681111561025657610256610ff1565b81526020019081526020015f2090505f8180549050116102ce5760405162461bcd60e51b815260206004820152602860248201527f446f63756d656e7453746f726167653a20646f63756d656e7420646f6573206e6044820152671bdd08195e1a5cdd60c21b60648201526084015b60405180910390fd5b5f6002876040516102df9190611122565b90815260200160405180910390205f87600681111561030057610300610ff1565b600681111561031157610311610ff1565b81526020019081526020015f205490505f8282815481106103345761033461113d565b905f5260205f2090600502016040518060a00160405290815f8201805461035a90611151565b80601f016020809104026020016040519081016040528092919081815260200182805461038690611151565b80156103d15780601f106103a8576101008083540402835291602001916103d1565b820191905f5260205f20905b8154815290600101906020018083116103b457829003601f168201915b5050509183525050600182015460209091019060ff1660068111156103f8576103f8610ff1565b600681111561040957610409610ff1565b815260200160028201805461041d90611151565b80601f016020809104026020016040519081016040528092919081815260200182805461044990611151565b80156104945780601f1061046b57610100808354040283529160200191610494565b820191905f5260205f20905b81548152906001019060200180831161047757829003601f168201915b5050509183525050600382015460208201526004909101546040918201528101516080820151606090920151909a919950975095505050505050565b5f54604080516367fd7f6160e11b815290516001600160a01b039092169163ac4ab3fb913391849163cffafec29160048083019260209291908290030181865afa158015610520573d5f803e3d5ffd5b505050506040513d601f19601f820116820180604052508101906105449190611189565b6040516001600160e01b031960e085901b1681526001600160a01b0390921660048301526024820152604401602060405180830381865afa15801561058b573d5f803e3d5ffd5b505050506040513d601f19601f820116820180604052508101906105af91906111a0565b6106215760405162461bcd60e51b815260206004820152603b60248201527f446f63756d656e7453746f726167653a2063616c6c657220646f6573206e6f7460448201527f206861766520444f43554d454e545f4d414e414745525f524f4c45000000000060648201526084016102c5565b5f8351116106815760405162461bcd60e51b815260206004820152602760248201527f446f63756d656e7453746f726167653a207573657249642063616e6e6f7420626044820152666520656d70747960c81b60648201526084016102c5565b5f8151116106e25760405162461bcd60e51b815260206004820152602860248201527f446f63756d656e7453746f726167653a20697066734369642063616e6e6f7420604482015267626520656d70747960c01b60648201526084016102c5565b5f6001846040516106f39190611122565b90815260200160405180910390205f84600681111561071457610714610ff1565b600681111561072557610725610ff1565b81526020019081526020015f2090505f808280549050116107475760016107c4565b816002866040516107589190611122565b90815260200160405180910390205f86600681111561077957610779610ff1565b600681111561078a5761078a610ff1565b81526020019081526020015f2054815481106107a8576107a861113d565b905f5260205f2090600502016004015460016107c491906111da565b90505f6040518060a001604052808781526020018660068111156107ea576107ea610ff1565b81526020808201879052426040830152606090910184905284546001810186555f868152919091208251929350839260059092020190819061082c908261123b565b50602082015160018083018054909160ff199091169083600681111561085457610854610ff1565b02179055506040820151600282019061086d908261123b565b50606082015160038201556080909101516004909101558254610892906001906112f7565b6002876040516108a29190611122565b90815260200160405180910390205f8760068111156108c3576108c3610ff1565b60068111156108d4576108d4610ff1565b815260208101919091526040015f20558460068111156108f6576108f6610ff1565b866040516109049190611122565b60405180910390207fc264d5006afef0fbdd979736a7cdefa033c9db8bdbf3ba38a43b980f48b79d8986854260405161093f93929190610f0b565b60405180910390a3505050505050565b5f806001846040516109619190611122565b90815260200160405180910390205f84600681111561098257610982610ff1565b600681111561099357610993610ff1565b815260208101919091526040015f2054119392505050565b82516020818501810180516001825292820182870120929052525f828152604090208054829081106109db575f80fd5b905f5260205f2090600502015f925092505050805f0180546109fc90611151565b80601f0160208091040260200160405190810160405280929190818152602001828054610a2890611151565b8015610a735780601f10610a4a57610100808354040283529160200191610a73565b820191905f5260205f20905b815481529060010190602001808311610a5657829003601f168201915b5050506001840154600285018054949560ff909216949193509150610a9790611151565b80601f0160208091040260200160405190810160405280929190818152602001828054610ac390611151565b8015610b0e5780601f10610ae557610100808354040283529160200191610b0e565b820191905f5260205f20905b815481529060010190602001808311610af157829003601f168201915b5050505050908060030154908060040154905085565b60608060605f600186604051610b3a9190611122565b90815260200160405180910390205f866006811115610b5b57610b5b610ff1565b6006811115610b6c57610b6c610ff1565b815260208101919091526040015f2080549091508067ffffffffffffffff811115610b9957610b99610dc3565b604051908082528060200260200182016040528015610bcc57816020015b6060815260200190600190039081610bb75790505b5094508067ffffffffffffffff811115610be857610be8610dc3565b604051908082528060200260200182016040528015610c11578160200160208202803683370190505b5093508067ffffffffffffffff811115610c2d57610c2d610dc3565b604051908082528060200260200182016040528015610c56578160200160208202803683370190505b5092505f5b81811015610db957828181548110610c7557610c7561113d565b905f5260205f2090600502016002018054610c8f90611151565b80601f0160208091040260200160405190810160405280929190818152602001828054610cbb90611151565b8015610d065780601f10610cdd57610100808354040283529160200191610d06565b820191905f5260205f20905b815481529060010190602001808311610ce957829003601f168201915b5050505050868281518110610d1d57610d1d61113d565b6020026020010181905250828181548110610d3a57610d3a61113d565b905f5260205f20906005020160040154858281518110610d5c57610d5c61113d565b602002602001018181525050828181548110610d7a57610d7a61113d565b905f5260205f20906005020160030154848281518110610d9c57610d9c61113d565b602090810291909101015280610db18161130a565b915050610c5b565b5050509250925092565b634e487b7160e01b5f52604160045260245ffd5b5f82601f830112610de6575f80fd5b813567ffffffffffffffff80821115610e0157610e01610dc3565b604051601f8301601f19908116603f01168101908282118183101715610e2957610e29610dc3565b81604052838152866020858801011115610e41575f80fd5b836020870160208301375f602085830101528094505050505092915050565b803560078110610e6e575f80fd5b919050565b5f8060408385031215610e84575f80fd5b823567ffffffffffffffff811115610e9a575f80fd5b610ea685828601610dd7565b925050610eb560208401610e60565b90509250929050565b5f5b83811015610ed8578181015183820152602001610ec0565b50505f910152565b5f8151808452610ef7816020860160208601610ebe565b601f01601f19169290920160200192915050565b606081525f610f1d6060830186610ee0565b60208301949094525060400152919050565b5f805f60608486031215610f41575f80fd5b833567ffffffffffffffff80821115610f58575f80fd5b610f6487838801610dd7565b9450610f7260208701610e60565b93506040860135915080821115610f87575f80fd5b50610f9486828701610dd7565b9150509250925092565b5f805f60608486031215610fb0575f80fd5b833567ffffffffffffffff811115610fc6575f80fd5b610fd286828701610dd7565b935050610fe160208501610e60565b9150604084013590509250925092565b634e487b7160e01b5f52602160045260245ffd5b60a081525f61101760a0830188610ee0565b6007871061103357634e487b7160e01b5f52602160045260245ffd5b866020840152828103604084015261104b8187610ee0565b60608401959095525050608001529392505050565b5f8151808452602080850194508084015f5b8381101561108e57815187529582019590820190600101611072565b509495945050505050565b5f606082016060835280865180835260808501915060808160051b860101925060208089015f5b838110156110ee57607f198887030185526110dc868351610ee0565b955093820193908201906001016110c0565b5050858403818701525050506111048186611060565b905082810360408401526111188185611060565b9695505050505050565b5f8251611133818460208701610ebe565b9190910192915050565b634e487b7160e01b5f52603260045260245ffd5b600181811c9082168061116557607f821691505b60208210810361118357634e487b7160e01b5f52602260045260245ffd5b50919050565b5f60208284031215611199575f80fd5b5051919050565b5f602082840312156111b0575f80fd5b815180151581146111bf575f80fd5b9392505050565b634e487b7160e01b5f52601160045260245ffd5b80820180821115610209576102096111c6565b601f821115611236575f81815260208120601f850160051c810160208610156112135750805b601f850160051c820191505b818110156112325782815560010161121f565b5050505b505050565b815167ffffffffffffffff81111561125557611255610dc3565b611269816112638454611151565b846111ed565b602080601f83116001811461129c575f84156112855750858301515b5f19600386901b1c1916600185901b178555611232565b5f85815260208120601f198616915b828110156112ca578886015182559484019460019091019084016112ab565b50858210156112e757878501515f19600388901b60f8161c191681555b5050505050600190811b01905550565b81810381811115610209576102096111c6565b5f6001820161131b5761131b6111c6565b506001019056fea2646970667358221220928f4d173d980a532d7934ffba8ceee8f9e6469f02c8748e390767d7028e489364736f6c63430008140033",
  "immutableReferences": {},
  "source": "// SPDX-License-Identifier: MIT\npragma solidity ^0.8.20;\n\nimport \"./AccessControl.sol\";\n\n/**\n * @title DocumentStorage\n * @dev Smart contract for storing IPFS CIDs for documents\n * Links documents to users and tracks document versions\n */\ncontract DocumentStorage {\n    AccessControl public accessControl;\n\n    // Document types\n    enum DocumentType {\n        AVATAR,\n        ID_FRONT,\n        ID_BACK,\n        BUSINESS_REGISTRATION,\n        BIR_CERTIFICATE,\n        LGU_DOCUMENT,\n        OTHER\n    }\n\n    // Struct to store document information\n    struct Document {\n        string userId;\n        DocumentType docType;\n        string ipfsCid;\n        uint256 uploadedAt;\n        uint256 version;\n    }\n\n    // Mapping from userId to documentType to Document array (version history)\n    mapping(string => mapping(DocumentType => Document[])) public documents;\n    \n    // Mapping from userId to documentType to current version index\n    mapping(string => mapping(DocumentType => uint256)) public currentVersionIndex;\n\n    // Events\n    event DocumentStored(\n        string indexed userId,\n        DocumentType indexed docType,\n        string ipfsCid,\n        uint256 version,\n        uint256 timestamp\n    );\n\n    modifier onlyDocumentManager() {\n        require(\n            accessControl.hasRole(msg.sender, accessControl.DOCUMENT_MANAGER_ROLE()),\n            \"DocumentStorage: caller does not have DOCUMENT_MANAGER_ROLE\"\n        );\n        _;\n    }\n\n    constructor(address _accessControlAddress) {\n        require(_accessControlAddress != address(0), \"DocumentStorage: invalid access control address\");\n        accessControl = AccessControl(_accessControlAddress);\n    }\n\n    /**\n     * @dev Store a document CID for a user\n     * @param userId The user identifier\n     * @param docType The document type\n     * @param ipfsCid The IPFS CID of the document\n     */\n    function storeDocument(\n        string memory userId,\n        DocumentType docType,\n        string memory ipfsCid\n    ) public onlyDocumentManager {\n        require(bytes(userId).length > 0, \"DocumentStorage: userId cannot be empty\");\n        require(bytes(ipfsCid).length > 0, \"DocumentStorage: ipfsCid cannot be empty\");\n\n        Document[] storage docHistory = documents[userId][docType];\n        uint256 currentVersion = docHistory.length > 0 \n            ? docHistory[currentVersionIndex[userId][docType]].version + 1 \n            : 1;\n\n        Document memory newDoc = Document({\n            userId: userId,\n            docType: docType,\n            ipfsCid: ipfsCid,\n            uploadedAt: block.timestamp,\n            version: currentVersion\n        });\n\n        docHistory.push(newDoc);\n        currentVersionIndex[userId][docType] = docHistory.length - 1;\n\n        emit DocumentStored(userId, docType, ipfsCid, currentVersion, block.timestamp);\n    }\n\n    /**\n     * @dev Get the current document CID for a user and document type\n     * @param userId The user identifier\n     * @param docType The document type\n     * @return ipfsCid The IPFS CID\n     * @return version The document version\n     * @return uploadedAt Upload timestamp\n     */\n    function getDocumentCid(\n        string memory userId,\n        DocumentType docType\n    ) public view returns (\n        string memory ipfsCid,\n        uint256 version,\n        uint256 uploadedAt\n    ) {\n        Document[] storage docHistory = documents[userId][docType];\n        require(docHistory.length > 0, \"DocumentStorage: document does not exist\");\n\n        uint256 currentIndex = currentVersionIndex[userId][docType];\n        Document memory currentDoc = docHistory[currentIndex];\n        \n        return (currentDoc.ipfsCid, currentDoc.version, currentDoc.uploadedAt);\n    }\n\n    /**\n     * @dev Get document history for a user and document type\n     * @param userId The user identifier\n     * @param docType The document type\n     * @return cids Array of IPFS CIDs (all versions)\n     * @return versions Array of version numbers\n     * @return timestamps Array of upload timestamps\n     */\n    function getDocumentHistory(\n        string memory userId,\n        DocumentType docType\n    ) public view returns (\n        string[] memory cids,\n        uint256[] memory versions,\n        uint256[] memory timestamps\n    ) {\n        Document[] storage docHistory = documents[userId][docType];\n        uint256 length = docHistory.length;\n        \n        cids = new string[](length);\n        versions = new uint256[](length);\n        timestamps = new uint256[](length);\n\n        for (uint256 i = 0; i < length; i++) {\n            cids[i] = docHistory[i].ipfsCid;\n            versions[i] = docHistory[i].version;\n            timestamps[i] = docHistory[i].uploadedAt;\n        }\n\n        return (cids, versions, timestamps);\n    }\n\n    /**\n     * @dev Check if a document exists for a user\n     * @param userId The user identifier\n     * @param docType The document type\n     * @return bool True if document exists\n     */\n    function documentExists(string memory userId, DocumentType docType) public view returns (bool) {\n        return documents[userId][docType].length > 0;\n    }\n\n    /**\n     * @dev Get the number of versions for a document\n     * @param userId The user identifier\n     * @param docType The document type\n     * @return count The number of versions\n     */\n    function getDocumentVersionCount(string memory userId, DocumentType docType) public view returns (uint256) {\n        return documents[userId][docType].length;\n    }\n}\n",
  "sourcePath": "/Users/pendiaz/Documents/my-projects/Capstone/blockchain/contracts/DocumentStorage.sol",
  "compiler": {
    "name": "solc",
    "version": "0.8.20+commit.a1b79de6.Emscripten.clang"
  },
  "schemaVersion": "3.4.16",
  "updatedAt": "2026-01-19T16:20:44.518Z",
  "networkType": "ethereum",
  "devdoc": {
    "details": "Smart contract for storing IPFS CIDs for documents Links documents to users and tracks document versions",
    "kind": "dev",
    "methods": {
      "documentExists(string,uint8)": {
        "details": "Check if a document exists for a user",
        "params": {
          "docType": "The document type",
          "userId": "The user identifier"
        },
        "returns": {
          "_0": "bool True if document exists"
        }
      },
      "getDocumentCid(string,uint8)": {
        "details": "Get the current document CID for a user and document type",
        "params": {
          "docType": "The document type",
          "userId": "The user identifier"
        },
        "returns": {
          "ipfsCid": "The IPFS CID",
          "uploadedAt": "Upload timestamp",
          "version": "The document version"
        }
      },
      "getDocumentHistory(string,uint8)": {
        "details": "Get document history for a user and document type",
        "params": {
          "docType": "The document type",
          "userId": "The user identifier"
        },
        "returns": {
          "cids": "Array of IPFS CIDs (all versions)",
          "timestamps": "Array of upload timestamps",
          "versions": "Array of version numbers"
        }
      },
      "getDocumentVersionCount(string,uint8)": {
        "details": "Get the number of versions for a document",
        "params": {
          "docType": "The document type",
          "userId": "The user identifier"
        },
        "returns": {
          "_0": "count The number of versions"
        }
      },
      "storeDocument(string,uint8,string)": {
        "details": "Store a document CID for a user",
        "params": {
          "docType": "The document type",
          "ipfsCid": "The IPFS CID of the document",
          "userId": "The user identifier"
        }
      }
    },
    "title": "DocumentStorage",
    "version": 1
  },
  "userdoc": {
    "kind": "user",
    "methods": {},
    "version": 1
  }
}