{
  "contractName": "UserRegistry",
  "abi": [
    {
      "inputs": [
        {
          "internalType": "address",
          "name": "_accessControlAddress",
          "type": "address"
        }
      ],
      "stateMutability": "nonpayable",
      "type": "constructor"
    },
    {
      "anonymous": false,
      "inputs": [
        {
          "indexed": true,
          "internalType": "string",
          "name": "userId",
          "type": "string"
        },
        {
          "indexed": false,
          "internalType": "bytes32",
          "name": "oldHash",
          "type": "bytes32"
        },
        {
          "indexed": false,
          "internalType": "bytes32",
          "name": "newHash",
          "type": "bytes32"
        },
        {
          "indexed": false,
          "internalType": "uint256",
          "name": "timestamp",
          "type": "uint256"
        }
      ],
      "name": "ProfileHashUpdated",
      "type": "event"
    },
    {
      "anonymous": false,
      "inputs": [
        {
          "indexed": true,
          "internalType": "string",
          "name": "userId",
          "type": "string"
        },
        {
          "indexed": true,
          "internalType": "address",
          "name": "userAddress",
          "type": "address"
        },
        {
          "indexed": false,
          "internalType": "bytes32",
          "name": "profileHash",
          "type": "bytes32"
        },
        {
          "indexed": false,
          "internalType": "uint256",
          "name": "timestamp",
          "type": "uint256"
        }
      ],
      "name": "UserRegistered",
      "type": "event"
    },
    {
      "inputs": [],
      "name": "accessControl",
      "outputs": [
        {
          "internalType": "contract AccessControl",
          "name": "",
          "type": "address"
        }
      ],
      "stateMutability": "view",
      "type": "function"
    },
    {
      "inputs": [
        {
          "internalType": "address",
          "name": "",
          "type": "address"
        }
      ],
      "name": "addressToUserId",
      "outputs": [
        {
          "internalType": "string",
          "name": "",
          "type": "string"
        }
      ],
      "stateMutability": "view",
      "type": "function"
    },
    {
      "inputs": [
        {
          "internalType": "uint256",
          "name": "",
          "type": "uint256"
        }
      ],
      "name": "registeredUserIds",
      "outputs": [
        {
          "internalType": "string",
          "name": "",
          "type": "string"
        }
      ],
      "stateMutability": "view",
      "type": "function"
    },
    {
      "inputs": [
        {
          "internalType": "string",
          "name": "",
          "type": "string"
        }
      ],
      "name": "users",
      "outputs": [
        {
          "internalType": "string",
          "name": "userId",
          "type": "string"
        },
        {
          "internalType": "address",
          "name": "userAddress",
          "type": "address"
        },
        {
          "internalType": "bytes32",
          "name": "profileHash",
          "type": "bytes32"
        },
        {
          "internalType": "uint256",
          "name": "registeredAt",
          "type": "uint256"
        },
        {
          "internalType": "uint256",
          "name": "lastUpdatedAt",
          "type": "uint256"
        }
      ],
      "stateMutability": "view",
      "type": "function"
    },
    {
      "inputs": [
        {
          "internalType": "string",
          "name": "userId",
          "type": "string"
        },
        {
          "internalType": "address",
          "name": "userAddress",
          "type": "address"
        },
        {
          "internalType": "bytes32",
          "name": "profileHash",
          "type": "bytes32"
        }
      ],
      "name": "registerUser",
      "outputs": [],
      "stateMutability": "nonpayable",
      "type": "function"
    },
    {
      "inputs": [
        {
          "internalType": "string",
          "name": "userId",
          "type": "string"
        },
        {
          "internalType": "bytes32",
          "name": "newProfileHash",
          "type": "bytes32"
        }
      ],
      "name": "updateProfileHash",
      "outputs": [],
      "stateMutability": "nonpayable",
      "type": "function"
    },
    {
      "inputs": [
        {
          "internalType": "string",
          "name": "userId",
          "type": "string"
        }
      ],
      "name": "getUserProfileHash",
      "outputs": [
        {
          "internalType": "address",
          "name": "userAddress",
          "type": "address"
        },
        {
          "internalType": "bytes32",
          "name": "profileHash",
          "type": "bytes32"
        },
        {
          "internalType": "uint256",
          "name": "registeredAt",
          "type": "uint256"
        },
        {
          "internalType": "uint256",
          "name": "lastUpdatedAt",
          "type": "uint256"
        }
      ],
      "stateMutability": "view",
      "type": "function"
    },
    {
      "inputs": [
        {
          "internalType": "address",
          "name": "userAddress",
          "type": "address"
        }
      ],
      "name": "getUserIdByAddress",
      "outputs": [
        {
          "internalType": "string",
          "name": "",
          "type": "string"
        }
      ],
      "stateMutability": "view",
      "type": "function"
    },
    {
      "inputs": [
        {
          "internalType": "string",
          "name": "userId",
          "type": "string"
        }
      ],
      "name": "userExists",
      "outputs": [
        {
          "internalType": "bool",
          "name": "",
          "type": "bool"
        }
      ],
      "stateMutability": "view",
      "type": "function"
    },
    {
      "inputs": [],
      "name": "getTotalUserCount",
      "outputs": [
        {
          "internalType": "uint256",
          "name": "",
          "type": "uint256"
        }
      ],
      "stateMutability": "view",
      "type": "function"
    }
  ],
  "bytecode": "0x608060405234801561000f575f80fd5b5060405161136f38038061136f83398101604081905261002e916100c1565b6001600160a01b03811661009d5760405162461bcd60e51b815260206004820152602c60248201527f5573657252656769737472793a20696e76616c69642061636365737320636f6e60448201526b74726f6c206164647265737360a01b606482015260840160405180910390fd5b5f80546001600160a01b0319166001600160a01b03929092169190911790556100ee565b5f602082840312156100d1575f80fd5b81516001600160a01b03811681146100e7575f80fd5b9392505050565b611274806100fb5f395ff3fe608060405234801561000f575f80fd5b506004361061009b575f3560e01c80638cff2c2e116100635780638cff2c2e1461013a578063b5ffbbcc1461014d578063d38aac9214610160578063fb83fd3c14610171578063fddc968e146101ae575f80fd5b806313007d551461009f578063382ba706146100ce578063385399f9146100e357806339ab360314610103578063689e1c0314610116575b5f80fd5b5f546100b1906001600160a01b031681565b6040516001600160a01b0390911681526020015b60405180910390f35b6100e16100dc366004610dc9565b6101d1565b005b6100f66100f1366004610e26565b610426565b6040516100c59190610e93565b6100f6610111366004610ea5565b6104cf565b610129610124366004610ebc565b610575565b6040516100c5959493929190610ef6565b6100e1610148366004610f35565b61063f565b6100f661015b366004610e26565b610b65565b6003546040519081526020016100c5565b61018461017f366004610ebc565b610b7d565b604080516001600160a01b03909516855260208501939093529183015260608201526080016100c5565b6101c16101bc366004610ebc565b610cf6565b60405190151581526020016100c5565b5f54604080516333137fe560e11b815290516001600160a01b039092169163ac4ab3fb9133918491636626ffca9160048083019260209291908290030181865afa158015610221573d5f803e3d5ffd5b505050506040513d601f19601f820116820180604052508101906102459190610f88565b6040516001600160e01b031960e085901b1681526001600160a01b0390921660048301526024820152604401602060405180830381865afa15801561028c573d5f803e3d5ffd5b505050506040513d601f19601f820116820180604052508101906102b09190610f9f565b6102d55760405162461bcd60e51b81526004016102cc90610fbe565b60405180910390fd5b5f8251116102f55760405162461bcd60e51b81526004016102cc90611014565b5f6001836040516103069190611058565b908152604051908190036020019020805461032090611073565b90501161033f5760405162461bcd60e51b81526004016102cc906110ab565b8061035c5760405162461bcd60e51b81526004016102cc906110ec565b5f60018360405161036d9190611058565b9081526020016040518091039020600201549050816001846040516103929190611058565b908152602001604051809103902060020181905550426001846040516103b89190611058565b908152604051908190036020018120600401919091556103d9908490611058565b60408051918290038220838352602083018590524283830152905190917f1d56d93abf35145f34260ac1c83fd3310d7a9be74b2eb6f682faceb64c1d2bd5919081900360600190a2505050565b6001600160a01b0381165f90815260026020526040902080546060919061044c90611073565b80601f016020809104026020016040519081016040528092919081815260200182805461047890611073565b80156104c35780601f1061049a576101008083540402835291602001916104c3565b820191905f5260205f20905b8154815290600101906020018083116104a657829003601f168201915b50505050509050919050565b600381815481106104de575f80fd5b905f5260205f20015f9150905080546104f690611073565b80601f016020809104026020016040519081016040528092919081815260200182805461052290611073565b801561056d5780601f106105445761010080835404028352916020019161056d565b820191905f5260205f20905b81548152906001019060200180831161055057829003601f168201915b505050505081565b805160208183018101805160018252928201919093012091528054819061059b90611073565b80601f01602080910402602001604051908101604052809291908181526020018280546105c790611073565b80156106125780601f106105e957610100808354040283529160200191610612565b820191905f5260205f20905b8154815290600101906020018083116105f557829003601f168201915b5050505060018301546002840154600385015460049095015493946001600160a01b039092169390925085565b5f54604080516333137fe560e11b815290516001600160a01b039092169163ac4ab3fb9133918491636626ffca9160048083019260209291908290030181865afa15801561068f573d5f803e3d5ffd5b505050506040513d601f19601f820116820180604052508101906106b39190610f88565b6040516001600160e01b031960e085901b1681526001600160a01b0390921660048301526024820152604401602060405180830381865afa1580156106fa573d5f803e3d5ffd5b505050506040513d601f19601f8201168201806040525081019061071e9190610f9f565b61073a5760405162461bcd60e51b81526004016102cc90610fbe565b5f83511161075a5760405162461bcd60e51b81526004016102cc90611014565b6001600160a01b0382166107c15760405162461bcd60e51b815260206004820152602860248201527f5573657252656769737472793a2075736572416464726573732063616e6e6f74604482015267206265207a65726f60c01b60648201526084016102cc565b806107de5760405162461bcd60e51b81526004016102cc906110ec565b5f6001846040516107ef9190611058565b908152604051908190036020019020805461080990611073565b15915050801561096b576040518060a00160405280858152602001846001600160a01b03168152602001838152602001428152602001428152506001856040516108539190611058565b908152604051908190036020019020815181906108709082611182565b506020828101516001830180546001600160a01b0319166001600160a01b039283161790556040808501516002808601919091556060860151600386015560809095015160049094019390935586165f90815292905290206108d28582611182565b50600380546001810182555f919091527fc2575a0e9e593c00f959f8c92f12db2869c3395a3b0502d05e2516446f71f85b0161090e8582611182565b50826001600160a01b0316846040516109279190611058565b60408051918290038220858352426020840152917f1043384e988ee675889ca35c132bb4d1fb186eec4ff0b53027129d9ebb98730a910160405180910390a3610b5f565b5f60018560405161097c9190611058565b9081526020016040518091039020600201549050836001866040516109a19190611058565b90815260200160405180910390206001015f6101000a8154816001600160a01b0302191690836001600160a01b03160217905550826001866040516109e69190611058565b90815260200160405180910390206002018190555042600186604051610a0c9190611058565b9081526020016040518091039020600401819055505f60025f866001600160a01b03166001600160a01b031681526020019081526020015f208054610a5090611073565b80601f0160208091040260200160405190810160405280929190818152602001828054610a7c90611073565b8015610ac75780601f10610a9e57610100808354040283529160200191610ac7565b820191905f5260205f20905b815481529060010190602001808311610aaa57829003601f168201915b505050505090508580519060200120818051906020012014610b06576001600160a01b0385165f908152600260205260409020610b048782611182565b505b85604051610b149190611058565b60408051918290038220848352602083018790524283830152905190917f1d56d93abf35145f34260ac1c83fd3310d7a9be74b2eb6f682faceb64c1d2bd5919081900360600190a250505b50505050565b60026020525f9081526040902080546104f690611073565b5f805f805f600186604051610b929190611058565b9081526040519081900360200190208054610bac90611073565b905011610bcb5760405162461bcd60e51b81526004016102cc906110ab565b5f600186604051610bdc9190611058565b90815260200160405180910390206040518060a00160405290815f82018054610c0490611073565b80601f0160208091040260200160405190810160405280929190818152602001828054610c3090611073565b8015610c7b5780601f10610c5257610100808354040283529160200191610c7b565b820191905f5260205f20905b815481529060010190602001808311610c5e57829003601f168201915b50505050508152602001600182015f9054906101000a90046001600160a01b03166001600160a01b03166001600160a01b031681526020016002820154815260200160038201548152602001600482015481525050905080602001518160400151826060015183608001519450945094509450509193509193565b5f80600183604051610d089190611058565b9081526040519081900360200190208054610d2290611073565b9050119050919050565b634e487b7160e01b5f52604160045260245ffd5b5f82601f830112610d4f575f80fd5b813567ffffffffffffffff80821115610d6a57610d6a610d2c565b604051601f8301601f19908116603f01168101908282118183101715610d9257610d92610d2c565b81604052838152866020858801011115610daa575f80fd5b836020870160208301375f602085830101528094505050505092915050565b5f8060408385031215610dda575f80fd5b823567ffffffffffffffff811115610df0575f80fd5b610dfc85828601610d40565b95602094909401359450505050565b80356001600160a01b0381168114610e21575f80fd5b919050565b5f60208284031215610e36575f80fd5b610e3f82610e0b565b9392505050565b5f5b83811015610e60578181015183820152602001610e48565b50505f910152565b5f8151808452610e7f816020860160208601610e46565b601f01601f19169290920160200192915050565b602081525f610e3f6020830184610e68565b5f60208284031215610eb5575f80fd5b5035919050565b5f60208284031215610ecc575f80fd5b813567ffffffffffffffff811115610ee2575f80fd5b610eee84828501610d40565b949350505050565b60a081525f610f0860a0830188610e68565b6001600160a01b039690961660208301525060408101939093526060830191909152608090910152919050565b5f805f60608486031215610f47575f80fd5b833567ffffffffffffffff811115610f5d575f80fd5b610f6986828701610d40565b935050610f7860208501610e0b565b9150604084013590509250925092565b5f60208284031215610f98575f80fd5b5051919050565b5f60208284031215610faf575f80fd5b81518015158114610e3f575f80fd5b60208082526036908201527f5573657252656769737472793a2063616c6c657220646f6573206e6f74206861604082015275766520555345525f5245474953545241525f524f4c4560501b606082015260800190565b60208082526024908201527f5573657252656769737472793a207573657249642063616e6e6f7420626520656040820152636d70747960e01b606082015260800190565b5f8251611069818460208701610e46565b9190910192915050565b600181811c9082168061108757607f821691505b6020821081036110a557634e487b7160e01b5f52602260045260245ffd5b50919050565b60208082526021908201527f5573657252656769737472793a207573657220646f6573206e6f7420657869736040820152601d60fa1b606082015260800190565b60208082526028908201527f5573657252656769737472793a2070726f66696c65486173682063616e6e6f74604082015267206265207a65726f60c01b606082015260800190565b601f82111561117d575f81815260208120601f850160051c8101602086101561115a5750805b601f850160051c820191505b8181101561117957828155600101611166565b5050505b505050565b815167ffffffffffffffff81111561119c5761119c610d2c565b6111b0816111aa8454611073565b84611134565b602080601f8311600181146111e3575f84156111cc5750858301515b5f19600386901b1c1916600185901b178555611179565b5f85815260208120601f198616915b82811015611211578886015182559484019460019091019084016111f2565b508582101561122e57878501515f19600388901b60f8161c191681555b5050505050600190811b0190555056fea26469706673582212202171e1178ce8d9909394414dd6a3df575ccb062a30d56f15418c93c187d63dba64736f6c63430008140033",
  "immutableReferences": {},
  "source": "// SPDX-License-Identifier: MIT\npragma solidity ^0.8.20;\n\nimport \"./AccessControl.sol\";\n\n/**\n * @title UserRegistry\n * @dev Smart contract for storing user identity and profile data hashes\n * Links user IDs to Ethereum addresses and stores profile hashes\n */\ncontract UserRegistry {\n    AccessControl public accessControl;\n\n    // Struct to store user information\n    struct UserInfo {\n        string userId;\n        address userAddress;\n        bytes32 profileHash;\n        uint256 registeredAt;\n        uint256 lastUpdatedAt;\n    }\n\n    // Mapping from userId to UserInfo\n    mapping(string => UserInfo) public users;\n    \n    // Mapping from address to userId (for reverse lookup)\n    mapping(address => string) public addressToUserId;\n    \n    // Array to track all registered user IDs\n    string[] public registeredUserIds;\n\n    // Events\n    event UserRegistered(\n        string indexed userId,\n        address indexed userAddress,\n        bytes32 profileHash,\n        uint256 timestamp\n    );\n\n    event ProfileHashUpdated(\n        string indexed userId,\n        bytes32 oldHash,\n        bytes32 newHash,\n        uint256 timestamp\n    );\n\n    modifier onlyUserRegistrar() {\n        require(\n            accessControl.hasRole(msg.sender, accessControl.USER_REGISTRAR_ROLE()),\n            \"UserRegistry: caller does not have USER_REGISTRAR_ROLE\"\n        );\n        _;\n    }\n\n    constructor(address _accessControlAddress) {\n        require(_accessControlAddress != address(0), \"UserRegistry: invalid access control address\");\n        accessControl = AccessControl(_accessControlAddress);\n    }\n\n    /**\n     * @dev Register a new user or update existing user\n     * @param userId The unique user identifier\n     * @param userAddress The Ethereum address associated with the user\n     * @param profileHash The SHA256 hash of the user's profile data\n     */\n    function registerUser(\n        string memory userId,\n        address userAddress,\n        bytes32 profileHash\n    ) public onlyUserRegistrar {\n        require(bytes(userId).length > 0, \"UserRegistry: userId cannot be empty\");\n        require(userAddress != address(0), \"UserRegistry: userAddress cannot be zero\");\n        require(profileHash != bytes32(0), \"UserRegistry: profileHash cannot be zero\");\n\n        bool isNewUser = bytes(users[userId].userId).length == 0;\n\n        if (isNewUser) {\n            // New user registration\n            users[userId] = UserInfo({\n                userId: userId,\n                userAddress: userAddress,\n                profileHash: profileHash,\n                registeredAt: block.timestamp,\n                lastUpdatedAt: block.timestamp\n            });\n            \n            addressToUserId[userAddress] = userId;\n            registeredUserIds.push(userId);\n            \n            emit UserRegistered(userId, userAddress, profileHash, block.timestamp);\n        } else {\n            // Update existing user\n            bytes32 oldHash = users[userId].profileHash;\n            users[userId].userAddress = userAddress;\n            users[userId].profileHash = profileHash;\n            users[userId].lastUpdatedAt = block.timestamp;\n            \n            // Update address mapping if different\n            string memory currentUserId = addressToUserId[userAddress];\n            if (keccak256(bytes(currentUserId)) != keccak256(bytes(userId))) {\n                addressToUserId[userAddress] = userId;\n            }\n            \n            emit ProfileHashUpdated(userId, oldHash, profileHash, block.timestamp);\n        }\n    }\n\n    /**\n     * @dev Update profile hash for an existing user\n     * @param userId The user identifier\n     * @param newProfileHash The new profile hash\n     */\n    function updateProfileHash(string memory userId, bytes32 newProfileHash) public onlyUserRegistrar {\n        require(bytes(userId).length > 0, \"UserRegistry: userId cannot be empty\");\n        require(bytes(users[userId].userId).length > 0, \"UserRegistry: user does not exist\");\n        require(newProfileHash != bytes32(0), \"UserRegistry: profileHash cannot be zero\");\n\n        bytes32 oldHash = users[userId].profileHash;\n        users[userId].profileHash = newProfileHash;\n        users[userId].lastUpdatedAt = block.timestamp;\n\n        emit ProfileHashUpdated(userId, oldHash, newProfileHash, block.timestamp);\n    }\n\n    /**\n     * @dev Get user information by userId\n     * @param userId The user identifier\n     * @return userAddress The Ethereum address\n     * @return profileHash The profile hash\n     * @return registeredAt Registration timestamp\n     * @return lastUpdatedAt Last update timestamp\n     */\n    function getUserProfileHash(string memory userId) public view returns (\n        address userAddress,\n        bytes32 profileHash,\n        uint256 registeredAt,\n        uint256 lastUpdatedAt\n    ) {\n        require(bytes(users[userId].userId).length > 0, \"UserRegistry: user does not exist\");\n        \n        UserInfo memory user = users[userId];\n        return (\n            user.userAddress,\n            user.profileHash,\n            user.registeredAt,\n            user.lastUpdatedAt\n        );\n    }\n\n    /**\n     * @dev Get userId by Ethereum address\n     * @param userAddress The Ethereum address\n     * @return userId The user identifier\n     */\n    function getUserIdByAddress(address userAddress) public view returns (string memory) {\n        return addressToUserId[userAddress];\n    }\n\n    /**\n     * @dev Check if a user exists\n     * @param userId The user identifier\n     * @return bool True if user exists\n     */\n    function userExists(string memory userId) public view returns (bool) {\n        return bytes(users[userId].userId).length > 0;\n    }\n\n    /**\n     * @dev Get total number of registered users\n     * @return count The total count\n     */\n    function getTotalUserCount() public view returns (uint256) {\n        return registeredUserIds.length;\n    }\n}\n",
  "sourcePath": "/Users/pendiaz/Documents/my-projects/Capstone/blockchain/contracts/UserRegistry.sol",
  "compiler": {
    "name": "solc",
    "version": "0.8.20+commit.a1b79de6.Emscripten.clang"
  },
  "schemaVersion": "3.4.16",
  "updatedAt": "2026-01-19T11:22:49.069Z",
  "devdoc": {
    "details": "Smart contract for storing user identity and profile data hashes Links user IDs to Ethereum addresses and stores profile hashes",
    "kind": "dev",
    "methods": {
      "getTotalUserCount()": {
        "details": "Get total number of registered users",
        "returns": {
          "_0": "count The total count"
        }
      },
      "getUserIdByAddress(address)": {
        "details": "Get userId by Ethereum address",
        "params": {
          "userAddress": "The Ethereum address"
        },
        "returns": {
          "_0": "userId The user identifier"
        }
      },
      "getUserProfileHash(string)": {
        "details": "Get user information by userId",
        "params": {
          "userId": "The user identifier"
        },
        "returns": {
          "lastUpdatedAt": "Last update timestamp",
          "profileHash": "The profile hash",
          "registeredAt": "Registration timestamp",
          "userAddress": "The Ethereum address"
        }
      },
      "registerUser(string,address,bytes32)": {
        "details": "Register a new user or update existing user",
        "params": {
          "profileHash": "The SHA256 hash of the user's profile data",
          "userAddress": "The Ethereum address associated with the user",
          "userId": "The unique user identifier"
        }
      },
      "updateProfileHash(string,bytes32)": {
        "details": "Update profile hash for an existing user",
        "params": {
          "newProfileHash": "The new profile hash",
          "userId": "The user identifier"
        }
      },
      "userExists(string)": {
        "details": "Check if a user exists",
        "params": {
          "userId": "The user identifier"
        },
        "returns": {
          "_0": "bool True if user exists"
        }
      }
    },
    "title": "UserRegistry",
    "version": 1
  },
  "userdoc": {
    "kind": "user",
    "methods": {},
    "version": 1
  }
}