{
  "contractName": "UserRegistry",
  "abi": [
    {
      "inputs": [
        {
          "internalType": "address",
          "name": "_accessControlAddress",
          "type": "address"
        }
      ],
      "stateMutability": "nonpayable",
      "type": "constructor"
    },
    {
      "anonymous": false,
      "inputs": [
        {
          "indexed": true,
          "internalType": "string",
          "name": "userId",
          "type": "string"
        },
        {
          "indexed": false,
          "internalType": "bytes32",
          "name": "oldHash",
          "type": "bytes32"
        },
        {
          "indexed": false,
          "internalType": "bytes32",
          "name": "newHash",
          "type": "bytes32"
        },
        {
          "indexed": false,
          "internalType": "uint256",
          "name": "timestamp",
          "type": "uint256"
        }
      ],
      "name": "ProfileHashUpdated",
      "type": "event"
    },
    {
      "anonymous": false,
      "inputs": [
        {
          "indexed": true,
          "internalType": "string",
          "name": "userId",
          "type": "string"
        },
        {
          "indexed": true,
          "internalType": "address",
          "name": "userAddress",
          "type": "address"
        },
        {
          "indexed": false,
          "internalType": "bytes32",
          "name": "profileHash",
          "type": "bytes32"
        },
        {
          "indexed": false,
          "internalType": "uint256",
          "name": "timestamp",
          "type": "uint256"
        }
      ],
      "name": "UserRegistered",
      "type": "event"
    },
    {
      "inputs": [],
      "name": "accessControl",
      "outputs": [
        {
          "internalType": "contract AccessControl",
          "name": "",
          "type": "address"
        }
      ],
      "stateMutability": "view",
      "type": "function",
      "constant": true
    },
    {
      "inputs": [
        {
          "internalType": "address",
          "name": "",
          "type": "address"
        }
      ],
      "name": "addressToUserId",
      "outputs": [
        {
          "internalType": "string",
          "name": "",
          "type": "string"
        }
      ],
      "stateMutability": "view",
      "type": "function",
      "constant": true
    },
    {
      "inputs": [
        {
          "internalType": "uint256",
          "name": "",
          "type": "uint256"
        }
      ],
      "name": "registeredUserIds",
      "outputs": [
        {
          "internalType": "string",
          "name": "",
          "type": "string"
        }
      ],
      "stateMutability": "view",
      "type": "function",
      "constant": true
    },
    {
      "inputs": [
        {
          "internalType": "string",
          "name": "",
          "type": "string"
        }
      ],
      "name": "users",
      "outputs": [
        {
          "internalType": "string",
          "name": "userId",
          "type": "string"
        },
        {
          "internalType": "address",
          "name": "userAddress",
          "type": "address"
        },
        {
          "internalType": "bytes32",
          "name": "profileHash",
          "type": "bytes32"
        },
        {
          "internalType": "uint256",
          "name": "registeredAt",
          "type": "uint256"
        },
        {
          "internalType": "uint256",
          "name": "lastUpdatedAt",
          "type": "uint256"
        }
      ],
      "stateMutability": "view",
      "type": "function",
      "constant": true
    },
    {
      "inputs": [
        {
          "internalType": "string",
          "name": "userId",
          "type": "string"
        },
        {
          "internalType": "address",
          "name": "userAddress",
          "type": "address"
        },
        {
          "internalType": "bytes32",
          "name": "profileHash",
          "type": "bytes32"
        }
      ],
      "name": "registerUser",
      "outputs": [],
      "stateMutability": "nonpayable",
      "type": "function"
    },
    {
      "inputs": [
        {
          "internalType": "string",
          "name": "userId",
          "type": "string"
        },
        {
          "internalType": "bytes32",
          "name": "newProfileHash",
          "type": "bytes32"
        }
      ],
      "name": "updateProfileHash",
      "outputs": [],
      "stateMutability": "nonpayable",
      "type": "function"
    },
    {
      "inputs": [
        {
          "internalType": "string",
          "name": "userId",
          "type": "string"
        }
      ],
      "name": "getUserProfileHash",
      "outputs": [
        {
          "internalType": "address",
          "name": "userAddress",
          "type": "address"
        },
        {
          "internalType": "bytes32",
          "name": "profileHash",
          "type": "bytes32"
        },
        {
          "internalType": "uint256",
          "name": "registeredAt",
          "type": "uint256"
        },
        {
          "internalType": "uint256",
          "name": "lastUpdatedAt",
          "type": "uint256"
        }
      ],
      "stateMutability": "view",
      "type": "function",
      "constant": true
    },
    {
      "inputs": [
        {
          "internalType": "address",
          "name": "userAddress",
          "type": "address"
        }
      ],
      "name": "getUserIdByAddress",
      "outputs": [
        {
          "internalType": "string",
          "name": "",
          "type": "string"
        }
      ],
      "stateMutability": "view",
      "type": "function",
      "constant": true
    },
    {
      "inputs": [
        {
          "internalType": "string",
          "name": "userId",
          "type": "string"
        }
      ],
      "name": "userExists",
      "outputs": [
        {
          "internalType": "bool",
          "name": "",
          "type": "bool"
        }
      ],
      "stateMutability": "view",
      "type": "function",
      "constant": true
    },
    {
      "inputs": [],
      "name": "getTotalUserCount",
      "outputs": [
        {
          "internalType": "uint256",
          "name": "",
          "type": "uint256"
        }
      ],
      "stateMutability": "view",
      "type": "function",
      "constant": true
    }
  ],
  "bytecode": "0x608060405234801561001057600080fd5b506040516113d03803806113d083398101604081905261002f916100c3565b6001600160a01b03811661009e5760405162461bcd60e51b815260206004820152602c60248201527f5573657252656769737472793a20696e76616c69642061636365737320636f6e60448201526b74726f6c206164647265737360a01b606482015260840160405180910390fd5b600080546001600160a01b0319166001600160a01b03929092169190911790556100f3565b6000602082840312156100d557600080fd5b81516001600160a01b03811681146100ec57600080fd5b9392505050565b6112ce806101026000396000f3fe608060405234801561001057600080fd5b506004361061009e5760003560e01c80638cff2c2e116100665780638cff2c2e1461013f578063b5ffbbcc14610152578063d38aac9214610165578063fb83fd3c14610176578063fddc968e146101b357600080fd5b806313007d55146100a3578063382ba706146100d3578063385399f9146100e857806339ab360314610108578063689e1c031461011b575b600080fd5b6000546100b6906001600160a01b031681565b6040516001600160a01b0390911681526020015b60405180910390f35b6100e66100e1366004610e02565b6101d6565b005b6100fb6100f6366004610e63565b610433565b6040516100ca9190610ed5565b6100fb610116366004610ee8565b6104df565b61012e610129366004610f01565b61058b565b6040516100ca959493929190610f3e565b6100e661014d366004610f7e565b610657565b6100fb610160366004610e63565b610b8e565b6003546040519081526020016100ca565b610189610184366004610f01565b610ba7565b604080516001600160a01b03909516855260208501939093529183015260608201526080016100ca565b6101c66101c1366004610f01565b610d28565b60405190151581526020016100ca565b600054604080516333137fe560e11b815290516001600160a01b039092169163ac4ab3fb9133918491636626ffca9160048083019260209291908290030181865afa158015610229573d6000803e3d6000fd5b505050506040513d601f19601f8201168201806040525081019061024d9190610fd5565b6040516001600160e01b031960e085901b1681526001600160a01b0390921660048301526024820152604401602060405180830381865afa158015610296573d6000803e3d6000fd5b505050506040513d601f19601f820116820180604052508101906102ba9190610fee565b6102df5760405162461bcd60e51b81526004016102d690611010565b60405180910390fd5b60008251116103005760405162461bcd60e51b81526004016102d690611066565b600060018360405161031291906110aa565b908152604051908190036020019020805461032c906110c6565b90501161034b5760405162461bcd60e51b81526004016102d690611100565b806103685760405162461bcd60e51b81526004016102d690611141565b600060018360405161037a91906110aa565b90815260200160405180910390206002015490508160018460405161039f91906110aa565b908152602001604051809103902060020181905550426001846040516103c591906110aa565b908152604051908190036020018120600401919091556103e69084906110aa565b60408051918290038220838352602083018590524283830152905190917f1d56d93abf35145f34260ac1c83fd3310d7a9be74b2eb6f682faceb64c1d2bd5919081900360600190a2505050565b6001600160a01b038116600090815260026020526040902080546060919061045a906110c6565b80601f0160208091040260200160405190810160405280929190818152602001828054610486906110c6565b80156104d35780601f106104a8576101008083540402835291602001916104d3565b820191906000526020600020905b8154815290600101906020018083116104b657829003601f168201915b50505050509050919050565b600381815481106104ef57600080fd5b90600052602060002001600091509050805461050a906110c6565b80601f0160208091040260200160405190810160405280929190818152602001828054610536906110c6565b80156105835780601f1061055857610100808354040283529160200191610583565b820191906000526020600020905b81548152906001019060200180831161056657829003601f168201915b505050505081565b80516020818301810180516001825292820191909301209152805481906105b1906110c6565b80601f01602080910402602001604051908101604052809291908181526020018280546105dd906110c6565b801561062a5780601f106105ff5761010080835404028352916020019161062a565b820191906000526020600020905b81548152906001019060200180831161060d57829003601f168201915b5050505060018301546002840154600385015460049095015493946001600160a01b039092169390925085565b600054604080516333137fe560e11b815290516001600160a01b039092169163ac4ab3fb9133918491636626ffca9160048083019260209291908290030181865afa1580156106aa573d6000803e3d6000fd5b505050506040513d601f19601f820116820180604052508101906106ce9190610fd5565b6040516001600160e01b031960e085901b1681526001600160a01b0390921660048301526024820152604401602060405180830381865afa158015610717573d6000803e3d6000fd5b505050506040513d601f19601f8201168201806040525081019061073b9190610fee565b6107575760405162461bcd60e51b81526004016102d690611010565b60008351116107785760405162461bcd60e51b81526004016102d690611066565b6001600160a01b0382166107df5760405162461bcd60e51b815260206004820152602860248201527f5573657252656769737472793a2075736572416464726573732063616e6e6f74604482015267206265207a65726f60c01b60648201526084016102d6565b806107fc5760405162461bcd60e51b81526004016102d690611141565b600060018460405161080e91906110aa565b9081526040519081900360200190208054610828906110c6565b15915050801561098c576040518060a00160405280858152602001846001600160a01b031681526020018381526020014281526020014281525060018560405161087291906110aa565b9081526040519081900360200190208151819061088f90826111d8565b506020828101516001830180546001600160a01b0319166001600160a01b03928316179055604080850151600280860191909155606086015160038601556080909501516004909401939093558616600090815292905290206108f285826111d8565b50600380546001810182556000919091527fc2575a0e9e593c00f959f8c92f12db2869c3395a3b0502d05e2516446f71f85b0161092f85826111d8565b50826001600160a01b03168460405161094891906110aa565b60408051918290038220858352426020840152917f1043384e988ee675889ca35c132bb4d1fb186eec4ff0b53027129d9ebb98730a910160405180910390a3610b88565b600060018560405161099e91906110aa565b9081526020016040518091039020600201549050836001866040516109c391906110aa565b908152602001604051809103902060010160006101000a8154816001600160a01b0302191690836001600160a01b0316021790555082600186604051610a0991906110aa565b90815260200160405180910390206002018190555042600186604051610a2f91906110aa565b908152602001604051809103902060040181905550600060026000866001600160a01b03166001600160a01b031681526020019081526020016000208054610a76906110c6565b80601f0160208091040260200160405190810160405280929190818152602001828054610aa2906110c6565b8015610aef5780601f10610ac457610100808354040283529160200191610aef565b820191906000526020600020905b815481529060010190602001808311610ad257829003601f168201915b505050505090508580519060200120818051906020012014610b2f576001600160a01b0385166000908152600260205260409020610b2d87826111d8565b505b85604051610b3d91906110aa565b60408051918290038220848352602083018790524283830152905190917f1d56d93abf35145f34260ac1c83fd3310d7a9be74b2eb6f682faceb64c1d2bd5919081900360600190a250505b50505050565b6002602052600090815260409020805461050a906110c6565b6000806000806000600186604051610bbf91906110aa565b9081526040519081900360200190208054610bd9906110c6565b905011610bf85760405162461bcd60e51b81526004016102d690611100565b6000600186604051610c0a91906110aa565b90815260200160405180910390206040518060a0016040529081600082018054610c33906110c6565b80601f0160208091040260200160405190810160405280929190818152602001828054610c5f906110c6565b8015610cac5780601f10610c8157610100808354040283529160200191610cac565b820191906000526020600020905b815481529060010190602001808311610c8f57829003601f168201915b505050505081526020016001820160009054906101000a90046001600160a01b03166001600160a01b03166001600160a01b031681526020016002820154815260200160038201548152602001600482015481525050905080602001518160400151826060015183608001519450945094509450509193509193565b600080600183604051610d3b91906110aa565b9081526040519081900360200190208054610d55906110c6565b9050119050919050565b634e487b7160e01b600052604160045260246000fd5b600082601f830112610d8657600080fd5b813567ffffffffffffffff80821115610da157610da1610d5f565b604051601f8301601f19908116603f01168101908282118183101715610dc957610dc9610d5f565b81604052838152866020858801011115610de257600080fd5b836020870160208301376000602085830101528094505050505092915050565b60008060408385031215610e1557600080fd5b823567ffffffffffffffff811115610e2c57600080fd5b610e3885828601610d75565b95602094909401359450505050565b80356001600160a01b0381168114610e5e57600080fd5b919050565b600060208284031215610e7557600080fd5b610e7e82610e47565b9392505050565b60005b83811015610ea0578181015183820152602001610e88565b50506000910152565b60008151808452610ec1816020860160208601610e85565b601f01601f19169290920160200192915050565b602081526000610e7e6020830184610ea9565b600060208284031215610efa57600080fd5b5035919050565b600060208284031215610f1357600080fd5b813567ffffffffffffffff811115610f2a57600080fd5b610f3684828501610d75565b949350505050565b60a081526000610f5160a0830188610ea9565b6001600160a01b039690961660208301525060408101939093526060830191909152608090910152919050565b600080600060608486031215610f9357600080fd5b833567ffffffffffffffff811115610faa57600080fd5b610fb686828701610d75565b935050610fc560208501610e47565b9150604084013590509250925092565b600060208284031215610fe757600080fd5b5051919050565b60006020828403121561100057600080fd5b81518015158114610e7e57600080fd5b60208082526036908201527f5573657252656769737472793a2063616c6c657220646f6573206e6f74206861604082015275766520555345525f5245474953545241525f524f4c4560501b606082015260800190565b60208082526024908201527f5573657252656769737472793a207573657249642063616e6e6f7420626520656040820152636d70747960e01b606082015260800190565b600082516110bc818460208701610e85565b9190910192915050565b600181811c908216806110da57607f821691505b6020821081036110fa57634e487b7160e01b600052602260045260246000fd5b50919050565b60208082526021908201527f5573657252656769737472793a207573657220646f6573206e6f7420657869736040820152601d60fa1b606082015260800190565b60208082526028908201527f5573657252656769737472793a2070726f66696c65486173682063616e6e6f74604082015267206265207a65726f60c01b606082015260800190565b601f8211156111d357600081815260208120601f850160051c810160208610156111b05750805b601f850160051c820191505b818110156111cf578281556001016111bc565b5050505b505050565b815167ffffffffffffffff8111156111f2576111f2610d5f565b6112068161120084546110c6565b84611189565b602080601f83116001811461123b57600084156112235750858301515b600019600386901b1c1916600185901b1785556111cf565b600085815260208120601f198616915b8281101561126a5788860151825594840194600190910190840161124b565b50858210156112885787850151600019600388901b60f8161c191681555b5050505050600190811b0190555056fea2646970667358221220bd98ffa99bd43e5e4b613bca970d298ff47d18b945e7713031b33e54f6c658f864736f6c63430008140033",
  "immutableReferences": {},
  "source": "// SPDX-License-Identifier: MIT\npragma solidity ^0.8.20;\n\nimport \"./AccessControl.sol\";\n\n/**\n * @title UserRegistry\n * @dev Smart contract for storing user identity and profile data hashes\n * Links user IDs to Ethereum addresses and stores profile hashes\n */\ncontract UserRegistry {\n    AccessControl public accessControl;\n\n    // Struct to store user information\n    struct UserInfo {\n        string userId;\n        address userAddress;\n        bytes32 profileHash;\n        uint256 registeredAt;\n        uint256 lastUpdatedAt;\n    }\n\n    // Mapping from userId to UserInfo\n    mapping(string => UserInfo) public users;\n    \n    // Mapping from address to userId (for reverse lookup)\n    mapping(address => string) public addressToUserId;\n    \n    // Array to track all registered user IDs\n    string[] public registeredUserIds;\n\n    // Events\n    event UserRegistered(\n        string indexed userId,\n        address indexed userAddress,\n        bytes32 profileHash,\n        uint256 timestamp\n    );\n\n    event ProfileHashUpdated(\n        string indexed userId,\n        bytes32 oldHash,\n        bytes32 newHash,\n        uint256 timestamp\n    );\n\n    modifier onlyUserRegistrar() {\n        require(\n            accessControl.hasRole(msg.sender, accessControl.USER_REGISTRAR_ROLE()),\n            \"UserRegistry: caller does not have USER_REGISTRAR_ROLE\"\n        );\n        _;\n    }\n\n    constructor(address _accessControlAddress) {\n        require(_accessControlAddress != address(0), \"UserRegistry: invalid access control address\");\n        accessControl = AccessControl(_accessControlAddress);\n    }\n\n    /**\n     * @dev Register a new user or update existing user\n     * @param userId The unique user identifier\n     * @param userAddress The Ethereum address associated with the user\n     * @param profileHash The SHA256 hash of the user's profile data\n     */\n    function registerUser(\n        string memory userId,\n        address userAddress,\n        bytes32 profileHash\n    ) public onlyUserRegistrar {\n        require(bytes(userId).length > 0, \"UserRegistry: userId cannot be empty\");\n        require(userAddress != address(0), \"UserRegistry: userAddress cannot be zero\");\n        require(profileHash != bytes32(0), \"UserRegistry: profileHash cannot be zero\");\n\n        bool isNewUser = bytes(users[userId].userId).length == 0;\n\n        if (isNewUser) {\n            // New user registration\n            users[userId] = UserInfo({\n                userId: userId,\n                userAddress: userAddress,\n                profileHash: profileHash,\n                registeredAt: block.timestamp,\n                lastUpdatedAt: block.timestamp\n            });\n            \n            addressToUserId[userAddress] = userId;\n            registeredUserIds.push(userId);\n            \n            emit UserRegistered(userId, userAddress, profileHash, block.timestamp);\n        } else {\n            // Update existing user\n            bytes32 oldHash = users[userId].profileHash;\n            users[userId].userAddress = userAddress;\n            users[userId].profileHash = profileHash;\n            users[userId].lastUpdatedAt = block.timestamp;\n            \n            // Update address mapping if different\n            string memory currentUserId = addressToUserId[userAddress];\n            if (keccak256(bytes(currentUserId)) != keccak256(bytes(userId))) {\n                addressToUserId[userAddress] = userId;\n            }\n            \n            emit ProfileHashUpdated(userId, oldHash, profileHash, block.timestamp);\n        }\n    }\n\n    /**\n     * @dev Update profile hash for an existing user\n     * @param userId The user identifier\n     * @param newProfileHash The new profile hash\n     */\n    function updateProfileHash(string memory userId, bytes32 newProfileHash) public onlyUserRegistrar {\n        require(bytes(userId).length > 0, \"UserRegistry: userId cannot be empty\");\n        require(bytes(users[userId].userId).length > 0, \"UserRegistry: user does not exist\");\n        require(newProfileHash != bytes32(0), \"UserRegistry: profileHash cannot be zero\");\n\n        bytes32 oldHash = users[userId].profileHash;\n        users[userId].profileHash = newProfileHash;\n        users[userId].lastUpdatedAt = block.timestamp;\n\n        emit ProfileHashUpdated(userId, oldHash, newProfileHash, block.timestamp);\n    }\n\n    /**\n     * @dev Get user information by userId\n     * @param userId The user identifier\n     * @return userAddress The Ethereum address\n     * @return profileHash The profile hash\n     * @return registeredAt Registration timestamp\n     * @return lastUpdatedAt Last update timestamp\n     */\n    function getUserProfileHash(string memory userId) public view returns (\n        address userAddress,\n        bytes32 profileHash,\n        uint256 registeredAt,\n        uint256 lastUpdatedAt\n    ) {\n        require(bytes(users[userId].userId).length > 0, \"UserRegistry: user does not exist\");\n        \n        UserInfo memory user = users[userId];\n        return (\n            user.userAddress,\n            user.profileHash,\n            user.registeredAt,\n            user.lastUpdatedAt\n        );\n    }\n\n    /**\n     * @dev Get userId by Ethereum address\n     * @param userAddress The Ethereum address\n     * @return userId The user identifier\n     */\n    function getUserIdByAddress(address userAddress) public view returns (string memory) {\n        return addressToUserId[userAddress];\n    }\n\n    /**\n     * @dev Check if a user exists\n     * @param userId The user identifier\n     * @return bool True if user exists\n     */\n    function userExists(string memory userId) public view returns (bool) {\n        return bytes(users[userId].userId).length > 0;\n    }\n\n    /**\n     * @dev Get total number of registered users\n     * @return count The total count\n     */\n    function getTotalUserCount() public view returns (uint256) {\n        return registeredUserIds.length;\n    }\n}\n",
  "sourcePath": "/Users/pendiaz/Documents/my-projects/capstone-test/Capstone/blockchain/contracts/UserRegistry.sol",
  "compiler": {
    "name": "solc",
    "version": "0.8.20+commit.a1b79de6.Emscripten.clang"
  },
  "schemaVersion": "3.3.4",
  "updatedAt": "2026-04-15T11:25:37.123Z",
  "networkType": "ethereum",
  "devdoc": {
    "details": "Smart contract for storing user identity and profile data hashes Links user IDs to Ethereum addresses and stores profile hashes",
    "kind": "dev",
    "methods": {
      "getTotalUserCount()": {
        "details": "Get total number of registered users",
        "returns": {
          "_0": "count The total count"
        }
      },
      "getUserIdByAddress(address)": {
        "details": "Get userId by Ethereum address",
        "params": {
          "userAddress": "The Ethereum address"
        },
        "returns": {
          "_0": "userId The user identifier"
        }
      },
      "getUserProfileHash(string)": {
        "details": "Get user information by userId",
        "params": {
          "userId": "The user identifier"
        },
        "returns": {
          "lastUpdatedAt": "Last update timestamp",
          "profileHash": "The profile hash",
          "registeredAt": "Registration timestamp",
          "userAddress": "The Ethereum address"
        }
      },
      "registerUser(string,address,bytes32)": {
        "details": "Register a new user or update existing user",
        "params": {
          "profileHash": "The SHA256 hash of the user's profile data",
          "userAddress": "The Ethereum address associated with the user",
          "userId": "The unique user identifier"
        }
      },
      "updateProfileHash(string,bytes32)": {
        "details": "Update profile hash for an existing user",
        "params": {
          "newProfileHash": "The new profile hash",
          "userId": "The user identifier"
        }
      },
      "userExists(string)": {
        "details": "Check if a user exists",
        "params": {
          "userId": "The user identifier"
        },
        "returns": {
          "_0": "bool True if user exists"
        }
      }
    },
    "title": "UserRegistry",
    "version": 1
  },
  "userdoc": {
    "kind": "user",
    "methods": {},
    "version": 1
  }
}